:100000000C9463000C941E070C9445070C948B0011
:100010000C948B000C948B000C948B000C948B0034
:100020000C948B000C948B000C948B000C948B0024
:100030000C948B000C948B000C948B000C948B0014
:100040000C946C070C948B000C9433060C9465068E
:100050000C948B000C948B000C948B000C948B00F4
:100060000C948B000C948B0000000008000201002F
:100070000003040700000000000000000102040863
:100080001020408001020408102001020408102002
:10009000040404040404040402020202020203032E
:1000A00003030303000000002300260029000000D2
:1000B0000000250028002B0000000000240027007D
:1000C0002A001504950611241FBECFEFD8E0DEBF2D
:1000D000CDBF11E0A0E0B1E0EAE4F3E102C0059099
:1000E0000D92AE31B107D9F722E0AEE1B1E001C027
:1000F0001D92A131B207E1F710E0C3E6D0E004C0E1
:100100002197FE010E949D09C136D107C9F70E94BF
:10011000C3060C94A3090C94000026E040E052ECC6
:1001200061E070E087E691E00C94CE050E94C10486
:100130000E9417010C9430040CB405FC0DC09EBD48
:1001400000000DB407FEFDCF9EB58EBD00000DB4BE
:1001500007FEFDCF8EB508958EBD00000DB407FEDD
:10016000FDCF8EB59EBD00000DB407FEFDCF9EB540
:100170000895CF93DF93EC0180910F02882399F0CB
:100180003FB7F89480910F02813059F48DB380937A
:100190000D022DB390910E02909592239DBB3FBF0F
:1001A00002C030930D0280E58CBD81E08DBD60E022
:1001B00089E00E94EC0881E090E00E94C207CE0135
:1001C0000E949C0081E090E00E94C20761E089E00B
:1001D0000E94EC0880910F02882361F09FB7F89489
:1001E00020910F0280910D02213019F48DBB9FBF29
:1001F00001C08FBFDF91CF9108950E94450961E052
:1002000089E00E94EC0861E089E00E94B00880E08B
:1002100090E80C94B9007F70706390E090E4899F3F
:10022000902D88271124862B972B0C94B900CF9200
:10023000DF92EF92FF920F931F93CF93DF93CDB78F
:10024000DEB7A9970FB6F894DEBF0FBECDBF809181
:100250002A01882309F47BC00E94B60700911E0181
:1002600010911F0120912001309121016B017C012F
:10027000C01AD10AE20AF30A9701860140910001EF
:10028000509101016A01E12CF12C0C151D052E0580
:100290003F0508F45CC060931E0170931F018093BA
:1002A0002001909321018E01065E1F4F80E1F8012D
:1002B00011928A95E9F7D12C80912A01D816A0F4E1
:1002C000ED2CF12CF701EE5DFE4F80810E940B08B2
:1002D000EE0CFF1CE1E0F0E0EC0FFD1FEE0DFF1D4A
:1002E000928F818FD394E8CF89E6898382E98A83CC
:1002F00084E18B8386E9898F0E94B6076C837D83B6
:100300008E839F83F801DE011896CE018A96219193
:1003100031912D933D93E817F907C9F72B81FE0121
:10032000349640E050E080E030E04217530728F474
:100330009191890F4F5F5F4FF8CF888F49E150E06F
:10034000BE016F5F7F4F87E691E00E94D206A996BB
:100350000FB6F894DEBF0FBECDBFDF91CF911F91D6
:100360000F91FF90EF90DF90CF900895CF93DF93A0
:1003700000D000D01F92CDB7DEB7BE016F5F7F4FB8
:1003800095E0FB0111929A95E9F799E6998396E930
:100390009D838A8345E050E087E691E00E94D20683
:1003A0000F900F900F900F900F90DF91CF910895C5
:1003B000FF920F931F93CF93DF93CDB7DEB72C97A8
:1003C0000FB6F894DEBF0FBECDBF262F8A01803254
:1003D00009F478C048F48131E9F1823109F44AC066
:1003E000803109F0C7C01EC0853209F4A1C020F4D5
:1003F000813209F497C0BEC0803309F4A9C08133AB
:1004000009F0B8C08AEF90E098878F831D821B8225
:1004100019821E821C821A82CE0101960E94370325
:1004200081EAA9C0633009F095C080912B01811148
:1004300005C00E94FD0081E080932B01F8016181DD
:1004400070E0762F66278281682B80810E940B01E5
:1004500080E891C0623009F07DC0FA01F08011811E
:1004600061E08F2D0E94B008612F8F2D0E94EC0853
:1004700081E881C0613009F06DC0FA01108160E04F
:10048000812F2C870E94B008812F0E941C09BE0179
:100490006F5F7F4F97E0FB0111929A95E9F799E61C
:1004A000998392E89A832C852B8396E99F831C83FA
:1004B0008D83180F1E8347E050E087E691E00E948D
:1004C000D2065BC06B3009F045C08BE0FA01DE015B
:1004D000119601900D928A95E1F7FA0140855185B8
:1004E000228510922A01E2E2F1E0DE01119680E01D
:1004F00010829D9197FD02C090838F5F319691E0AD
:10050000EA32F907A9F780932A0150930101409339
:100510000001211102C081E001C083E00E940808AF
:1005200080E929C06130B1F410922A0181E923C029
:10053000623081F4FA01F080118161E08F2D0E9418
:10054000B008612F70E08F2D0E94280885E913C044
:10055000683011F08DEF0FC088E0FA01DE011196CE
:1005600001900D928A95E1F7CE0101960E94370322
:1005700080EA01C08EEF0E94B6012C960FB6F89467
:10058000DEBF0FBECDBFDF91CF911F910F91FF90C6
:10059000089580912D018823F9F0E0912F01EE0F4D
:1005A000FF0BEC55FF4FA591B4912C9180912E013A
:1005B00030E0082E000C990B82239323892B61F0E5
:1005C0008091340190913501A0913601B0913701AD
:1005D0000197A109B1090BC08091340190913501B7
:1005E000A0913601B09137010196A11DB11D8093F4
:1005F000340190933501A0933601B09337010895EB
:10060000809139018823F9F0E0913B01EE0FFF0B57
:10061000EC55FF4FA591B4912C9180913A0130E0B7
:10062000082E000C990B82239323892B61F0809173
:10063000400190914101A0914201B0914301019785
:10064000A109B1090BC08091400190914101A09195
:100650004201B09143010196A11DB11D809340015B
:1006600090934101A0934201B093430108954F92AA
:100670005F926F927F928F929F92AF92BF92CF9232
:10068000DF92EF92FF920F931F93CF93DF93CDB73B
:10069000DEB72C970FB6F894DEBF0FBECDBFDC01DE
:1006A00016962D913C9117973093070120930601E0
:1006B0002CE2822E21E0922E8C0132E0A32E31E03A
:1006C000B32E7C01B4E0EB0EF11CC12CD12C370110
:1006D0004CE0542E4424439419821A821B821C82BB
:1006E0001D821E821F82188619861A861B861C860A
:1006F000FE013196D401852D01900D928A95E1F786
:10070000F80180815C9CD0015D9CB00D1124A45D3A
:10071000BE4F8C93808118160CF05EC0C701029703
:10072000FC0120811216BCF4E22F220FFF0BE458CB
:10073000FF4FE4911296EC931297FC018081E82F11
:10074000880FFF0BE057FF4FE4911396EC9313973C
:1007500011964C9202C011961C926114710401F121
:10076000D701EC910E2E000CFF0BE458FF4FE491E3
:100770005C9CD0015D9CB00D1124A45DBE4F15960C
:10078000EC931597F7018081E82F880FFF0BE05756
:10079000FF4FE4911696EC93169714964C920AC06C
:1007A0005C9CF0015D9CF00D1124E45DFE4F148211
:1007B00016821582D5016D917C91F801808182307D
:1007C00021F0833021F08FEF03C080E001C081E091
:1007D00043E050E00E94FE06FCE08F0E911C0F5F8C
:1007E0001F4F82E0A80EB11CAFEFEA1AFA0ACA94B2
:1007F000CD2821F0CC24C394D12C6ECF2C960FB6EB
:10080000F894DEBF0FBECDBFDF91CF911F910F9146
:10081000FF90EF90DF90CF90BF90AF909F908F9020
:100820007F906F905F904F900895ECE2F1E010821E
:100830001182128213821482158216821782108608
:100840001186128613861486158616861786108AD8
:10085000118A128A138A148A158A168A178A0895A9
:10086000CF92DF92EF92FF920F931F93CF93DF937C
:10087000CDB7DEB765970FB6F894DEBF0FBECDBF1C
:100880000E94B60700914401109145012091460154
:10089000309147016B017C01C01AD10AE20AF30AC8
:1008A0009701860140910601509107016A01E12CF0
:1008B000F12C0C151D052E053F0508F453C060935F
:1008C000440170934501809346019093470189E666
:1008D000898383E98A8380E18B8386E98D8BF89411
:1008E0008091340190913501A0913601B09137018A
:1008F00088879987AA87BB878091400190914101A1
:10090000A0914201B09143018C879D87AE87BF873C
:1009100078940E94B6076C837D838E839F83809139
:10092000060190910701A0E0B0E0888B998BAA8B1B
:10093000BB8B2B81FE01349640E050E080E030E03C
:100940004217530728F49191890F4F5F5F4FF8CFFB
:100950008C8B45E150E0BE016F5F7F4F87E691E0F1
:100960000E94D20665960FB6F894DEBF0FBECDBFCB
:10097000DF91CF911F910F91FF90EF90DF90CF907B
:100980000895CF93DF93CBE4D1E087E691E00E9416
:100990000805892BD1F187E691E00E942205E091BC
:1009A0006601E11102C0893669F521E02E0F20931E
:1009B0006601F0E0E85BFE4F808330E060914A0121
:1009C000862F90E0059628173907F9F6285B3E4FE9
:1009D000F901319780818639A9F480914901EBE4CE
:1009E000F1E090E04E2F4C1B461718F44191940F04
:1009F000F9CFF90132972081291304C04BE451E06B
:100A00000E94D80110926601C0CFDF91CF91089566
:100A1000FC01918D228D892F90E0805C9F4F821B7D
:100A200091098F7399270895FC01918D828D9817F4
:100A300031F0828DE80FF11D858D90E008958FEFE4
:100A40009FEF0895FC01918D828D981761F0828D42
:100A5000DF01A80FB11D5D968C91928D9F5F9F73F2
:100A6000928F90E008958FEF9FEF08958BE896E0C6
:100A7000892B49F080E090E0892B29F00E948B06B9
:100A800081110C9400000895FC01848DDF01A80FF2
:100A9000B11DA35ABF4F2C91848D90E001968F73A6
:100AA0009927848FA689B7892C93A089B1898C91C5
:100AB00080648C93938D848D981306C00288F3898B
:100AC000E02D80818F7D80830895CF93DF93EC01AB
:100AD000888D8823C9F0EA89FB89808185FD05C05E
:100AE000A889B9898C9186FD0FC00FB607FCF5CF98
:100AF000808185FFF2CFA889B9898C9185FFEDCFE0
:100B0000CE010E944405E7CFDF91CF910895EF9287
:100B1000FF920F931F93CF93DF93EC0181E0888FB7
:100B20009B8D8C8D981305C0E889F989808185FD9E
:100B300024C0F62E0B8D10E00F5F1F4F0F7311278F
:100B4000E02E8C8DE8120CC00FB607FCFACFE889B6
:100B5000F989808185FFF5CFCE010E944405F1CF50
:100B60008B8DFE01E80FF11DE35AFF4FF0820B8FD2
:100B7000EA89FB898081806207C0EE89FF896083F2
:100B8000E889F98980818064808381E090E0DF9149
:100B9000CF911F910F91FF90EF900895CF92DF9228
:100BA000EF92FF921F93CF93DF93EC016A017B01D9
:100BB000122FE889F98982E080834115514E610541
:100BC0007105B1F060E079E08DE390E0A701960156
:100BD0000E947B09DA01C9010197A109B109B69503
:100BE000A79597958795AC01411580E15807A8F026
:100BF000E889F989108260E874E88EE190E0A70145
:100C000096010E947B09BA01A9014150510961096D
:100C100071097695679557954795EC85FD855083C5
:100C2000EE85FF854083188EEC89FD891083EA8963
:100C3000FB89808180618083EA89FB89808188606B
:100C40008083EA89FB89808180688083EA89FB89C7
:100C500080818F7D8083DF91CF911F91FF90EF90F6
:100C6000DF90CF9008951F920F920FB60F9211242C
:100C70002F938F939F93EF93FF93E0917701F091E0
:100C800078018081E0917D01F0917E0182FD12C0AA
:100C90009081809180018F5F8F73209181018217F5
:100CA00051F0E0918001F0E0E959FE4F958F80937B
:100CB000800101C08081FF91EF919F918F912F91D1
:100CC0000F900FBE0F901F9018951F920F920FB6A6
:100CD0000F9211242F933F934F935F936F937F93C2
:100CE0008F939F93AF93BF93EF93FF9387E691E02A
:100CF0000E944405FF91EF91BF91AF919F918F9119
:100D00007F916F915F914F913F912F910F900FBE07
:100D10000F901F90189587E691E00E94080521E04A
:100D2000892B09F420E0822F0895E7E6F1E0138291
:100D3000128288EE93E0A0E0B0E084839583A683DE
:100D4000B78381E191E09183808385EC90E0958782
:100D5000848784EC90E09787868780EC90E0918B85
:100D6000808B81EC90E0938B828B82EC90E0958B72
:100D7000848B86EC90E0978B868B118E128E138E6F
:100D8000148E089508950E94CD070E94C2060E9405
:100D90008D00C6E3D5E00E9496002097E1F30E9403
:100DA0003605F9CFCF92DF92EF92FF920F931F9308
:100DB000CF93DF936C017A018B01C0E0D0E0CE15B8
:100DC000DF0589F0D8016D918D01D601ED91FC917F
:100DD0000190F081E02DC6010995892B11F47E0167
:100DE00002C02196ECCFC701DF91CF911F910F91E7
:100DF000FF90EF90DF90CF90089508958230E8F44F
:100E0000E82FF0E0EE0FFF1FE85FFE4F7183608375
:100E1000813041F0809169008C7F482B40936900BC
:100E2000E89A089580916900440F551F440F551F9B
:100E3000837F482B40936900E99A08951F920F928F
:100E40000FB60F9211242F933F934F935F936F939D
:100E50007F938F939F93AF93BF93EF93FF93E09113
:100E60000801F09109010995FF91EF91BF91AF91B0
:100E70009F918F917F916F915F914F913F912F91B2
:100E80000F900FBE0F901F9018951F920F920FB6E4
:100E90000F9211242F933F934F935F936F937F9300
:100EA0008F939F93AF93BF93EF93FF93E0910A01CA
:100EB000F0910B010995FF91EF91BF91AF919F9137
:100EC0008F917F916F915F914F913F912F910F90F3
:100ED0000FBE0F901F9018951F920F920FB60F9292
:100EE00011242F933F938F939F93AF93BF93809140
:100EF000050290910602A0910702B091080230917C
:100F0000040223E0230F2D3720F40196A11DB11D0B
:100F100005C026E8230F0296A11DB11D20930402EF
:100F20008093050290930602A0930702B0930802F3
:100F30008091090290910A02A0910B02B0910C02DB
:100F40000196A11DB11D8093090290930A02A093FE
:100F50000B02B0930C02BF91AF919F918F913F9183
:100F60002F910F900FBE0F901F9018952FB7F894E8
:100F7000609105027091060280910702909108022B
:100F80002FBF08958230910538F0880F991F880F80
:100F9000991F05970197F1F70895789484B58260B9
:100FA00084BD84B5816084BD85B5826085BD85B50D
:100FB000816085BDEEE6F0E0808181608083E1E8BC
:100FC000F0E01082808182608083808181608083F4
:100FD000E0E8F0E0808181608083E1EBF0E08081F7
:100FE00084608083E0EBF0E0808181608083EAE7C9
:100FF000F0E0808184608083808182608083808152
:10100000816080838081806880831092C100089510
:1010100080930C0108958E3008F08E5087702091D7
:101020000C0190E4299F90011124822B80937C0075
:1010300080917A00806480937A0080917A0086FDA6
:10104000FCCF809178002091790090E0922B089558
:101050001F93CF93DF93182FEB0161E00E94B0083C
:10106000209711F460E004C0CF3FD10539F461E06E
:10107000812FDF91CF911F910C94EC08E12FF0E0CC
:10108000E859FF4FE491E330F9F048F4E130B9F06A
:10109000E230A1F584B5806284BDC8BD34C0E730BC
:1010A000E9F0E83019F1E43049F580918000806280
:1010B00080938000D0938B00C0938A0024C084B5B5
:1010C000806884BDC7BD1FC0809180008068809308
:1010D0008000D0938900C093880015C08091B00033
:1010E00080688093B000C093B3000DC08091B000C1
:1010F00080628093B000C093B40005C0C038D105B1
:101100000CF0B5CFAFCFDF91CF911F910895833011
:1011100081F028F4813099F08230A1F00895873071
:10112000A9F08830B9F08430D1F4809180008F7DAF
:1011300003C0809180008F7780938000089584B5EC
:101140008F7702C084B58F7D84BD08958091B000F3
:101150008F7703C08091B0008F7D8093B000089599
:10116000CF93DF9390E0FC01E458FF4F2491FC0102
:10117000E057FF4F8491882361F190E0880F991F19
:10118000FC01E854FF4FC591D491FC01E255FF4F9B
:10119000A591B491611109C09FB7F89488812095F9
:1011A00082238883EC912E230BC0623061F49FB7B9
:1011B000F8943881822F809583238883EC912E2B9D
:1011C0002C939FBF06C08FB7F894E8812E2B2883FD
:1011D0008FBFDF91CF9108951F93CF93DF93282F77
:1011E00030E0F901E859FF4F8491F901E458FF4FCD
:1011F000D491F901E057FF4FC491CC23C9F0162FC9
:1012000081110E948708EC2FF0E0EE0FFF1FE255DE
:10121000FF4FA591B4918FB7F894111105C09C911F
:10122000ED2FE095E92302C0EC91ED2BEC938FBFFD
:10123000DF91CF911F910895CF93DF93282F30E056
:10124000F901E859FF4F8491F901E458FF4FD49117
:10125000F901E057FF4FC491CC2391F081110E9416
:101260008708EC2FF0E0EE0FFF1FEC55FF4FA59124
:10127000B491EC91ED2381E090E021F480E002C094
:1012800080E090E0DF91CF910895CF93CFB7F894AD
:1012900080911002811127C0EAE9F0E08491E6E82C
:1012A000F0E09491E82FF0E0EE0FFF1FE854FF4FBD
:1012B000A591B491EC91E92321F461E08AE00E94C8
:1012C000EC0861E08AE00E94B0088CB580618CBDBA
:1012D0008CB580648CBD61E08DE00E94B00861E057
:1012E0008BE00E94B008809110028F5F8093100203
:1012F000CFBFCF910895A1E21A2EAA1BBB1BFD01FF
:101300000DC0AA1FBB1FEE1FFF1FA217B307E407E4
:10131000F50720F0A21BB30BE40BF50B661F771F3C
:10132000881F991F1A9469F760957095809590951C
:101330009B01AC01BD01CF010895EE0FFF1F059089
:0A134000F491E02D0994F894FFCF1A
:10134A00C800C9020003F401FD06FD060100000001
:0E135A00008705D2060805220514056505006A
:00000001FF
