:100000000C9462000C94CB060C94F2060C948A00BB
:100010000C948A000C948A000C948A000C948A0038
:100020000C948A000C948A000C948A000C948A0028
:100030000C948A000C948A000C948A000C948A0018
:100040000C9419070C948A000C94E0050C94120689
:100050000C948A000C948A000C948A000C948A00F8
:100060000C948A000C948A00000000080002010031
:100070000003040700000000000000000102040863
:100080001020408001020408102001020408102002
:10009000040404040404040402020202020203032E
:1000A00003030303000000002300260029000000D2
:1000B0000000250028002B0000000000240027007D
:1000C0002A00420611241FBECFEFD8E0DEBFCDBF0D
:1000D00011E0A0E0B1E0E4EAF2E102C005900D9287
:1000E000AA31B107D9F722E0AAE1B1E001C01D921F
:1000F000A730B207E1F710E0C2E6D0E004C02197D4
:10010000FE010E944A09C136D107C9F70E94700654
:100110000C9450090C94000026E040E052EC61E0A1
:1001200070E08DE591E00C947B050E946E040E94C6
:1001300016010C94DD030CB405FC0DC09EBD00003F
:100140000DB407FEFDCF9EB58EBD00000DB407FEB9
:10015000FDCF8EB508958EBD00000DB407FEFDCF16
:100160008EB59EBD00000DB407FEFDCF9EB508956F
:10017000CF93DF93EC0180910502882399F03FB77C
:10018000F89480910502813059F48DB38093030275
:100190002DB390910402909592239DBB3FBF02C066
:1001A0003093030280E58CBD81E08DBD60E089E085
:1001B0000E94990881E090E00E946F07CE010E94A2
:1001C0009B0081E090E00E946F0761E089E00E945F
:1001D000990880910502882361F09FB7F8942091D7
:1001E000050280910302213019F48DBB9FBF01C02D
:1001F0008FBFDF91CF9108950E94F20861E089E0FE
:100200000E94990861E089E00E945D0880E090E822
:100210000C94B8007F70706390E090E4899F902DFB
:1002200088271124862B972B0C94B800CF92DF924D
:10023000EF92FF920F931F93CF93DF93CDB7DEB76B
:10024000A9970FB6F894DEBF0FBECDBF80912601EF
:10025000882309F47BC00E94630700911A01109162
:100260001B0120911C0130911D016B017C01C01A02
:10027000D10AE20AF30A97018601409100015091E8
:1002800001016A01E12CF12C0C151D052E053F051D
:1002900008F45CC060931A0170931B0180931C01E9
:1002A00090931D018E01065E1F4F80E1F8011192AF
:1002B0008A95E9F7D12C80912601D816A0F4ED2C6F
:1002C000F12CF701E25EFE4F80810E94B807EE0C30
:1002D000FF1CE1E0F0E0EC0FFD1FEE0DFF1D928F23
:1002E000818FD394E8CF89E6898382E98A8384E188
:1002F0008B8386E9898F0E9463076C837D838E835D
:100300009F83F801DE011896CE018A9621913191E2
:100310002D933D93E817F907C9F72B81FE01349619
:1003200040E050E080E030E04217530728F491911C
:10033000890F4F5F5F4FF8CF888F49E150E0BE01D2
:100340006F5F7F4F8DE591E00E947F06A9960FB603
:10035000F894DEBF0FBECDBFDF91CF911F910F91FB
:10036000FF90EF90DF90CF900895CF93DF9300D070
:1003700000D01F92CDB7DEB7BE016F5F7F4F95E013
:10038000FB0111929A95E9F799E6998396E99D8385
:100390008A8345E050E08DE591E00E947F060F9052
:1003A0000F900F900F900F90DF91CF910895AF9223
:1003B000BF92CF92DF92EF920F931F93CF93DF9371
:1003C000CDB7DEB72B970FB6F894DEBF0FBECDBF0B
:1003D000162F5A01803209F472C048F48131D9F1E4
:1003E000823109F447C0803109F0C0C01CC0853299
:1003F00009F49CC020F4813209F492C0B7C0803364
:1004000009F4A4C0813309F0B1C088EEC82E83E09E
:10041000D82EE12C00E020E040E060E080E00E9487
:10042000550381EAA4C0633009F04BC080912701D5
:10043000811105C00E94FC0081E080932701F50135
:10044000618170E0762F66278281682B80810E940F
:100450000A0180E88CC06230A1F5FA0110810181A7
:1004600061E0812F0E945D08602F812F0E94990812
:1004700081E87DC0613029F5FA01B08060E08B2D04
:100480000E945D088B2D0E94C908BE016F5F7F4FDF
:1004900097E0FB0111929A95E9F799E6998392E822
:1004A0009A831B8396E99F83BC828D83B80EBE829C
:1004B00047E050E08DE591E00E947F065AC06B3026
:1004C00011F08DEF54C08BE0FA01DE01119601901E
:1004D0000D928A95E1F7FA014085518522851092A7
:1004E0002601EEE1F1E0DE01119680E010829D919F
:1004F00097FD02C090838F5F319691E0E632F90755
:10050000A9F7809326015093010140930001211126
:1005100002C081E001C083E00E94B50780E927C0E6
:10052000613079F61092260181E921C0623049F6E6
:10053000FA010081118161E0802F0E945D08612F26
:1005400070E0802F0E94D50785E911C0683009F05E
:10055000B8CFFA01C680D780E5800481238142812B
:10056000618180810E94550380EA01C08EEF0E9464
:10057000B5012B960FB6F894DEBF0FBECDBFDF914D
:10058000CF911F910F91EF90DF90CF90BF90AF90E0
:100590000895E0913601F0E0EE0FFF1FEC55FF4F9C
:1005A000A591B4919C9180913701892361F080914C
:1005B000280190912901A0912A01B0912B01019766
:1005C000A109B1090BC08091280190912901A09146
:1005D0002A01B0912B010196A11DB11D8093280124
:1005E00090932901A0932A01B0932B01E09134014B
:1005F000EE23A1F0F0E0EE0FFF1FEC55FF4FA591A9
:10060000B4919C9180913501892341F01092280189
:100610001092290110922A0110922B010895E09165
:100620003201F0E0EE0FFF1FEC55FF4FA591B491A2
:100630009C9180913301892361F080912C019091EC
:100640002D01A0912E01B0912F010197A109B109AF
:100650000BC080912C0190912D01A0912E01B091A1
:100660002F010196A11DB11D80932C0190932D01A6
:10067000A0932E01B0932F01E0913001EE23A1F061
:10068000F0E0EE0FFF1FEC55FF4FA591B4919C9148
:1006900080913101892341F010922C0110922D019B
:1006A00010922E0110922F010895CF92DF92EF92B7
:1006B0000F931F938093390120933801D092030147
:1006C000C092020118160CF034C0062E000C770BF5
:1006D000FB01E458FF4FE491E0933701FB01E05741
:1006E000FF4F649160933601442381F0042E000C87
:1006F000550BFA01E458FF4FE491E0933501FA01FC
:10070000E057FF4F44914093340104C010923401EC
:1007100010923501823021F0833021F08FEF03C039
:1007200080E001C081E043E050E069EC72E00E94AB
:10073000AB062091380112160CF039C0002E000CC7
:10074000110BF801E458FF4FE491E0933301F801F5
:10075000E057FF4F049100933201EE2081F08E2D7F
:10076000EE0C990BFC01E458FF4FE491E09331014A
:10077000FC01E057FF4F84918093300104C0109238
:10078000340110923501223021F0233021F08FEF17
:1007900003C080E001C081E043E050E06FE073E01F
:1007A0001F910F91EF90DF90CF900C94AB061F91AB
:1007B0000F91EF90DF90CF900895CF92DF92EF925C
:1007C000FF920F931F93CF93DF93CDB7DEB765975B
:1007D0000FB6F894DEBF0FBECDBF0E946307009135
:1007E0003A0110913B0120913C0130913D016B0198
:1007F0007C01C01AD10AE20AF30A970186014091EE
:100800000201509103016A01E12CF12C0C151D0528
:100810002E053F0508F453C060933A0170933B01E5
:1008200080933C0190933D0189E6898383E98A8323
:1008300080E18B8386E98D8BF894809128019091DB
:100840002901A0912A01B0912B0188879987AA8755
:10085000BB8780912C0190912D01A0912E01B09128
:100860002F018C879D87AE87BF8778940E9463078E
:100870006C837D838E839F8380910201909103011D
:10088000A0E0B0E0888B998BAA8BBB8B2B81FE01FB
:10089000349640E050E080E030E04217530728F4FF
:1008A0009191890F4F5F5F4FF8CF8C8B45E150E0FE
:1008B000BE016F5F7F4F8DE591E00E947F066596D8
:1008C0000FB6F894DEBF0FBECDBFDF91CF911F9161
:1008D0000F91FF90EF90DF90CF900895CF93DF932B
:1008E000C1E4D1E08DE591E00E94B504892BD1F1FE
:1008F0008DE591E00E94CF04E0915C01E11102C01E
:10090000893669F521E02E0F20935C01F0E0E25C6E
:10091000FE4F808330E060914001862F90E0059685
:1009200028173907F9F6225C3E4FF901319780818B
:100930008639A9F480913F01E1E4F1E090E04E2F87
:100940004C1B461718F44191940FF9CFF9013297D7
:100950002081291304C041E451E00E94D701109284
:100960005C01C0CFDF91CF910895FC01918D228D64
:10097000892F90E0805C9F4F821B91098F7399278C
:100980000895FC01918D828D981731F0828DE80FCA
:10099000F11D858D90E008958FEF9FEF0895FC0184
:1009A000918D828D981761F0828DDF01A80FB11DA6
:1009B0005D968C91928D9F5F9F73928F90E00895CA
:1009C0008FEF9FEF089588E396E0892B49F080E050
:1009D00090E0892B29F00E94380681110C940000C8
:1009E0000895FC01848DDF01A80FB11DA35ABF4FEC
:1009F0002C91848D90E001968F739927848FA6891E
:100A0000B7892C93A089B1898C9180648C93938D44
:100A1000848D981306C00288F389E02D80818F7D34
:100A200080830895CF93DF93EC01888D8823C9F0EC
:100A3000EA89FB89808185FD05C0A889B9898C91E7
:100A400086FD0FC00FB607FCF5CF808185FFF2CF82
:100A5000A889B9898C9185FFEDCFCE010E94F10460
:100A6000E7CFDF91CF910895EF92FF920F931F93FD
:100A7000CF93DF93EC0181E0888F9B8D8C8D981351
:100A800005C0E889F989808185FD24C0F62E0B8D8B
:100A900010E00F5F1F4F0F731127E02E8C8DE812AF
:100AA0000CC00FB607FCFACFE889F989808185FF71
:100AB000F5CFCE010E94F104F1CF8B8DFE01E80F3E
:100AC000F11DE35AFF4FF0820B8FEA89FB89808189
:100AD000806207C0EE89FF896083E889F989808197
:100AE0008064808381E090E0DF91CF911F910F912E
:100AF000FF90EF900895CF92DF92EF92FF921F93B5
:100B0000CF93DF93EC016A017B01122FE889F98909
:100B100082E080834115514E61057105B1F060E0BE
:100B200079E08DE390E0A70196010E942809DA019F
:100B3000C9010197A109B109B695A7959795879520
:100B4000AC01411580E15807A8F0E889F9891082C5
:100B500060E874E88EE190E0A70196010E94280900
:100B6000BA01A9014150510961097109769567954A
:100B700057954795EC85FD855083EE85FF8540832D
:100B8000188EEC89FD891083EA89FB898081806158
:100B90008083EA89FB89808188608083EA89FB8978
:100BA000808180688083EA89FB8980818F7D808352
:100BB000DF91CF911F91FF90EF90DF90CF9008953C
:100BC0001F920F920FB60F9211242F938F939F9322
:100BD000EF93FF93E0916D01F0916E018081E091C0
:100BE0007301F091740182FD12C0908180917601B1
:100BF0008F5F8F7320917701821751F0E09176011A
:100C0000F0E0E35AFE4F958F8093760101C080811A
:100C1000FF91EF919F918F912F910F900FBE0F90A9
:100C20001F9018951F920F920FB60F9211242F93B9
:100C30003F934F935F936F937F938F939F93AF9364
:100C4000BF93EF93FF938DE591E00E94F104FF9134
:100C5000EF91BF91AF919F918F917F916F915F9134
:100C60004F913F912F910F900FBE0F901F901895AD
:100C70008DE591E00E94B50421E0892B09F420E084
:100C8000822F0895EDE5F1E01382128288EE93E061
:100C9000A0E0B0E084839583A683B7838DE091E0E4
:100CA0009183808385EC90E09587848784EC90E045
:100CB0009787868780EC90E0918B808B81EC90E029
:100CC000938B828B82EC90E0958B848B86EC90E00A
:100CD000978B868B118E128E138E148E0895089525
:100CE0000E947A070E946F060E948C00C3EED4E037
:100CF0000E9495002097E1F30E94E304F9CFCF9280
:100D0000DF92EF92FF920F931F93CF93DF936C01CB
:100D10007A018B01C0E0D0E0CE15DF0589F0D80163
:100D20006D918D01D601ED91FC910190F081E02D46
:100D3000C6010995892B11F47E0102C02196ECCFE2
:100D4000C701DF91CF911F910F91FF90EF90DF903E
:100D5000CF90089508958230E8F4E82FF0E0EE0F88
:100D6000FF1FEC5FFE4F71836083813041F0809103
:100D700069008C7F482B40936900E89A0895809120
:100D80006900440F551F440F551F837F482B409324
:100D90006900E99A08951F920F920FB60F921124DD
:100DA0002F933F934F935F936F937F938F939F9373
:100DB000AF93BF93EF93FF93E0910401F09105018E
:100DC0000995FF91EF91BF91AF919F918F917F9185
:100DD0006F915F914F913F912F910F900FBE0F90A8
:100DE0001F9018951F920F920FB60F9211242F93F8
:100DF0003F934F935F936F937F938F939F93AF93A3
:100E0000BF93EF93FF93E0910601F09107010995DD
:100E1000FF91EF91BF91AF919F918F917F916F91D2
:100E20005F914F913F912F910F900FBE0F901F90A8
:100E300018951F920F920FB60F9211242F933F9384
:100E40008F939F93AF93BF938091FB019091FC018F
:100E5000A091FD01B091FE013091FA0123E0230F32
:100E60002D3720F40196A11DB11D05C026E8230FE2
:100E70000296A11DB11D2093FA018093FB0190936E
:100E8000FC01A093FD01B093FE018091FF019091C0
:100E90000002A0910102B09102020196A11DB11DB4
:100EA0008093FF0190930002A0930102B09302028D
:100EB000BF91AF919F918F913F912F910F900FBE56
:100EC0000F901F9018952FB7F8946091FB017091C7
:100ED000FC018091FD019091FE012FBF08958230A9
:100EE000910538F0880F991F880F991F0597019772
:100EF000F1F70895789484B5826084BD84B58160EB
:100F000084BD85B5826085BD85B5816085BDEEE611
:100F1000F0E0808181608083E1E8F0E010828081F0
:100F200082608083808181608083E0E8F0E080815E
:100F300081608083E1EBF0E0808184608083E0EB7E
:100F4000F0E0808181608083EAE7F0E08081846066
:100F500080838081826080838081816080838081C2
:100F6000806880831092C1000895809308010895DD
:100F70008E3008F08E5087702091080190E4299FF0
:100F800090011124822B80937C0080917A008064F0
:100F900080937A0080917A0086FDFCCF8091780062
:100FA0002091790090E0922B08951F93CF93DF93C7
:100FB000182FEB0161E00E945D08209711F460E0BA
:100FC00004C0CF3FD10539F461E0812FDF91CF918B
:100FD0001F910C949908E12FF0E0E859FF4FE4913C
:100FE000E330F9F048F4E130B9F0E230A1F584B52E
:100FF000806284BDC8BD34C0E730E9F0E83019F143
:10100000E43049F580918000806280938000D09325
:101010008B00C0938A0024C084B5806884BDC7BD9E
:101020001FC080918000806880938000D0938900E9
:10103000C093880015C08091B00080688093B00094
:10104000C093B3000DC08091B00080628093B00067
:10105000C093B40005C0C038D1050CF0B5CFAFCFF8
:10106000DF91CF911F910895833081F028F4813072
:1010700099F08230A1F008958730A9F08830B9F056
:101080008430D1F4809180008F7D03C080918000F6
:101090008F7780938000089584B58F7702C084B5E0
:1010A0008F7D84BD08958091B0008F7703C08091BB
:1010B000B0008F7D8093B0000895CF93DF9390E0D0
:1010C000FC01E458FF4F2491FC01E057FF4F84914D
:1010D000882361F190E0880F991FFC01E854FF4FCD
:1010E000C591D491FC01E255FF4FA591B4916111D6
:1010F00009C09FB7F8948881209582238883EC915A
:101100002E230BC0623061F49FB7F8943881822F90
:10111000809583238883EC912E2B2C939FBF06C050
:101120008FB7F894E8812E2B28838FBFDF91CF9162
:1011300008951F93CF93DF93282F30E0F901E859EA
:10114000FF4F8491F901E458FF4FD491F901E05722
:10115000FF4FC491CC23C9F0162F81110E9434088F
:10116000EC2FF0E0EE0FFF1FE255FF4FA591B49179
:101170008FB7F894111105C09C91ED2FE095E923EC
:1011800002C0EC91ED2BEC938FBFDF91CF911F91BB
:101190000895CF93DF93282F30E0F901E859FF4FEE
:1011A0008491F901E458FF4FD491F901E057FF4FC2
:1011B000C491CC2391F081110E943408EC2FF0E00F
:1011C000EE0FFF1FEC55FF4FA591B491EC91ED236D
:1011D00081E090E021F480E002C080E090E0DF91C7
:1011E000CF910895CF93CFB7F894809106028111E3
:1011F00027C0EAE9F0E08491E6E8F0E09491E82F76
:10120000F0E0EE0FFF1FE854FF4FA591B491EC9171
:10121000E92321F461E08AE00E94990861E08AE014
:101220000E945D088CB580618CBD8CB580648CBDDE
:1012300061E08DE00E945D0861E08BE00E945D0846
:10124000809106028F5F80930602CFBFCF910895F1
:10125000A1E21A2EAA1BBB1BFD010DC0AA1FBB1FBA
:10126000EE1FFF1FA217B307E407F50720F0A21B2C
:10127000B30BE40BF50B661F771F881F991F1A9499
:1012800069F760957095809590959B01AC01BD01C3
:10129000CF010895EE0FFF1F0590F491E02D099402
:0412A000F894FFCFF0
:1012A400C800F401AA06AA06010000000034057F64
:0A12B40006B504CF04C104120500C2
:00000001FF
