:100000000C9462000C9465050C948C050C948A0089
:100010000C948A000C948A000C948A000C948A0038
:100020000C948A000C948A000C948A000C948A0028
:100030000C948A000C948A000C948A000C948A0018
:100040000C94B3050C948A000C947B040C94AD04BE
:100050000C948A000C948A000C948A000C948A00F8
:100060000C948A000C948A00000000080002010031
:100070000003040700000000000000000102040863
:100080001020408001020408102001020408102002
:10009000040404040404040402020202020203032E
:1000A00003030303000000002300260029000000D2
:1000B0000000250028002B0000000000240027007D
:1000C0002A00DD0411241FBECFEFD8E0DEBFCDBF74
:1000D00011E0A0E0B1E0E8E1FFE002C005900D9280
:1000E000A233B107D9F722E0A2E3B1E001C01D922B
:1000F000AE30B207E1F710E0C2E6D0E004C02197CD
:10010000FE010E948407C136D107C9F70E940B0582
:100110000C948A070C940000809151019091520137
:100120000196909352018093510108950CB405FCFF
:100130000DC09EBD00000DB407FEFDCF9EB58EBD67
:1001400000000DB407FEFDCF8EB508958EBD0000F2
:100150000DB407FEFDCF8EB59EBD00000DB407FEA9
:10016000FDCF9EB50895CF93DF93EC0180910C02F3
:10017000882399F02FB7F89480910C02813059F4BC
:100180008DB380930A029DB380910B0280958923E1
:100190008DBB2FBF02C020930A0280E58CBD81E099
:1001A0008DBD60E089E00E94D40681E090E00E946D
:1001B0000906CE010E94960081E090E00E940906A7
:1001C00061E089E00E94D40680910C02882361F0EE
:1001D0009FB7F89420910C0280910A02213019F403
:1001E0008DBB9FBF01C08FBFDF91CF9108957F70FE
:1001F000706390E090E4899F902D88271124862BCE
:10020000972B0C94B3000E942C0761E089E00E94B8
:10021000D40661E089E00E94980680E090E80E94A0
:10022000B30083E00E944F0643E050E06CE870E0CA
:1002300080E00E94450526E040E855E260E070E07D
:1002400084E691E00C9416040F931F93CF93DF93F1
:10025000CDB7DEB760970FB6F894DEBF0FBECDBF47
:10026000162F823179F128F4803151F08131C1F0BB
:1002700090C0803209F448C0813209F482C089C03C
:10028000633009F098C0FA0161817281762767278F
:10029000762780810E94F70085E0E9E0F1E07CC0EC
:1002A000623009F088C0FA011081018161E0812F7C
:1002B0000E949806602F812F0E94D40685E0EEE010
:1002C000F1E06AC0613009F076C0FA01008160E0B7
:1002D000802F0E949806802F0E940307BE016F5F47
:1002E0007F4F97E0FB0111929A95E9F799E6998380
:1002F00092E89A831B8396E99F830C838D83800FFA
:100300008E8347E050E053C06B3009F054C08BE05F
:10031000FA01DE01119601900D928A95E1F7FA013A
:1003200060857185228510926301EBE5F1E0DE01C5
:10033000119680E010829D9197FD02C090838F5F9F
:10034000319691E0E336F907A9F780936301709342
:10035000030160930201211102C081E001C083E02A
:100360000E944F0685E0E3E1F1E0DE011C9601907A
:100370000D928A95E1F745E050E0BE01645F7F4F42
:1003800016C06130C1F41092630185E0E8E1F1E04C
:1003900003C085E0EDE1F1E0DE01119601900D92E0
:1003A0008A95E1F745E050E0BE016F5F7F4F84E63C
:1003B00091E00E941A0560960FB6F894DEBF0FBE5A
:1003C000CDBFDF91CF911F910F910895CF92DF9212
:1003D000EF92FF920F931F93CF93DF93CDB7DEB7CA
:1003E000A9970FB6F894DEBF0FBECDBF8091630111
:1003F000882309F47BC00E94FD05009157011091EC
:1004000058012091590130915A016B017C01C01AA9
:10041000D10AE20AF30A9701860140910201509144
:1004200003016A01E12CF12C0C151D052E053F0579
:1004300008F45CC060935701709358018093590190
:1004400090935A017E018AE1E80EF11C80E1F701E8
:1004500011928A95E9F7D12C80916301D816A0F406
:100460000D2D10E0F801E55AFE4F80810E945206E2
:10047000000F111FE1E0F0E0EC0FFD1FE00FF11F96
:10048000928F818FD394E8CF89E6898382E98A832A
:1004900084E18B8386E9898F0E94FD056C837D83CF
:1004A0008E839F83F701DE011896CE014896219135
:1004B00031912D933D93A817B907C9F72B81BE0140
:1004C0006F5F7F4FFB0180E030E0AF01461B570BB1
:1004D0004217530720F49381890F3196F6CF888F06
:1004E00049E150E084E691E00E941A05A9960FB612
:1004F000F894DEBF0FBECDBFDF91CF911F910F915A
:10050000FF90EF90DF90CF900895CF92DF92EF921F
:10051000FF920F931F93CF93DF93CDB7DEB72F9743
:100520000FB6F894DEBF0FBECDBF0E94FD0500914F
:1005300053011091540120915501309156016B01E6
:100540007C01C01AD10AE20AF30A970186014091A0
:100550000001509101016A01E12CF12C0C151D05DF
:100560002E053F0508F444C0609353017093540175
:100570008093550190935601F89400915101109188
:1005800052011092520110925101789489E68983A8
:1005900083E98A838AE08B8386E98F870E94FD0541
:1005A0006C837D838E839F838091000190910101F4
:1005B000A0E0B0E08A879B87AC87BD871987088752
:1005C0002B81BE016F5F7F4FFB0180E030E0AF0108
:1005D000461B570B4217530720F49381890F31961E
:1005E000F6CF8E874FE050E084E691E00E941A0536
:1005F0002F960FB6F894DEBF0FBECDBFDF91CF911F
:100600001F910F91FF90EF90DF90CF90089584E6B7
:1006100091E00E945003892BE1F184E691E00E9471
:100620006A03E0915001E11102C0893679F591E049
:100630009E0F90935001F0E0EE5CFE4F8083892F77
:1006400090E040913401242F30E02B5F3F4F821720
:100650009307E9F68E5C9E4FFC0131972081263985
:10066000A9F4E5E3F1E060E020E0641721F03191C6
:10067000230F6F5FFACFFC0132978081281306C0E9
:1006800045E351E0809133010E9424011092500112
:10069000BECF08950E9407030E94E6010C948502D4
:1006A000FC01918D228D892F90E0805C9F4F821BF1
:1006B00091098F7399270895FC01918D828D981768
:1006C00031F0828DE80FF11D858D90E008958FEF58
:1006D0009FEF0895FC01918D828D981761F0828DB6
:1006E000DF01A80FB11D5D968C91928D9F5F9F7366
:1006F000928F90E008958FEF9FEF089583ED94E03F
:10070000892B49F080E090E0892B29F00E94D304E6
:1007100081110C9400000895FC01848DDF01A80F65
:10072000B11DA35ABF4F2C91848D90E001968F7319
:100730009927848FA689B7892C93A089B1898C9138
:1007400080648C93938D848D981306C00288F389FE
:10075000E02D80818F7D80830895EF92FF920F932B
:100760001F93CF93DF93EC0181E0888F9B8D8C8D5D
:10077000981305C0E889F989808185FD24C0F62E8B
:100780000B8D10E00F5F1F4F0F731127E02E8C8D24
:10079000E8120CC00FB607FCFACFE889F98980810E
:1007A00085FFF5CFCE010E948C03F1CF8B8DFE012A
:1007B000E80FF11DE35AFF4FF0820B8FEA89FB89A6
:1007C0008081806207C0EE89FF896083E889F989AA
:1007D00080818064808381E090E0DF91CF911F91E0
:1007E0000F91FF90EF900895CF93DF93EC01888DE8
:1007F0008823C9F0EA89FB89808185FD05C0A88925
:10080000B9898C9186FD0FC00FB607FCF5CF8081AA
:1008100085FFF2CFA889B9898C9185FFEDCFCE01F4
:100820000E948C03E7CFDF91CF910895CF92DF92A2
:10083000EF92FF921F93CF93DF93EC016A017B014C
:10084000122FE889F98982E080834115514E6105B4
:100850007105B1F060E079E08DE390E0A7019601C9
:100860000E946207DA01C9010197A109B109B69591
:10087000A795979587959C01211580E13807A8F0E9
:10088000E889F989108260E874E88EE190E0A701B8
:1008900096010E946207DA01C9010197A109B10915
:1008A000B695A795979587959C01EC85FD85308336
:1008B000EE85FF852083188EEC89FD891083EA89F7
:1008C000FB89808180618083EA89FB8980818860DF
:1008D0008083EA89FB89808180688083EA89FB893B
:1008E00080818F7D8083DF91CF911F91FF90EF906A
:1008F000DF90CF9008951F920F920FB60F921124A0
:100900002F938F939F93EF93FF93E0917401F09156
:1009100075018081E0917A01F0917B0182FD12C026
:10092000908180917D018F5F8F7320917E0182176E
:1009300051F0E0917D01F0E0EC59FE4F958F8093EE
:100940007D0101C08081FF91EF919F918F912F9147
:100950000F900FBE0F901F9018951F920F920FB619
:100960000F9211242F933F934F935F936F937F9335
:100970008F939F93AF93BF93EF93FF9384E691E0A0
:100980000E948C03FF91EF91BF91AF919F918F9146
:100990007F916F915F914F913F912F910F900FBE7B
:1009A0000F901F90189584E691E00E94500321E07B
:1009B000892B09F420E0822F0895E4E6F1E0138208
:1009C000128288EE93E0A0E0B0E084839583A68352
:1009D000B78386E291E09183808385EC90E09587F0
:1009E000848784EC90E09787868780EC90E0918BF9
:1009F000808B81EC90E0938B828B82EC90E0958BE6
:100A0000848B86EC90E0978B868B118E128E138EE2
:100A1000148E089508950E9414060E940A050E94EB
:100A20000301CEE7D3E00E944A032097E1F30E943E
:100A30007E03F9CFCF92DF92EF92FF920F931F9335
:100A4000CF93DF936C017A018B01C0E0D0E0CE152B
:100A5000DF0581F0D8016D918D01D601ED91FC91FA
:100A60000190F081E02DC6010995892B11F02196A6
:100A7000EECF7E01C701DF91CF911F910F91FF90C3
:100A8000EF90DF90CF90089508958230E8F4E82F3A
:100A9000F0E0EE0FFF1FEC5FFE4F7183608381304B
:100AA00041F0809169008C7F482B40936900E89A5F
:100AB000089580916900837F440F551F440F551F8F
:100AC000482B40936900E99A08951F920F920FB640
:100AD0000F9211242F933F934F935F936F937F93C4
:100AE0008F939F93AF93BF93EF93FF93E091040194
:100AF000F09105010995FF91EF91BF91AF919F9101
:100B00008F917F916F915F914F913F912F910F90B6
:100B10000FBE0F901F9018951F920F920FB60F9255
:100B200011242F933F934F935F936F937F938F93F2
:100B30009F93AF93BF93EF93FF93E0910601F091E2
:100B400007010995FF91EF91BF91AF919F918F910F
:100B50007F916F915F914F913F912F910F900FBEB9
:100B60000F901F9018951F920F920FB60F9211249D
:100B70002F933F938F939F93AF93BF9380910202E4
:100B800090910302A0910402B091050230910102FC
:100B900023E0230F2D3720F40196A11DB11D05C0C0
:100BA00026E8230F0296A11DB11D20930102809318
:100BB000020290930302A0930402B0930502809175
:100BC000060290910702A0910802B09109020196D5
:100BD000A11DB11D8093060290930702A093080205
:100BE000B0930902BF91AF919F918F913F912F9147
:100BF0000F900FBE0F901F9018952FB7F89460912B
:100C000002027091030280910402909105022FBFAD
:100C100008958230910538F0880F991F880F991F29
:100C200005970197F1F70895789484B5826084BDA3
:100C300084B5816084BD85B5826085BD85B58160E0
:100C400085BDEEE6F0E0808181608083E1E8F0E040
:100C50001082808182608083808181608083E0E86F
:100C6000F0E0808181608083E1EBF0E0808184604E
:100C70008083E0EBF0E0808181608083EAE7F0E050
:100C800080818460808380818260808380818160B4
:100C900080838081806880831092C1000895809352
:100CA000080108958E3008F08E502091080190E4DC
:100CB000299F900111248770822B80937C00809162
:100CC0007A00806480937A0080917A0086FDFCCF60
:100CD000809178002091790090E0922B08958330E4
:100CE00081F028F4813099F08230A1F008958730A6
:100CF000A9F08830B9F08430D1F4809180008F7DE4
:100D000003C0809180008F7780938000089584B520
:100D10008F7702C084B58F7D84BD08958091B00027
:100D20008F7703C08091B0008F7D8093B0000895CD
:100D3000CF93DF9390E0FC01E458FF4F2491FC0136
:100D4000E057FF4F8491882361F190E0880F991F4D
:100D5000FC01E854FF4FC591D491FC01E255FF4FCF
:100D6000A591B491611109C09FB7F894888120952D
:100D700082238883EC912E230BC0623061F49FB7ED
:100D8000F8948881322F309583238883EC912E2B21
:100D90002C939FBF06C08FB7F894E8812E2B288331
:100DA0008FBFDF91CF9108951F93CF93DF93282FAB
:100DB00030E0F901E859FF4F8491F901E458FF4F01
:100DC000D491F901E057FF4FC491CC23C1F0162F05
:100DD00081110E946F06EC2FF0E0EE0FFF1FE2552D
:100DE000FF4FA591B4919FB7F894111104C08C9155
:100DF000D095D82302C0EC91DE2BDC939FBFDF910E
:100E0000CF911F910895CF93DF93282F30E0F90100
:100E1000E859FF4F8491F901E458FF4FD491F9014B
:100E2000E057FF4FC491CC2391F081110E946F06CF
:100E3000EC2FF0E0EE0FFF1FEC55FF4FA591B491A2
:100E4000EC91ED2381E090E021F480E002C080E0AD
:100E500090E0DF91CF910895CF93CFB7F894809130
:100E60000D02811127C0EAE9F0E08491E6E8F0E0A4
:100E70009491E82FF0E0EE0FFF1FE854FF4FA5918B
:100E8000B491EC91E92321F461E08AE00E94D40658
:100E900061E08AE00E9498068CB580618CBD8CB5BB
:100EA00080648CBD61E08DE00E94980661E08BE07B
:100EB0000E94980680910D028F5F80930D02CFBF34
:100EC000CF910895A1E21A2EAA1BBB1BFD010DC0F4
:100ED000AA1FBB1FEE1FFF1FA217B307E407F507EA
:100EE00020F0A21BB30BE40BF50B661F771F881FC6
:100EF000991F1A9469F760957095809590959B015C
:100F0000AC01BD01CF010895EE0FFF1F0590F491D4
:080F1000E02D0994F894FFCFD5
:100F1800F401C80044054405016980000096698110
:100F28000000966990000096699100009669FE009D
:100F3800009600000000AD031A0550036A035C0325
:020F4800F403B0
:00000001FF
