:100000000C9463000C94FA060C9421070C948B005A
:100010000C948B000C948B000C948B000C948B0034
:100020000C948B000C948B000C948B000C948B0024
:100030000C948B000C948B000C948B000C948B0014
:100040000C9448070C948B000C940F060C944106FA
:100050000C948B000C948B000C948B000C948B00F4
:100060000C948B000C948B0000000008000201002F
:100070000003040700000000000000000102040863
:100080001020408001020408102001020408102002
:10009000040404040404040402020202020203032E
:1000A00003030303000000002300260029000000D2
:1000B0000000250028002B0000000000240027007D
:1000C0002A00F703710611241FBECFEFD8E0DEBF70
:1000D000CDBF11E0A0E0B1E0E2E0F3E102C00590A5
:1000E0000D92AE31B107D9F722E0AEE1B1E001C027
:1000F0001D92AB30B207E1F710E0C3E6D0E004C0D8
:100100002197FE010E947909C136D107C9F70E94E3
:100110009F060C947F090C94000026E040E052EC0E
:1001200061E070E081E691E00C94AA050E949D04D4
:100130000E9417010C940C040CB405FC0DC09EBD6C
:1001400000000DB407FEFDCF9EB58EBD00000DB4BE
:1001500007FEFDCF8EB508958EBD00000DB407FEDD
:10016000FDCF8EB59EBD00000DB407FEFDCF9EB540
:100170000895CF93DF93EC0180910902882399F0D1
:100180003FB7F89480910902813059F48DB3809380
:1001900007022DB390910802909592239DBB3FBF1B
:1001A00002C03093070280E58CBD81E08DBD60E028
:1001B00089E00E94C80881E090E00E949E07CE017D
:1001C0000E949C0081E090E00E949E0761E089E02F
:1001D0000E94C80880910902882361F09FB7F894B3
:1001E0002091090280910702213019F48DBB9FBF35
:1001F00001C08FBFDF91CF9108950E94210961E076
:1002000089E00E94C80861E089E00E948C0880E0D3
:1002100090E80C94B9007F70706390E090E4899F3F
:10022000902D88271124862B972B0C94B900CF9200
:10023000DF92EF92FF920F931F93CF93DF93CDB78F
:10024000DEB7A9970FB6F894DEBF0FBECDBF809181
:100250002A01882309F47BC00E94920700911E01A5
:1002600010911F0120912001309121016B017C012F
:10027000C01AD10AE20AF30A9701860140910001EF
:10028000509101016A01E12CF12C0C151D052E0580
:100290003F0508F45CC060931E0170931F018093BA
:1002A0002001909321018E01065E1F4F80E1F8012D
:1002B00011928A95E9F7D12C80912A01D816A0F4E1
:1002C000ED2CF12CF701EE5DFE4F80810E94E707D7
:1002D000EE0CFF1CE1E0F0E0EC0FFD1FEE0DFF1D4A
:1002E000928F818FD394E8CF89E6898382E98A83CC
:1002F00084E18B8386E9898F0E9492076C837D83DA
:100300008E839F83F801DE011896CE018A96219193
:1003100031912D933D93E817F907C9F72B81FE0121
:10032000349640E050E080E030E04217530728F474
:100330009191890F4F5F5F4FF8CF888F49E150E06F
:10034000BE016F5F7F4F81E691E00E94AE06A996E5
:100350000FB6F894DEBF0FBECDBFDF91CF911F91D6
:100360000F91FF90EF90DF90CF900895CF93DF93A0
:1003700000D000D01F92CDB7DEB7BE016F5F7F4FB8
:1003800095E0FB0111929A95E9F799E6998396E930
:100390009D838A8345E050E081E691E00E94AE06AD
:1003A0000F900F900F900F900F90DF91CF910895C5
:1003B000FF920F931F93CF93DF93CDB7DEB72C97A8
:1003C0000FB6F894DEBF0FBECDBF262F8A01803254
:1003D00009F478C048F48131E9F1823109F44AC066
:1003E000803109F0C7C01EC0853209F4A1C020F4D5
:1003F000813209F497C0BEC0803309F4A9C08133AB
:1004000009F0B8C08AEF90E098878F831D821B8225
:1004100019821E821C821A82CE0101960E946D03EF
:1004200081EAA9C0633009F095C080912B01811148
:1004300005C00E94FD0081E080932B01F8016181DD
:1004400070E0762F66278281682B80810E940B01E5
:1004500080E891C0623009F07DC0FA01F08011811E
:1004600061E08F2D0E948C08612F8F2D0E94C8089B
:1004700081E881C0613009F06DC0FA01108160E04F
:10048000812F2C870E948C08812F0E94F808BE01C2
:100490006F5F7F4F97E0FB0111929A95E9F799E61C
:1004A000998392E89A832C852B8396E99F831C83FA
:1004B0008D83180F1E8347E050E081E691E00E9493
:1004C000AE065BC06B3009F045C08BE0FA01DE017F
:1004D000119601900D928A95E1F7FA0140855185B8
:1004E000228510922A01E2E2F1E0DE01119680E01D
:1004F00010829D9197FD02C090838F5F319691E0AD
:10050000EA32F907A9F780932A0150930101409339
:100510000001211102C081E001C083E00E94E407D4
:1005200080E929C06130B1F410922A0181E923C029
:10053000623081F4FA01F080118161E08F2D0E9418
:100540008C08612F70E08F2D0E94040885E913C08C
:10055000683011F08DEF0FC088E0FA01DE011196CE
:1005600001900D928A95E1F7CE0101960E946D03EC
:1005700080EA01C08EEF0E94B6012C960FB6F89467
:10058000DEBF0FBECDBFDF91CF911F910F91FF90C6
:100590000895E0912E01EE0FFF0BEC55FF4FA59152
:1005A000B4918C91282F30E080912D01082E000C01
:1005B000990B82239323892B61F0809131019091D3
:1005C0003201A0913301B09134010197A109B10921
:1005D0000BC08091310190913201A0913301B09113
:1005E00034010196A11DB11D809331019093320118
:1005F000A0933301B0933401E0913001EE23D1F0A8
:10060000EE0FFF0BEC55FF4FA591B4918C91282F65
:1006100030E080912F01082E000C990B8223932348
:10062000892B41F010923101109232011092330166
:10063000109234010895E0913701EE0FFF0BEC5555
:10064000FF4FA591B4918C91282F30E08091360115
:10065000082E000C990B82239323892B61F0809143
:100660003A0190913B01A0913C01B0913D0101976D
:10067000A109B1090BC080913A0190913B01A09171
:100680003C01B0913D010196A11DB11D80933A013D
:1006900090933B01A0933C01B0933D01E09139015F
:1006A000EE23D1F0EE0FFF0BEC55FF4FA591B49167
:1006B0008C91282F30E080913801082E000C990B86
:1006C00082239323892B41F010923A0110923B012F
:1006D00010923C0110923D0108958F929F92AF922B
:1006E000BF92CF92DF92EF92FF920F931F93CF931F
:1006F000DF93DC0116962D913C91179730930701FB
:1007000020930601EC0182E0882E81E0982E7D0185
:10071000B4E0EB0EF11C00E311E06E01E2E0CE0E5E
:10072000D11C57018881F80134978083888118167D
:100730000CF043C0D7011297EC910E2E000CFF0B6A
:10074000E458FF4F2491C8010397FC012083EC91EA
:100750000E2E000CFF0BE057FF4FE491D8011297CB
:10076000EC931196A114B104A1F0F7018081E82F58
:10077000880FFF0BE458FF4FE491EC93D701EC9105
:100780000E2E000CFF0BE057FF4FE491D801EC93C5
:1007900003C0F80110821C92D4016D917C91888174
:1007A000823021F0833021F08FEF03C080E001C060
:1007B00081E043E050E00E94DA062196B2E08B0E21
:1007C000911CEFEFEE1AFE0A075F1F4FCC15DD05F7
:1007D00009F0A8CFDF91CF911F910F91FF90EF907B
:1007E000DF90CF90BF90AF909F908F900895ECE2F4
:1007F000F1E0108211821282138214821582168215
:100800001782108611861286138614861586168620
:100810001786108A118A0895CF92DF92EF92FF9285
:100820000F931F93CF93DF93CDB7DEB765970FB6C6
:10083000F894DEBF0FBECDBF0E94920700913E012B
:1008400010913F0120914001309141016B017C01E9
:10085000C01AD10AE20AF30A970186014091060103
:10086000509107016A01E12CF12C0C151D052E0594
:100870003F0508F453C060933E0170933F0180939D
:1008800040019093410189E6898383E98A8380E16D
:100890008B8386E98D8BF8948091310190913201A0
:1008A000A0913301B091340188879987AA87BB87CB
:1008B00080913A0190913B01A0913C01B0913D01A2
:1008C0008C879D87AE87BF8778940E9492076C8340
:1008D0007D838E839F838091060190910701A0E024
:1008E000B0E0888B998BAA8BBB8B2B81FE01349651
:1008F00040E050E080E030E04217530728F4919147
:10090000890F4F5F5F4FF8CF8C8B45E150E0BE0100
:100910006F5F7F4F81E691E00E94AE0665960FB64D
:10092000F894DEBF0FBECDBFDF91CF911F910F9125
:10093000FF90EF90DF90CF900895CF93DF93C5E4C1
:10094000D1E081E691E00E94E404892BD1F181E6B7
:1009500091E00E94FE04E0916001E11102C089363D
:1009600069F521E02E0F20936001F0E0EE5BFE4F71
:10097000808330E060914401862F90E0059628172F
:100980003907F9F62E5B3E4FF901319780818639A0
:10099000A9F480914301E5E4F1E090E04E2F4C1B77
:1009A000461718F44191940FF9CFF901329720813D
:1009B000291304C045E451E00E94D801109260015F
:1009C000C0CFDF91CF910895FC01918D228D892FA9
:1009D00090E0805C9F4F821B91098F739927089547
:1009E000FC01918D828D981731F0828DE80FF11DF9
:1009F000858D90E008958FEF9FEF0895FC01918D14
:100A0000828D981761F0828DDF01A80FB11D5D9670
:100A10008C91928D9F5F9F73928F90E008958FEFDE
:100A20009FEF089587E696E0892B49F080E090E0FB
:100A3000892B29F00E94670681110C94000008950B
:100A4000FC01848DDF01A80FB11DA35ABF4F2C916B
:100A5000848D90E001968F739927848FA689B7893A
:100A60002C93A089B1898C9180648C93938D848D13
:100A7000981306C00288F389E02D80818F7D8083E2
:100A80000895CF93DF93EC01888D8823C9F0EA891C
:100A9000FB89808185FD05C0A889B9898C9186FD77
:100AA0000FC00FB607FCF5CF808185FFF2CFA88974
:100AB000B9898C9185FFEDCFCE010E942005E7CF4B
:100AC000DF91CF910895EF92FF920F931F93CF93F1
:100AD000DF93EC0181E0888F9B8D8C8D981305C08E
:100AE000E889F989808185FD24C0F62E0B8D10E000
:100AF0000F5F1F4F0F731127E02E8C8DE8120CC073
:100B00000FB607FCFACFE889F989808185FFF5CF18
:100B1000CE010E942005F1CF8B8DFE01E80FF11D63
:100B2000E35AFF4FF0820B8FEA89FB898081806254
:100B300007C0EE89FF896083E889F9898081806434
:100B4000808381E090E0DF91CF911F910F91FF9022
:100B5000EF900895CF92DF92EF92FF921F93CF9381
:100B6000DF93EC016A017B01122FE889F98982E0A9
:100B700080834115514E61057105B1F060E079E067
:100B80008DE390E0A70196010E945709DA01C9019F
:100B90000197A109B109B695A79597958795AC01DD
:100BA000411580E15807A8F0E889F989108260E8CA
:100BB00074E88EE190E0A70196010E945709BA01FE
:100BC000A9014150510961097109769567955795B9
:100BD0004795EC85FD855083EE85FF854083188E13
:100BE000EC89FD891083EA89FB898081806180839B
:100BF000EA89FB89808188608083EA89FB8980811A
:100C000080688083EA89FB8980818F7D8083DF9182
:100C1000CF911F91FF90EF90DF90CF9008951F929A
:100C20000F920FB60F9211242F938F939F93EF93F0
:100C3000FF93E0917101F09172018081E091770161
:100C4000F091780182FD12C0908180917A018F5FCE
:100C50008F7320917B01821751F0E0917A01F0E0CF
:100C6000EF59FE4F958F80937A0101C08081FF91EB
:100C7000EF919F918F912F910F900FBE0F901F902A
:100C800018951F920F920FB60F9211242F933F9336
:100C90004F935F936F937F938F939F93AF93BF9384
:100CA000EF93FF9381E691E00E942005FF91EF9181
:100CB000BF91AF919F918F917F916F915F914F9174
:100CC0003F912F910F900FBE0F901F90189581E6C6
:100CD00091E00E94E40421E0892B09F420E0822FB6
:100CE0000895E1E6F1E01382128288EE93E0A0E03D
:100CF000B0E084839583A683B78381E191E09183FB
:100D0000808385EC90E09587848784EC90E09787DA
:100D1000868780EC90E0918B808B81EC90E0938BC8
:100D2000828B82EC90E0958B848B86EC90E0978BA5
:100D3000868B118E128E138E148E089508950E9444
:100D4000A9070E949E060E948D00C2E1D5E00E9484
:100D500096002097E1F30E941205F9CFCF92DF921F
:100D6000EF92FF920F931F93CF93DF936C017A0161
:100D70008B01C0E0D0E0CE15DF0589F0D8016D9180
:100D80008D01D601ED91FC910190F081E02DC6011D
:100D90000995892B11F47E0102C02196ECCFC70181
:100DA000DF91CF911F910F91FF90EF90DF90CF9047
:100DB000089508958230E8F4E82FF0E0EE0FFF1F69
:100DC000E85FFE4F71836083813041F0809169005C
:100DD0008C7F482B40936900E89A089580916900C0
:100DE000440F551F440F551F837F482B40936900C4
:100DF000E99A08951F920F920FB60F9211242F9324
:100E00003F934F935F936F937F938F939F93AF9392
:100E1000BF93EF93FF93E0910801F09109010995C9
:100E2000FF91EF91BF91AF919F918F917F916F91C2
:100E30005F914F913F912F910F900FBE0F901F9098
:100E400018951F920F920FB60F9211242F933F9374
:100E50004F935F936F937F938F939F93AF93BF93C2
:100E6000EF93FF93E0910A01F0910B010995FF9137
:100E7000EF91BF91AF919F918F917F916F915F9112
:100E80004F913F912F910F900FBE0F901F9018958B
:100E90001F920F920FB60F9211242F933F938F93AF
:100EA0009F93AF93BF938091FF0190910002A09117
:100EB0000102B09102023091FE0123E0230F2D3791
:100EC00020F40196A11DB11D05C026E8230F02964E
:100ED000A11DB11D2093FE018093FF01909300029C
:100EE000A0930102B0930202809103029091040248
:100EF000A0910502B09106020196A11DB11D80933B
:100F0000030290930402A0930502B0930602BF91DE
:100F1000AF919F918F913F912F910F900FBE0F90A6
:100F20001F9018952FB7F8946091FF0170910002FF
:100F300080910102909102022FBF089582309105A5
:100F400038F0880F991F880F991F05970197F1F7BF
:100F50000895789484B5826084BD84B5816084BD31
:100F600085B5826085BD85B5816085BDEEE6F0E022
:100F7000808181608083E1E8F0E01082808182607E
:100F80008083808181608083E0E8F0E080818160FF
:100F90008083E1EBF0E0808184608083E0EBF0E02F
:100FA000808181608083EAE7F0E0808184608083D3
:100FB000808182608083808181608083808180687D
:100FC00080831092C100089580930C0108958E30A3
:100FD00008F08E50877020910C0190E4299F9001B9
:100FE0001124822B80937C0080917A00806480930E
:100FF0007A0080917A0086FDFCCF80917800209164
:10100000790090E0922B08951F93CF93DF93182FD0
:10101000EB0161E00E948C08209711F460E004C0AD
:10102000CF3FD10539F461E0812FDF91CF911F913E
:101030000C94C808E12FF0E0E859FF4FE491E33049
:10104000F9F048F4E130B9F0E230A1F584B58062FE
:1010500084BDC8BD34C0E730E9F0E83019F1E430B0
:1010600049F580918000806280938000D0938B004E
:10107000C0938A0024C084B5806884BDC7BD1FC0EA
:1010800080918000806880938000D0938900C09315
:10109000880015C08091B00080688093B000C09334
:1010A000B3000DC08091B00080628093B000C09307
:1010B000B40005C0C038D1050CF0B5CFAFCFDF917B
:1010C000CF911F910895833081F028F4813099F0F9
:1010D0008230A1F008958730A9F08830B9F08430CB
:1010E000D1F4809180008F7D03C0809180008F7744
:1010F00080938000089584B58F7702C084B58F7D7A
:1011000084BD08958091B0008F7703C08091B000B6
:101110008F7D8093B0000895CF93DF9390E0FC0122
:10112000E458FF4F2491FC01E057FF4F849188233E
:1011300061F190E0880F991FFC01E854FF4FC591C1
:10114000D491FC01E255FF4FA591B491611109C002
:101150009FB7F8948881209582238883EC912E2371
:101160000BC0623061F49FB7F8943881822F80956C
:1011700083238883EC912E2B2C939FBF06C08FB7BF
:10118000F894E8812E2B28838FBFDF91CF910895AB
:101190001F93CF93DF93282F30E0F901E859FF4FD9
:1011A0008491F901E458FF4FD491F901E057FF4FC2
:1011B000C491CC23C9F0162F81110E946308EC2F33
:1011C000F0E0EE0FFF1FE255FF4FA591B4918FB7EE
:1011D000F894111105C09C91ED2FE095E92302C010
:1011E000EC91ED2BEC938FBFDF91CF911F91089580
:1011F000CF93DF93282F30E0F901E859FF4F849116
:10120000F901E458FF4FD491F901E057FF4FC49121
:10121000CC2391F081110E946308EC2FF0E0EE0FD7
:10122000FF1FEC55FF4FA591B491EC91ED2381E0A8
:1012300090E021F480E002C080E090E0DF91CF9167
:101240000895CF93CFB7F89480910A02811127C0F7
:10125000EAE9F0E08491E6E8F0E09491E82FF0E02C
:10126000EE0FFF1FE854FF4FA591B491EC91E923D5
:1012700021F461E08AE00E94C80861E08AE00E94EF
:101280008C088CB580618CBD8CB580648CBD61E0B0
:101290008DE00E948C0861E08BE00E948C088091B8
:1012A0000A028F5F80930A02CFBFCF910895A1E217
:1012B0001A2EAA1BBB1BFD010DC0AA1FBB1FEE1FD0
:1012C000FF1FA217B307E407F50720F0A21BB30B1B
:1012D000E40BF50B661F771F881F991F1A9469F797
:1012E00060957095809590959B01AC01BD01CF01F3
:1012F0000895EE0FFF1F0590F491E02D0994F894E6
:02130000FFCF1D
:10130200C800C9021B03F401D906D9060100000076
:0E131200006305AE06E404FE04F0044105008D
:00000001FF
