:100000000C9464000C9430090C9457090C948C00E7
:100010000C948C000C948C000C948C000C948C0030
:100020000C948C000C948C000C948C000C948C0020
:100030000C948C000C948C000C948C000C948C0010
:100040000C947E090C948C000C9445080C94770851
:100050000C948C000C948C000C948C000C948C00F0
:100060000C948C000C948C0000000008000201002D
:100070000003040700000000000000000102040863
:100080001020408001020408102001020408102002
:10009000040404040404040402020202020203032E
:1000A00003030303000000002300260029000000D2
:1000B0000000250028002B0000000000240027007D
:1000C0002A0040020806A70811241FBECFEFD8E07F
:1000D000DEBFCDBF11E0A0E0B1E0EEE6F7E102C087
:1000E00005900D92A832B107D9F722E0A8E2B1E05D
:1000F00001C01D92A737B207E1F710E0C4E6D0E0D7
:1001000004C02197FE010E94AF0BC136D107C9F789
:100110000E94D5080C94B50B0C9400002EE040E032
:1001200052EC61E070E08DEC91E00C94E0070E94ED
:10013000B9060E941C010E9423060E9447040C94E9
:10014000BB010CB405FC0DC09EBD00000DB407FE44
:10015000FDCF9EB58EBD00000DB407FEFDCF8EB560
:1001600008958EBD00000DB407FEFDCF8EB59EBD77
:1001700000000DB407FEFDCF9EB50895CF93DF9329
:10018000EC0180917502882399F03FB7F894809133
:100190007502813059F48DB3809373022DB3909121
:1001A0007402909592239DBB3FBF02C030937302AF
:1001B00080E58CBD81E08DBD60E089E00E94FE0A93
:1001C00081E090E00E94D409CE010E94A10081E06C
:1001D00090E00E94D40961E089E00E94FE0A8091CB
:1001E0007502882361F09FB7F89420917502809181
:1001F0007302213019F48DBB9FBF01C08FBFDF9107
:10020000CF9108950E94570B61E089E00E94FE0A99
:1002100061E089E00E94C20A80E090E80C94BE0090
:100220007F70706390E090E4899F902D882711245F
:10023000862B972B0C94BE00CF92DF92EF92FF9209
:100240000F931F93CF93DF93CDB7DEB7A9970FB668
:10025000F894DEBF0FBECDBF80913401882309F42E
:100260007BC00E94C80900912801109129012091AA
:100270002A0130912B016B017C01C01AD10AE20ADC
:10028000F30A9701860140910001509101016A0132
:10029000E12CF12C0C151D052E053F0508F45CC062
:1002A000609328017093290180932A0190932B0178
:1002B0008E01065E1F4F80E1F80111928A95E9F7E1
:1002C000D12C80913401D816A0F4ED2CF12CF7013B
:1002D000E45DFE4F80810E941D0AEE0CFF1CE1E0F0
:1002E000F0E0EC0FFD1FEE0DFF1D928F818FD39478
:1002F000E8CF89E6898382E98A8384E18B8386E972
:10030000898F0E94C8096C837D838E839F83F80147
:10031000DE011896CE018A96219131912D933D935D
:10032000E817F907C9F72B81FE01349640E050E049
:1003300080E030E04217530728F49191890F4F5F16
:100340005F4FF8CF888F49E150E0BE016F5F7F4F6C
:100350008DEC91E00E94E408A9960FB6F894DEBFF8
:100360000FBECDBFDF91CF911F910F91FF90EF9006
:10037000DF90CF900895CF92DF92EF92FF920F938C
:100380001F93CF93DF930E94C8096B017C0180917A
:100390007B0181110CC080913A01882309F467C068
:1003A00010923A0106E311E0C0E0D1E056C010928D
:1003B0007B010CE711E0C0E0D1E0F8018081918180
:1003C000A281B3810097A105B105F1F0D0937B0123
:1003D000B701A601481B590B6A0B7B0B80913601B4
:1003E00090913701A0913801B09139018417950798
:1003F000A607B70748F4108211821282138260E0C8
:1004000070E08C2F0E941001CF5F0C5F1F4FC43033
:10041000A1F6C1CFD0933A01B701A601481B590BF1
:100420006A0B7B0B8091360190913701A0913801C6
:10043000B091390184179507A607B70748F41582CC
:1004400016821782108660E070E08C2F0E943A0AB4
:10045000CF5F0C5F1F4FC03151F0F801858196814D
:10046000A781B0850097A105B10591F3D3CFDF91A6
:10047000CF911F910F91FF90EF90DF90CF90089553
:10048000E6E3F1E088EE93E0A0E0B0E080839183C2
:10049000A283B383148210927B0180E4EBE3F1E04A
:1004A000DF011D928A95E9F780E1ECE7F1E0DF01D9
:1004B0001D928A95E9F70895CF93DF9300D000D07D
:1004C0001F92CDB7DEB7BE016F5F7F4F95E0FB0196
:1004D00011929A95E9F799E6998396E99D838A8323
:1004E00045E050E08DEC91E00E94E4080F900F9001
:1004F0000F900F900F90DF91CF910895DF92EF92C0
:10050000FF920F931F93CF93DF93CDB7DEB72C9756
:100510000FB6F894DEBF0FBECDBF262F813209F48F
:10052000BCC070F4813109F450C018F48031E9F096
:100530001CC1823109F459C0803209F47EC015C152
:10054000813309F4EDC038F4853209F4ACC080334E
:1005500009F4D1C00AC1803409F4F4C0813409F02F
:1005600004C110928C0181EB01C1643009F0C5C057
:10057000FA01E380E0FAEE24E0F8F080D180128105
:1005800080913501811105C00E94020181E08093B4
:100590003501612F70E07D298F2D0E941001EE2022
:1005A00091F0F3E0FF1578F081E080937B010E94E9
:1005B000C80924E0F29EF0011124E458FE4F608344
:1005C00071838283938380E8D1C0623009F095C043
:1005D000FA01F080118161E08F2D0E94C20A612F23
:1005E0008F2D0E94FE0A81E8C1C0613009F085C0EC
:1005F000FA01108160E0812F2C870E94C20A812FAE
:100600000E942E0BBE016F5F7F4F97E0FB0111929E
:100610009A95E9F799E6998392E89A832C852B833A
:1006200096E99F831C838D83180F1E8347E050E05B
:100630008DEC91E00E94E4089BC06B3009F05DC036
:100640008BE0FA01DE01119601900D928A95E1F797
:10065000FA0140855185228510923401ECE2F1E0E7
:10066000DE01119680E010829D9197FD02C090837B
:100670008F5F319691E0E433F907A9F78093340155
:100680005093010140930001211102C081E001C09B
:1006900083E00E941A0A80E969C0613071F5109206
:1006A000340181E963C0633041F5FA01E280E0FA88
:1006B000EE24E0F8F080118161E08F2D0E94C20AE3
:1006C000612F70E08F2D0E943A0AEE2091F0FFE03A
:1006D000FF1578F081E080933A010E94C80924E078
:1006E000F29EF0011124EA5CFE4F658376838783D6
:1006F000908785E93BC0683011F08DEF37C088E006
:10070000FA01DE01119601900D928A95E1F7CE0172
:1007100001960E942A0581E08093A90180EA26C003
:100720008AEF90E098878F831D821B8219821E8238
:100730001C821A82CE0101960E942A051092A901FC
:1007400081EA14C06530C9F6FA01238134814281FF
:10075000618180810E94C603882329F081E0809313
:100760008C0180EB03C08CEF01C08EEF0E945C0215
:100770002C960FB6F894DEBF0FBECDBFDF91CF91A0
:100780001F910F91FF90EF90DF9008951F93CF93EB
:10079000DF931816E4F41616D4F41416C4F4142FC8
:1007A000D62FC82F61E00E94C20A61E08D2F0E94FF
:1007B000C20A60E0812F0E94C20A61E08D2F0E9470
:1007C000FE0A61E08C2F0E94FE0A81E001C080E0F9
:1007D000DF91CF911F9108950F931F93CF93DF93D4
:1007E00061E0809108010E94C20A61E080910601E7
:1007F0000E94C20A60E0809104010E94C20A60E087
:10080000809108010E94FE0A82E090E00E94D409D3
:1008100000E110E0C0E0D0E060E0809106010E94BD
:10082000FE0A81E090E00E94D40961E08091060117
:100830000E94FE0A81E090E00E94D409CC0FDD1FE7
:10084000809104010E942E0B019709F4C1600150B0
:10085000110911F760E0809106010E94FE0A81E013
:1008600090E00E94D40961E0809106010E94FE0A96
:1008700081E090E00E94D40961E0809108010E942B
:10088000FE0ACE01DF91CF911F910F910895CF9273
:10089000DF92EF92FF92CF93DF93CDB7DEB72C9725
:1008A0000FB6F894DEBF0FBECDBF80918C018823B8
:1008B00009F455C00E94C8096B017C0180918D012B
:1008C00090918E01A0918F01B0919001B701A60186
:1008D000481B590B6A0B7B0B80910201909103011D
:1008E000A0E0B0E0481759076A077B07C0F1C09243
:1008F0008D01D0928E01E0928F01F09290010E94C2
:10090000EC0329E6298324E92A8327E02B8326E9BF
:100910002C87CC82DD82EE82FF829C0196E03695A8
:1009200027959A95E1F7398728878F738A87FE0183
:100930003496AE01455F5F4F20E0819190E0820FD9
:10094000911D282FE417F507C1F78B874CE050E085
:10095000BE016F5F7F4F8DEC91E00E94E4082C9602
:100960000FB6F894DEBF0FBECDBFDF91CF91FF90E1
:10097000EF90DF90CF900895809192018823F9F055
:10098000E0919401EE0FFF0BEC55FF4FA591B49150
:100990002C918091930130E0082E000C990B82235A
:1009A0009323892B61F08091990190919A01A091F4
:1009B0009B01B0919C010197A109B1090BC08091E5
:1009C000990190919A01A0919B01B0919C0101968F
:1009D000A11DB11D8093990190939A01A0939B0151
:1009E000B0939C01089580919E018823F9F0E091D5
:1009F000A001EE0FFF0BEC55FF4FA591B4912C9188
:100A000080919F0130E0082E000C990B82239323E4
:100A1000892B61F08091A5019091A601A091A70179
:100A2000B091A8010197A109B1090BC08091A5015E
:100A30009091A601A091A701B091A8010196A11DD6
:100A4000B11D8093A5019093A601A093A701B09337
:100A5000A80108954F925F926F927F928F929F921A
:100A6000AF92BF92CF92DF92EF92FF920F931F93BC
:100A7000CF93DF93CDB7DEB72C970FB6F894DEBFD8
:100A80000FBECDBFDC0116962D913C911797309388
:100A90000F0120930E0121E9822E21E0922E8C017C
:100AA0003AE0A32E31E0B32E7C01B4E0EB0EF11C52
:100AB000C12CD12C37014CE0542E4424439419828C
:100AC0001A821B821C821D821E821F821886198632
:100AD0001A861B861C86FE013196D401852D019055
:100AE0000D928A95E1F7F80180815C9CD0015D9CB4
:100AF000B00D1124AF56BE4F8C93808118160CF0A8
:100B00005EC0C7010297FC0120811216BCF4E22FDF
:100B1000220FFF0BE458FF4FE4911296EC931297CB
:100B2000FC018081E82F880FFF0BE057FF4FE49115
:100B30001396EC93139711964C9202C011961C9247
:100B40006114710401F1D701EC910E2E000CFF0B22
:100B5000E458FF4FE4915C9CD0015D9CB00D1124E2
:100B6000AF56BE4F1596EC931597F7018081E82F8D
:100B7000880FFF0BE057FF4FE4911696EC93169702
:100B800014964C920AC05C9CF0015D9CF00D1124FF
:100B9000EF56FE4F148216821582D5016D917C911D
:100BA000F8018081823021F0833021F08FEF03C083
:100BB00080E001C081E043E050E00E941009FCE0C9
:100BC0008F0E911C0F5F1F4F82E0A80EB11CAFEF7C
:100BD000EA1AFA0ACA94CD2821F0CC24C394D12C65
:100BE0006ECF2C960FB6F894DEBF0FBECDBFDF914F
:100BF000CF911F910F91FF90EF90DF90CF90BF901A
:100C0000AF909F908F907F906F905F904F900895DE
:100C1000E1E9F1E0108211821282138214821582BE
:100C20001682178210861186128613861486158600
:100C300016861786108A118A128A138A148A158AD0
:100C4000168A178A0895CF92DF92EF92FF920F9340
:100C50001F93CF93DF93CDB7DEB765970FB6F894A8
:100C6000DEBF0FBECDBF8091A901882309F472C0F9
:100C70000E94C8090091AA011091AB012091AC011A
:100C80003091AD016B017C01C01AD10AE20AF30A6E
:100C90009701860140910E0150910F016A01E12CEC
:100CA000F12C0C151D052E053F0508F453C060936B
:100CB000AA017093AB018093AC019093AD0189E6DA
:100CC000898383E98A8380E18B8386E98D8BF8941D
:100CD0008091990190919A01A0919B01B0919C0102
:100CE00088879987AA87BB878091A5019091A601E3
:100CF000A091A701B091A8018C879D87AE87BF877F
:100D000078940E94C8096C837D838E839F83809131
:100D10000E0190910F01A0E0B0E0888B998BAA8B17
:100D2000BB8B2B81FE01349640E050E080E030E048
:100D30004217530728F49191890F4F5F5F4FF8CF07
:100D40008C8B45E150E0BE016F5F7F4F8DEC91E0F1
:100D50000E94E40865960FB6F894DEBF0FBECDBFC3
:100D6000DF91CF911F910F91FF90EF90DF90CF9087
:100D70000895CF93DF93C1EBD1E08DEC91E00E9419
:100D80000B07892B09F444C08DEC91E00E942507E4
:100D9000E091CC01E11106C0893621F01092CC011E
:100DA0008BEF2CC021E02E0F2093CC01F0E0E25518
:100DB000FE4F808330E06091B001862F90E0059671
:100DC00028173907D1F622553E4FF9013197808116
:100DD000863921F78091AF01E1EBF1E090E04E2FF1
:100DE0004C1B461718F44191940FF9CFF901329733
:100DF0002081291731F01092CC018AEF0E945C0209
:100E0000BCCF41EB51E00E947E021092CC01B5CFE5
:100E1000DF91CF910895FC01918D228D892F90E073
:100E2000805C9F4F821B91098F7399270895FC0165
:100E3000918D828D981731F0828DE80FF11D858D8F
:100E400090E008958FEF9FEF0895FC01918D828DC2
:100E5000981761F0828DDF01A80FB11D5D968C910E
:100E6000928D9F5F9F73928F90E008958FEF9FEF19
:100E70000895FC01538D448D252F30E0842F90E0A0
:100E8000821B930B541710F0CF9608950197089585
:100E90008DE998E0892B49F080E090E0892B29F0DA
:100EA0000E949D0881110C9400000895FC01848D1E
:100EB000DF01A80FB11DA35ABF4F2C91848D90E084
:100EC00001968F739927848FA689B7892C93A0895F
:100ED000B1898C9180648C93938D848D981306C016
:100EE0000288F389E02D80818F7D80830895CF93E0
:100EF000DF93EC01888D8823C9F0EA89FB89808122
:100F000085FD05C0A889B9898C9186FD0FC00FB6F3
:100F100007FCF5CF808185FFF2CFA889B9898C9134
:100F200085FFEDCFCE010E945607E7CFDF91CF912D
:100F30000895EF92FF920F931F93CF93DF93EC01ED
:100F400081E0888F9B8D8C8D981305C0E889F98985
:100F5000808185FD24C0F62E0B8D10E00F5F1F4FA2
:100F60000F731127E02E8C8DE8120CC00FB607FC12
:100F7000FACFE889F989808185FFF5CFCE010E94FB
:100F80005607F1CF8B8DFE01E80FF11DE35AFF4F9D
:100F9000F0820B8FEA89FB898081806207C0EE892D
:100FA000FF896083E889F98980818064808381E09A
:100FB00090E0DF91CF911F910F91FF90EF900895F6
:100FC000CF92DF92EF92FF921F93CF93DF93EC01CA
:100FD0006A017B01122FE889F98982E0808341153B
:100FE000514E61057105B1F060E079E08DE390E06C
:100FF000A70196010E948D0BDA01C9010197A10991
:10100000B109B695A79597958795AC01411580E1F3
:101010005807A8F0E889F989108260E874E88EE141
:1010200090E0A70196010E948D0BBA01A9014150E1
:101030005109610971097695679557954795EC8532
:10104000FD855083EE85FF854083188EEC89FD89F0
:101050001083EA89FB89808180618083EA89FB892A
:10106000808188608083EA89FB89808180688083B1
:10107000EA89FB8980818F7D8083DF91CF911F91E9
:10108000FF90EF90DF90CF9008951F920F920FB6D0
:101090000F9211242F938F939F93EF93FF93E091DF
:1010A000DD01F091DE018081E091E301F091E40146
:1010B00082FD12C090818091E6018F5F8F73209135
:1010C000E701821751F0E091E601F0E0E353FE4FB3
:1010D000958F8093E60101C08081FF91EF919F91F0
:1010E0008F912F910F900FBE0F901F9018951F9208
:1010F0000F920FB60F9211242F933F934F935F934C
:101100006F937F938F939F93AF93BF93EF93FF93CF
:101110008DEC91E00E945607FF91EF91BF91AF9146
:101120009F918F917F916F915F914F913F912F91FF
:101130000F900FBE0F901F9018958DEC91E00E94BC
:101140000B0721E0892B09F420E0822F0895EDECB4
:10115000F1E01382128288EE93E0A0E0B0E0848395
:101160009583A683B78389E191E09183808385ECA1
:1011700090E09587848784EC90E09787868780EC61
:1011800090E0918B808B81EC90E0938B828B82EC52
:1011900090E0958B848B86EC90E0978B868B118EFC
:1011A000128E138E148E089508950E94DF090E94F6
:1011B000D4080E948E00C8E4D7E00E9497002097D0
:1011C000E1F30E944807F9CFCF92DF92EF92FF92AE
:1011D0000F931F93CF93DF936C017A018B01C0E0D3
:1011E000D0E0CE15DF0589F0D8016D918D01D601D3
:1011F000ED91FC910190F081E02DC6010995892BBC
:1012000011F47E0102C02196ECCFC701DF91CF918E
:101210001F910F91FF90EF90DF90CF900895089568
:101220008230E8F4E82FF0E0EE0FFF1FE05FFE4FA2
:1012300071836083813041F0809169008C7F482BFD
:1012400040936900E89A089580916900440F551F02
:10125000440F551F837F482B40936900E99A0895F6
:101260001F920F920FB60F9211242F933F934F931B
:101270005F936F937F938F939F93AF93BF93EF93FE
:10128000FF93E0911001F09111010995FF91EF9109
:10129000BF91AF919F918F917F916F915F914F918E
:1012A0003F912F910F900FBE0F901F9018951F9296
:1012B0000F920FB60F9211242F933F934F935F938A
:1012C0006F937F938F939F93AF93BF93EF93FF930E
:1012D000E0911201F09113010995FF91EF91BF91F7
:1012E000AF919F918F917F916F915F914F913F91BE
:1012F0002F910F900FBE0F901F9018951F920F9275
:101300000FB60F9211242F933F938F939F93AF9318
:10131000BF9380916B0290916C02A0916D02B0918D
:101320006E0230916A0223E0230F2D3720F40196DC
:10133000A11DB11D05C026E8230F0296A11DB11DF8
:1013400020936A0280936B0290936C02A0936D02CB
:10135000B0936E0280916F0290917002A091710221
:10136000B09172020196A11DB11D80936F029093FE
:101370007002A0937102B0937202BF91AF919F91DE
:101380008F913F912F910F900FBE0F901F90189546
:101390002FB7F89460916B0270916C0280916D028E
:1013A00090916E022FBF08958230910538F0880F1A
:1013B000991F880F991F05970197F1F70895789461
:1013C00084B5826084BD84B5816084BD85B582604A
:1013D00085BD85B5816085BDEEE6F0E080818160E8
:1013E0008083E1E8F0E010828081826080838081E8
:1013F00081608083E0E8F0E0808181608083E1EBC0
:10140000F0E0808184608083E0EBF0E080818160A7
:101410008083EAE7F0E0808184608083808182605D
:101420008083808181608083808180688083109246
:10143000C10008958093140108958E3008F08E50F5
:1014400087702091140190E4299F90011124822B30
:1014500080937C0080917A00806480937A008091F0
:101460007A0086FDFCCF809178002091790090E091
:10147000922B08951F93CF93DF93182FEB0161E018
:101480000E94C20A209711F460E004C0CF3FD1054A
:1014900039F461E0812FDF91CF911F910C94FE0A06
:1014A000E12FF0E0E859FF4FE491E330F9F048F420
:1014B000E130B9F0E230A1F584B5806284BDC8BDE9
:1014C00034C0E730E9F0E83019F1E43049F58091B3
:1014D0008000806280938000D0938B00C0938A004C
:1014E00024C084B5806884BDC7BD1FC080918000C2
:1014F000806880938000D0938900C093880015C0D5
:101500008091B00080688093B000C093B3000DC09C
:101510008091B00080628093B000C093B40005C099
:10152000C038D1050CF0B5CFAFCFDF91CF911F916F
:101530000895833081F028F4813099F08230A1F051
:1015400008958730A9F08830B9F08430D1F48091C3
:1015500080008F7D03C0809180008F778093800012
:10156000089584B58F7702C084B58F7D84BD0895BA
:101570008091B0008F7703C08091B0008F7D809301
:10158000B0000895CF93DF9390E0FC01E458FF4F43
:101590002491FC01E057FF4F8491882361F190E092
:1015A000880F991FFC01E854FF4FC591D491FC01AD
:1015B000E255FF4FA591B491611109C09FB7F8940E
:1015C0008881209582238883EC912E230BC0623082
:1015D00061F49FB7F8943881822F809583238883A4
:1015E000EC912E2B2C939FBF06C08FB7F894E88107
:1015F0002E2B28838FBFDF91CF9108951F93CF9318
:10160000DF93282F30E0F901E859FF4F8491F90169
:10161000E458FF4FD491F901E057FF4FC491CC2318
:10162000C9F0162F81110E94990AEC2FF0E0EE0FFD
:10163000FF1FE255FF4FA591B4918FB7F894111198
:1016400005C09C91ED2FE095E92302C0EC91ED2BB4
:10165000EC938FBFDF91CF911F910895CF93DF93CC
:10166000282F30E0F901E859FF4F8491F901E4583F
:10167000FF4FD491F901E057FF4FC491CC2391F073
:1016800081110E94990AEC2FF0E0EE0FFF1FEC553C
:10169000FF4FA591B491EC91ED2381E090E021F40E
:1016A00080E002C080E090E0DF91CF910895CF9379
:1016B000CFB7F89480917602811127C0EAE9F0E073
:1016C0008491E6E8F0E09491E82FF0E0EE0FFF1F40
:1016D000E854FF4FA591B491EC91E92321F461E026
:1016E0008AE00E94FE0A61E08AE00E94C20A8CB58C
:1016F00080618CBD8CB580648CBD61E08DE00E9402
:10170000C20A61E08BE00E94C20A809176028F5F7C
:1017100080937602CFBFCF910895A1E21A2EAA1B23
:10172000BB1BFD010DC0AA1FBB1FEE1FFF1FA21791
:10173000B307E407F50720F0A21BB30BE40BF50B8E
:10174000661F771F881F991F1A9469F76095709517
:10175000809590959B01AC01BD01CF010895EE0FDE
:0E176000FF1F0590F491E02D0994F894FFCF3F
:10176E00C800C800100011000F00BC04F304F401FF
:10177E000F090F0901000000009907E408390777E7
:08178E00070B072507170700F0
:00000001FF
