:100000000C9464000C9400090C9427090C948C0047
:100010000C948C000C948C000C948C000C948C0030
:100020000C948C000C948C000C948C000C948C0020
:100030000C948C000C948C000C948C000C948C0010
:100040000C944E090C948C000C9416080C944808DF
:100050000C948C000C948C000C948C000C948C00F0
:100060000C948C000C948C0000000008000201002D
:100070000003040700000000000000000102040863
:100080001020408001020408102001020408102002
:10009000040404040404040402020202020203032E
:1000A00003030303000000002300260029000000D2
:1000B0000000250028002B0000000000240027007D
:1000C0002A004002EE05780811241FBECFEFD8E0C9
:1000D000DEBFCDBF11E0A0E0B1E0ECE0F7E102C08F
:1000E00005900D92A832B107D9F722E0A8E2B1E05D
:1000F00001C01D92A637B207E1F710E0C4E6D0E0D8
:1001000004C02197FE010E947E0BC136D107C9F7BA
:100110000E94A6080C94840B0C94000026E040E09A
:1001200052EC61E070E08CEC91E00C94B1070E941D
:1001300099060E941C010E9409060E942E040C943C
:10014000BB010CB405FC0DC09EBD00000DB407FE44
:10015000FDCF9EB58EBD00000DB407FEFDCF8EB560
:1001600008958EBD00000DB407FEFDCF8EB59EBD77
:1001700000000DB407FEFDCF9EB50895CF93DF9329
:10018000EC0180917402882399F02FB7F894809144
:100190007402813059F48DB3809372029DB38091C3
:1001A0007302809589238DBB2FBF02C020937202FA
:1001B00080E58CBD81E08DBD60E089E00E94CE0AC3
:1001C00081E090E00E94A409CE010E94A10081E09C
:1001D00090E00E94A40961E089E00E94CE0A80912B
:1001E0007402882361F09FB7F89420917402809183
:1001F0007202213019F48DBB9FBF01C08FBFDF9108
:10020000CF9108950E94260B61E089E00E94CE0AFA
:1002100061E089E00E94920A80E090E80C94BE00C0
:100220007F70706390E090E4899F902D882711245F
:10023000862B972B0C94BE00CF92DF92EF92FF9209
:100240000F931F93CF93DF93CDB7DEB7A9970FB668
:10025000F894DEBF0FBECDBF80913401882309F42E
:100260007BC00E94980900912801109129012091DA
:100270002A0130912B016B017C01C01AD10AE20ADC
:10028000F30A9701860140910001509101016A0132
:10029000E12CF12C0C151D052E053F0508F45CC062
:1002A000609328017093290180932A0190932B0178
:1002B0007E018AE1E80EF11C80E1F70111928A9536
:1002C000E9F7D12C80913401D816A0F40D2D10E05F
:1002D000F801E45DFE4F80810E94ED09000F111FBF
:1002E000E1E0F0E0EC0FFD1FE00FF11F928F818F36
:1002F000D394E8CF89E6898382E98A8384E18B837A
:1003000086E9898F0E9498096C837D838E839F8301
:10031000F701DE011896CE014896219131912D9377
:100320003D93A817B907C9F72B81BE016F5F7F4FB7
:10033000FB0180E030E0AF01461B570B421753072B
:1003400020F49381890F3196F6CF888F49E150E0F0
:100350008CEC91E00E94B508A9960FB6F894DEBF28
:100360000FBECDBFDF91CF911F910F91FF90EF9006
:10037000DF90CF900895CF92DF92EF92FF920F938C
:100380001F93CF93DF930E9498096B017C018091AA
:100390007B0181110CC080913A01882309F467C068
:1003A00010923A0106E311E0C0E0D1E056C010928D
:1003B0007B010CE711E0C0E0D1E0F8018081918180
:1003C000A281B3810097A105B105F1F0D0937B0123
:1003D000B701A601481B590B6A0B7B0B80913601B4
:1003E00090913701A0913801B09139018417950798
:1003F000A607B70748F4108211821282138260E0C8
:1004000070E08C2F0E941001CF5F0C5F1F4FC43033
:10041000A1F6C1CFD0933A01B701A601481B590BF1
:100420006A0B7B0B8091360190913701A0913801C6
:10043000B091390184179507A607B70748F41582CC
:1004400016821782108660E070E08C2F0E940A0AE4
:10045000CF5F0C5F1F4FC03151F0F801858196814D
:10046000A781B0850097A105B10591F3D3CFDF91A6
:10047000CF911F910F91FF90EF90DF90CF90089553
:10048000E6E3F1E088EE93E0A0E0B0E080839183C2
:10049000A283B383148210927B0180E4EBE3F1E04A
:1004A000DF011D928A95E9F780E1ECE7F1E0DF01D9
:1004B0001D928A95E9F70895CF93DF9300D000D07D
:1004C0001F92CDB7DEB7BE016F5F7F4F95E0FB0196
:1004D00011929A95E9F799E6998396E99D838A8323
:1004E00045E050E08CEC91E00E94B5080F900F9031
:1004F0000F900F900F90DF91CF910895EF92FF92A0
:100500000F931F93CF93DF93CDB7DEB72B970FB623
:10051000F894DEBF0FBECDBFF62E813209F4BCC009
:1005200070F4813109F451C018F48031E9F018C138
:10053000823109F45AC0803209F47DC011C181337F
:1005400009F4EDC038F4853209F4ADC0803309F404
:10055000D3C006C1803409F4F2C0813409F000C16F
:1005600010928C0181EBFDC024E06213C8C0FA0137
:10057000E380E0FAEE24E0F8F08001811281102798
:100580000127102780913501811105C00E940201C9
:1005900081E080933501B8018F2D0E941001EE207B
:1005A00091F0F3E0FF1578F081E080937B010E94E9
:1005B000980924E0F29EF0011124E458FE4F608374
:1005C00071838283938380E8CCC082E0681397C0F4
:1005D000FA01F080118161E08F2D0E94920A612F53
:1005E0008F2D0E94CE0A81E8BCC0F1E06F1387C056
:1005F000FA01108160E0812F0E94920A812F0E94EF
:10060000FD0ABE016F5F7F4F97E0FB0111929A9543
:10061000E9F799E6998392E89A83FB8296E99F83AA
:100620001C838D83810F8E8347E050E08CEC91E03A
:100630000E94B50898C0FBE06F1361C08BE0FA011F
:10064000DE01119601900D928A95E1F7FA0140853D
:100650005185228510923401ECE2F1E0DE01119621
:1006600064E371E080E010829D9197FD02C0908369
:100670008F5F31966E177F07B1F7809334015093E7
:10068000010140930001211102C081E001C083E01B
:100690000E94EA0980E965C0F1E06F1330C0109252
:1006A000340181E95EC023E0621329C0FA01E280CF
:1006B000E0FAEE24E0F8F080118161E08F2D0E94D5
:1006C000920A612F70E08F2D0E940A0AEE2091F0AD
:1006D000FFE0FF1578F081E080933A010E949809CD
:1006E00024E0F29EF0011124EA5CFE4F65837683DC
:1006F0008783908785E935C088E0681711F08DEF12
:1007000030C088E0FA01DE01119601900D928A95C1
:10071000E1F7CE0101960E94190580EA22C08AEF16
:1007200090E098878F831D821B8219821E821C8213
:100730001A82CE0101960E94190581EA12C0E5E0F5
:100740006E13DDCFFA012381348142816181808182
:100750000E94C003882311F080EB03C08CEF01C01E
:100760008EEF0E945C022B960FB6F894DEBF0FBE90
:10077000CDBFDF91CF911F910F91FF90EF90089522
:100780001F93CF93DF931816E4F41616D4F41416BF
:10079000C4F4142FD62FC82F61E00E94920A61E0A2
:1007A0008D2F0E94920A60E0812F0E94920A61E0E0
:1007B0008D2F0E94CE0A60E08C2F0E94CE0A81E02D
:1007C00001C080E0DF91CF911F9108950F931F9397
:1007D000CF93DF9361E0809108010E94CE0A60E030
:1007E000809108010E94CE0A00E110E0C0E0D0E054
:1007F00060E0809106010E94CE0A81E090E00E94B4
:10080000A40961E0809106010E94CE0A81E090E097
:100810000E94A409CC0FDD1F809104010E94FD0AF3
:10082000019709F4C1600150110911F760E080914E
:1008300006010E94CE0A81E090E00E94A40961E0D6
:10084000809106010E94CE0A81E090E00E94A409F6
:10085000CE01DF91CF911F910F910895CF92DF923A
:10086000EF92FF920F931F93CF93DF93CDB7DEB735
:100870002C970FB6F894DEBF0FBECDBF80918C01D0
:10088000882309F459C00E94980900918D011091A4
:100890008E0120918F01309190016B017C01C01A73
:1008A000D10AE20AF30A97018601409102015091B0
:1008B00003016A01E12CF12C0C151D052E053F05E5
:1008C000D8F160938D0170938E0180938F01909386
:1008D00090010E94E6038C0189E6898384E98A837A
:1008E00087E08B8386E98C870E9498096C837D83DF
:1008F0008E839F83C80126E0969587952A95E1F718
:10090000998788870F730A872B81BE016F5F7F4F9E
:10091000FB0180E030E0AF01461B570B4217530745
:1009200020F49381890F3196F6CF8B874CE050E00D
:100930008CEC91E00E94B5082C960FB6F894DEBFBF
:100940000FBECDBFDF91CF911F910F91FF90EF9020
:10095000DF90CF900895809192018823F9F0E09183
:100960009401EE0FFF0BEC55FF4FA591B4912C9124
:100970008091930130E0082E000C990B8223932381
:10098000892B61F08091990190919A01A0919B012E
:10099000B0919C010197A109B1090BC08091990107
:1009A00090919A01A0919B01B0919C010196A11D8B
:1009B000B11D8093990190939A01A0939B01B093EC
:1009C0009C01089580919E018823F9F0E091A00197
:1009D000EE0FFF0BEC55FF4FA591B4912C91809138
:1009E0009F0130E0082E000C990B82239323892B62
:1009F00061F08091A5019091A601A091A701B0910D
:100A0000A8010197A109B1090BC08091A50190919E
:100A1000A601A091A701B091A8010196A11DB11D49
:100A20008093A5019093A601A093A701B093A8017C
:100A300008956F927F928F929F92AF92BF92CF92C2
:100A4000DF92EF92FF920F931F93CF93DF93CDB777
:100A5000DEB72C970FB6F894DEBF0FBECDBFDC011A
:100A600016962D913C91179730930F0120930E010C
:100A700021E9A22E21E0B22E8C013AE0C32E31E012
:100A8000D32EE12CF12C4CE0742E4C01B4E08B0EF3
:100A9000911C6624639419821A821B821C821D8217
:100AA0001E821F82188619861A861B861C868CE079
:100AB000FE013196D50101900D928A95E1F7F8017A
:100AC00080817E9CD0017F9CB00D1124AF56BE4F1B
:100AD0008C93808118160CF05CC082811816BCF4CF
:100AE000E82F880FFF0BE458FF4FE4911296EC9328
:100AF0001297F8018281E82F880FFF0BE057FF4F14
:100B0000E4911396EC93139711966C9202C0119690
:100B10001C928114910409F1D8011496EC910E2EC7
:100B2000000CFF0BE458FF4FE4917E9CD0017F9CAA
:100B3000B00D1124AF56BE4F1596EC931597F801E2
:100B40008481E82F880FFF0BE057FF4FE491169642
:100B5000EC93169714966C920AC07E9CF0017F9CD1
:100B6000F00D1124EF56FE4F148216821582D60125
:100B70006D917C91F8018081823021F0833021F0E9
:100B80008FEF03C080E001C081E043E050E00E94AD
:100B9000E008FFEFEF1AFF0A8CE0A80EB11C0F5F10
:100BA0001F4FA2E0CA0ED11CB2E0EB16F10409F00F
:100BB00072CF2C960FB6F894DEBF0FBECDBFDF917B
:100BC000CF911F910F91FF90EF90DF90CF90BF904A
:100BD000AF909F908F907F906F900895E1E9F1E042
:100BE0001082118212821382148215821682178259
:100BF0001086118612861386148615861686178629
:100C0000108A118A128A138A148A158A168A178AF8
:100C10000895CF92DF92EF92FF920F931F93CF939D
:100C2000DF93CDB7DEB765970FB6F894DEBF0FBE82
:100C3000CDBF0E9498090091A9011091AA012091AD
:100C4000AB013091AC016B017C01C01AD10AE20A00
:100C5000F30A9701860140910E0150910F016A013C
:100C6000E12CF12C0C151D052E053F0508F452C092
:100C70006093A9017093AA018093AB019093AC019A
:100C800089E6898383E98A8380E18B8386E98D8B7A
:100C9000F8948091990190919A01A0919B01B09153
:100CA0009C0188879987AA87BB878091A50190912D
:100CB000A601A091A701B091A8018C879D87AE875E
:100CC000BF8778940E9498096C837D838E839F836D
:100CD00080910E0190910F01A0E0B0E0888B998B7C
:100CE000AA8BBB8B2B81BE016F5F7F4FFB0180E026
:100CF00030E0AF01461B570B4217530720F4938196
:100D0000890F3196F6CF8C8B45E150E08CEC91E069
:100D10000E94B50865960FB6F894DEBF0FBECDBF32
:100D2000DF91CF911F910F91FF90EF90DF90CF90C7
:100D300008958CEC91E00E94DC06892BE1F18CECAB
:100D400091E00E94F606E091CB01E11102C08936E4
:100D500079F591E09E0F9093CB01F0E0E355FE4FC3
:100D60008083892F90E04091AF01242F30E02B5FEA
:100D70003F4F82179307E9F683559E4FFC01319749
:100D800020812639A9F4E0EBF1E060E020E064176F
:100D900021F03191230F6F5FFACFFC0132978081F0
:100DA000281306C040EB51E08091AE010E947E0204
:100DB0001092CB01BECF0895FC01918D228D892F19
:100DC00090E0805C9F4F821B91098F739927089553
:100DD000FC01918D828D981731F0828DE80FF11D05
:100DE000858D90E008958FEF9FEF0895FC01918D20
:100DF000828D981761F0828DDF01A80FB11D5D967D
:100E00008C91928D9F5F9F73928F90E008958FEFEA
:100E10009FEF0895FC01538D448D252F30E0842FE2
:100E200090E0821B930B541710F0CF960895019712
:100E300008958EE698E0892B49F080E090E0892BB8
:100E400029F00E946E0881110C9400000895FC01A5
:100E5000848DDF01A80FB11DA35ABF4F2C91848D43
:100E600090E001968F739927848FA689B7892C9378
:100E7000A089B1898C9180648C93938D848D981313
:100E800006C00288F389E02D80818F7D80830895DC
:100E9000EF92FF920F931F93CF93DF93EC0181E0CA
:100EA000888F9B8D8C8D981305C0E889F989808186
:100EB00085FD24C0F62E0B8D10E00F5F1F4F0F73C2
:100EC0001127E02E8C8DE8120CC00FB607FCFACF6C
:100ED000E889F989808185FFF5CFCE010E94270737
:100EE000F1CF8B8DFE01E80FF11DE35AFF4FF08229
:100EF0000B8FEA89FB898081806207C0EE89FF89B8
:100F00006083E889F98980818064808381E090E052
:100F1000DF91CF911F910F91FF90EF900895CF93A4
:100F2000DF93EC01888D8823C9F0EA89FB898081F1
:100F300085FD05C0A889B9898C9186FD0FC00FB6C3
:100F400007FCF5CF808185FFF2CFA889B9898C9104
:100F500085FFEDCFCE010E942707E7CFDF91CF912C
:100F60000895CF92DF92EF92FF921F93CF93DF937A
:100F7000EC016A017B01122FE889F98982E0808304
:100F80004115514E61057105B1F060E079E08DE3E6
:100F900090E0A70196010E945C0BDA01C90101975C
:100FA000A109B109B695A795979587959C0121153B
:100FB00080E13807A8F0E889F989108260E874E8D0
:100FC0008EE190E0A70196010E945C0BDA01C90155
:100FD0000197A109B109B695A795979587959C01A9
:100FE000EC85FD853083EE85FF852083188EEC89A6
:100FF000FD891083EA89FB89808180618083EA8989
:10100000FB89808188608083EA89FB898081806890
:101010008083EA89FB8980818F7D8083DF91CF91F6
:101020001F91FF90EF90DF90CF9008951F920F9245
:101030000FB60F9211242F938F939F93EF93FF93EB
:10104000E091DC01F091DD018081E091E201F0911D
:10105000E30182FD12C090818091E5018F5F8F7363
:101060002091E601821751F0E091E501F0E0E453B0
:10107000FE4F958F8093E50101C08081FF91EF9134
:101080009F918F912F910F900FBE0F901F901895E9
:101090001F920F920FB60F9211242F933F934F93ED
:1010A0005F936F937F938F939F93AF93BF93EF93D0
:1010B000FF938CEC91E00E942707FF91EF91BF9185
:1010C000AF919F918F917F916F915F914F913F91E0
:1010D0002F910F900FBE0F901F9018958CEC91E000
:1010E0000E94DC0621E0892B09F420E0822F08957C
:1010F000ECECF1E01382128288EE93E0A0E0B0E025
:1011000084839583A683B78389E191E0918380836B
:1011100085EC90E09587848784EC90E097878687BC
:1011200080EC90E0918B808B81EC90E0938B828BB4
:1011300082EC90E0958B848B86EC90E0978B868B8D
:10114000118E128E138E148E089508950E94AF0989
:101150000E94A5080E948E00C9E1D7E00E94970076
:101160002097E1F30E941907F9CFCF92DF92EF9217
:10117000FF920F931F93CF93DF936C017A018B0142
:10118000C0E0D0E0CE15DF0581F0D8016D918D0172
:10119000D601ED91FC910190F081E02DC6010995F9
:1011A000892B11F02196EECF7E01C701DF91CF91FF
:1011B0001F910F91FF90EF90DF90CF9008950895C9
:1011C0008230E8F4E82FF0E0EE0FFF1FE05FFE4F03
:1011D00071836083813041F0809169008C7F482B5E
:1011E00040936900E89A089580916900837F440FD5
:1011F000551F440F551F482B40936900E99A0895E5
:101200001F920F920FB60F9211242F933F934F937B
:101210005F936F937F938F939F93AF93BF93EF935E
:10122000FF93E0911001F09111010995FF91EF9169
:10123000BF91AF919F918F917F916F915F914F91EE
:101240003F912F910F900FBE0F901F9018951F92F6
:101250000F920FB60F9211242F933F934F935F93EA
:101260006F937F938F939F93AF93BF93EF93FF936E
:10127000E0911201F09113010995FF91EF91BF9157
:10128000AF919F918F917F916F915F914F913F911E
:101290002F910F900FBE0F901F9018951F920F92D5
:1012A0000FB60F9211242F933F938F939F93AF9379
:1012B000BF9380916A0290916B02A0916C02B091F1
:1012C0006D023091690223E0230F2D3720F401963F
:1012D000A11DB11D05C026E8230F0296A11DB11D59
:1012E0002093690280936A0290936B02A0936C0230
:1012F000B0936D0280916E0290916F02A091700286
:10130000B09171020196A11DB11D80936E02909360
:101310006F02A0937002B0937102BF91AF919F9141
:101320008F913F912F910F900FBE0F901F901895A6
:101330002FB7F89460916A0270916B0280916C02F1
:1013400090916D022FBF08958230910538F0880F7B
:10135000991F880F991F05970197F1F708957894C1
:1013600084B5826084BD84B5816084BD85B58260AA
:1013700085BD85B5816085BDEEE6F0E08081816048
:101380008083E1E8F0E01082808182608083808148
:1013900081608083E0E8F0E0808181608083E1EB20
:1013A000F0E0808184608083E0EBF0E08081816008
:1013B0008083EAE7F0E080818460808380818260BE
:1013C00080838081816080838081806880831092A7
:1013D000C10008958093140108958E3008F08E5056
:1013E0002091140190E4299F900111248770822B91
:1013F00080937C0080917A00806480937A00809151
:101400007A0086FDFCCF809178002091790090E0F1
:10141000922B08951F93CF93DF93182FEB0161E078
:101420000E94920A209711F460E004C0CF3FD105DA
:1014300039F461E0812FDF91CF911F910C94CE0A96
:10144000E12FF0E0E859FF4FE491E330F9F048F480
:10145000E130B9F0E230A1F584B5806284BDC8BD49
:1014600034C0E730E9F0E83019F1E43049F5809113
:101470008000806280938000D0938B00C0938A00AC
:1014800024C084B5806884BDC7BD1FC08091800022
:10149000806880938000D0938900C093880015C035
:1014A0008091B00080688093B000C093B3000DC0FD
:1014B0008091B00080628093B000C093B40005C0FA
:1014C000C038D1050CF0B5CFAFCFDF91CF911F91D0
:1014D0000895833081F028F4813099F08230A1F0B2
:1014E00008958730A9F08830B9F08430D1F4809124
:1014F00080008F7D03C0809180008F778093800073
:10150000089584B58F7702C084B58F7D84BD08951A
:101510008091B0008F7703C08091B0008F7D809361
:10152000B0000895CF93DF9390E0FC01E458FF4FA3
:101530002491FC01E057FF4F8491882361F190E0F2
:10154000880F991FFC01E854FF4FC591D491FC010D
:10155000E255FF4FA591B491611109C09FB7F8946E
:101560008881209582238883EC912E230BC06230E2
:1015700061F49FB7F8948881322F30958323888354
:10158000EC912E2B2C939FBF06C08FB7F894E88167
:101590002E2B28838FBFDF91CF9108951F93CF9378
:1015A000DF93282F30E0F901E859FF4F8491F901CA
:1015B000E458FF4FD491F901E057FF4FC491CC2379
:1015C000C1F0162F81110E94690AEC2FF0E0EE0F96
:1015D000FF1FE255FF4FA591B4919FB7F8941111E9
:1015E00004C08C91D095D82302C0EC91DE2BDC9303
:1015F0009FBFDF91CF911F910895CF93DF93282F45
:1016000030E0F901E859FF4F8491F901E458FF4FA8
:10161000D491F901E057FF4FC491CC2391F081118F
:101620000E94690AEC2FF0E0EE0FFF1FEC55FF4F10
:10163000A591B491EC91ED2381E090E021F480E05C
:1016400002C080E090E0DF91CF910895CF93CFB7B3
:10165000F89480917502811127C0EAE9F0E0849145
:10166000E6E8F0E09491E82FF0E0EE0FFF1FE85479
:10167000FF4FA591B491EC91E92321F461E08AE058
:101680000E94CE0A61E08AE00E94920A8CB58061D5
:101690008CBD8CB580648CBD61E08DE00E94920AA7
:1016A00061E08BE00E94920A809175028F5F8093C7
:1016B0007502CFBFCF910895A1E21A2EAA1BBB1BC2
:1016C000FD010DC0AA1FBB1FEE1FFF1FA217B3070E
:1016D000E407F50720F0A21BB30BE40BF50B661F24
:1016E000771F881F991F1A9469F7609570958095E8
:1016F00090959B01AC01BD01CF010895EE0FFF1F36
:0C1700000590F491E02D0994F894FFCFBF
:10170C00C800C800100011000F00AB04E204F40183
:10171C00DF08DF0801000000004807B5080A078F42
:08172C0007DC06F606E80600E2
:00000001FF
