:100000000C9463000C9427080C944E080C948B00FD
:100010000C948B000C948B000C948B000C948B0034
:100020000C948B000C948B000C948B000C948B0024
:100030000C948B000C948B000C948B000C948B0014
:100040000C9475080C948B000C943C070C946E0770
:100050000C948B000C948B000C948B000C948B00F4
:100060000C948B000C948B0000000008000201002F
:100070000003040700000000000000000102040863
:100080001020408001020408102001020408102002
:10009000040404040404040402020202020203032E
:1000A00003030303000000002300260029000000D2
:1000B0000000250028002B0000000000240027007D
:1000C0002A001E059E0711241FBECFEFD8E0DEBF19
:1000D000CDBF11E0A0E0B1E0ECE5F5E102C0059094
:1000E0000D92A632B107D9F722E0A6E2B1E001C035
:1000F0001D92AE31B207E1F710E0C3E6D0E004C0D4
:100100002197FE010E94A60AC136D107C9F70E94B5
:10011000CC070C94AC0A0C94000026E040E052ECB2
:1001200061E070E084E791E00C94D7060E94CA0574
:100130000E9419010E9439050C9454030CB405FC6B
:100140000DC09EBD00000DB407FEFDCF9EB58EBD57
:1001500000000DB407FEFDCF8EB508958EBD0000E2
:100160000DB407FEFDCF8EB59EBD00000DB407FE99
:10017000FDCF9EB50895CF93DF93EC0180911C02D3
:10018000882399F03FB7F89480911C02813059F48C
:100190008DB380931A022DB390911B0290959223F8
:1001A0009DBB3FBF02C030931A0280E58CBD81E049
:1001B0008DBD60E089E00E94F50981E090E00E9439
:1001C000CB08CE010E949E0081E090E00E94CB0807
:1001D00061E089E00E94F50980911C02882361F0AA
:1001E0009FB7F89420911C0280911A02213019F4D3
:1001F0008DBB9FBF01C08FBFDF91CF9108950E943B
:100200004E0A61E089E00E94F50961E089E00E9400
:10021000B90980E090E80C94BB007F70706390E0B7
:1002200090E4899F902D88271124862B972B0C947E
:10023000BB00CF92DF92EF92FF920F931F93CF9369
:10024000DF93CDB7DEB7A9970FB6F894DEBF0FBE28
:10025000CDBF80913201882309F47BC00E94BF0882
:100260000091260110912701209128013091290148
:100270006B017C01C01AD10AE20AF30A97018601D8
:1002800040910001509101016A01E12CF12C0C1503
:100290001D052E053F0508F45CC060932601709390
:1002A000270180932801909329018E01065E1F4F3C
:1002B00080E1F80111928A95E9F7D12C8091320101
:1002C000D816A0F4ED2CF12CF701E65DFE4F8081ED
:1002D0000E941409EE0CFF1CE1E0F0E0EC0FFD1FA2
:1002E000EE0DFF1D928F818FD394E8CF89E689832D
:1002F00082E98A8384E18B8386E9898F0E94BF0823
:100300006C837D838E839F83F801DE011896CE0176
:100310008A96219131912D933D93E817F907C9F7FA
:100320002B81FE01349640E050E080E030E042173F
:10033000530728F49191890F4F5F5F4FF8CF888F53
:1003400049E150E0BE016F5F7F4F84E791E00E947A
:10035000DB07A9960FB6F894DEBF0FBECDBFDF91C5
:10036000CF911F910F91FF90EF90DF90CF90089564
:10037000CF93DF9300D000D01F92CDB7DEB7BE0180
:100380006F5F7F4F95E0FB0111929A95E9F799E62F
:10039000998396E99D838A8345E050E084E791E064
:1003A0000E94DB070F900F900F900F900F90DF913E
:1003B000CF910895FF920F931F93CF93DF93CDB703
:1003C000DEB72C970FB6F894DEBF0FBECDBF262F39
:1003D0008A01813209F4A3C068F48131C1F118F4B3
:1003E0008031E9F0E4C0823109F441C0803209F47F
:1003F00066C0DDC0813309F4BAC038F4853209F42F
:1004000094C0803309F4A1C0D2C0803409F4BFC0C5
:10041000813409F0CCC01092340181EBC9C0633043
:1004200009F095C080913301811105C00E94FF0041
:1004300081E080933301F801618170E0762F6627B7
:100440008281682B80810E940D0180E8B1C06230FA
:1004500009F07DC0FA01F080118161E08F2D0E94CA
:10046000B909612F8F2D0E94F50981E8A1C0613083
:1004700009F06DC0FA01108160E0812F2C870E9485
:10048000B909812F0E94250ABE016F5F7F4F97E057
:10049000FB0111929A95E9F799E6998392E89A837C
:1004A0002C852B8396E99F831C838D83180F1E83D5
:1004B00047E050E084E791E00E94DB077BC06B30AF
:1004C00009F045C08BE0FA01DE01119601900D9212
:1004D0008A95E1F7FA014085518522851092320113
:1004E000EAE2F1E0DE01119680E010829D9197FD35
:1004F00002C090838F5F319691E0E233F907A9F74C
:10050000809332015093010140930001211102C0F8
:1005100081E001C083E00E94110980E949C0613097
:10052000B1F41092320181E943C0623081F4FA01E2
:10053000F080118161E08F2D0E94B909612F70E078
:100540008F2D0E94310985E933C0683011F08DEF9D
:100550002FC088E0FA01DE01119601900D928A9574
:10056000E1F7CE0101960E94400480EA21C08AEFA3
:1005700090E098878F831D821B8219821E821C82C5
:100580001A82CE0101960E94400481EA11C06530B2
:10059000F1F6FA01238134814281618180810E94D8
:1005A000E602882311F080EB03C08CEF01C08EEFD0
:1005B0000E94B8012C960FB6F894DEBF0FBECDBFD7
:1005C000DF91CF911F910F91FF9008951F93CF93CB
:1005D000DF931816E4F41616D4F41416C4F4142F8A
:1005E000D62FC82F61E00E94B90961E08D2F0E94CB
:1005F000B90960E0812F0E94B90961E08D2F0E9446
:10060000F50960E08C2F0E94F50981E001C080E0CF
:10061000DF91CF911F9108950F931F93CF93DF9395
:1006200061E0809108010E94F50960E08091080175
:100630000E94F50900E110E0C0E0D0E060E08091A8
:1006400006010E94F50981E090E00E94CB0861E07C
:10065000809106010E94F50981E090E00E94CB089C
:10066000CC0FDD1F809104010E94250A019709F437
:10067000C1600150110911F760E0809106010E94EC
:10068000F50981E090E00E94CB0861E080910601CD
:100690000E94F50981E090E00E94CB08CE01DF9135
:1006A000CF911F910F910895CF92DF92EF92FF9219
:1006B0000F931F93CF93DF93CDB7DEB72C970FB671
:1006C000F894DEBF0FBECDBF80913401882309F4BA
:1006D0005AC00E94BF080091350110913601209147
:1006E0003701309138016B017C01C01AD10AE20A4E
:1006F000F30A9701860140910201509103016A01BA
:10070000E12CF12C0C151D052E053F05E0F1609341
:1007100035017093360180933701909338010E9420
:100720000C038C0189E6898384E98A8387E08B83C3
:1007300086E98C870E94BF086C837D838E839F83AC
:10074000C80126E0969587952A95E1F799878887CD
:100750000F730A872B81FE01349640E050E080E061
:1007600030E04217530728F49191890F4F5F5F4F94
:10077000F8CF8B874CE050E0BE016F5F7F4F84E77E
:1007800091E00E94DB072C960FB6F894DEBF0FBEF7
:10079000CDBFDF91CF911F910F91FF90EF90DF9030
:1007A000CF90089580913A018823F9F0E0913C01BF
:1007B000EE0FFF0BEC55FF4FA591B4912C9180915A
:1007C0003B0130E0082E000C990B82239323892BE8
:1007D00061F08091410190914201A0914301B0915B
:1007E00044010197A109B1090BC080914101909189
:1007F0004201A0914301B09144010196A11DB11D98
:100800008093410190934201A0934301B09344012E
:100810000895809146018823F9F0E0914801EE0F98
:10082000FF0BEC55FF4FA591B4912C91809147019E
:1008300030E0082E000C990B82239323892B61F062
:1008400080914D0190914E01A0914F01B0915001C6
:100850000197A109B1090BC080914D0190914E0102
:10086000A0914F01B09150010196A11DB11D80933F
:100870004D0190934E01A0934F01B0935001089504
:100880004F925F926F927F928F929F92AF92BF92A0
:10089000CF92DF92EF92FF920F931F93CF93DF934C
:1008A000CDB7DEB72C970FB6F894DEBF0FBECDBF25
:1008B000DC0116962D913C91179730930F012093F0
:1008C0000E0129E3822E21E0922E8C013AE0A32E24
:1008D00031E0B32E7C01B4E0EB0EF11CC12CD12C25
:1008E00037014CE0542E4424439419821A821B820F
:1008F0001C821D821E821F82188619861A861B86FC
:100900001C86FE013196D401852D01900D928A95A9
:10091000E1F7F80180815C9CD0015D9CB00D112451
:10092000A75CBE4F8C93808118160CF05EC0C70187
:100930000297FC0120811216BCF4E22F220FFF0B5C
:10094000E458FF4FE4911296EC931297FC018081DA
:10095000E82F880FFF0BE057FF4FE4911396EC93BD
:10096000139711964C9202C011961C926114710457
:1009700001F1D701EC910E2E000CFF0BE458FF4F54
:10098000E4915C9CD0015D9CB00D1124A75CBE4F2E
:100990001596EC931597F7018081E82F880FFF0BD0
:1009A000E057FF4FE4911696EC93169714964C92ED
:1009B0000AC05C9CF0015D9CF00D1124E75CFE4FC9
:1009C000148216821582D5016D917C91F801808187
:1009D000823021F0833021F08FEF03C080E001C02E
:1009E00081E043E050E00E940708FCE08F0E911C7C
:1009F0000F5F1F4F82E0A80EB11CAFEFEA1AFA0A90
:100A0000CA94CD2821F0CC24C394D12C6ECF2C963F
:100A10000FB6F894DEBF0FBECDBFDF91CF911F910F
:100A20000F91FF90EF90DF90CF90BF90AF909F908D
:100A30008F907F906F905F904F900895E9E3F1E081
:100A400010821182128213821482158216821782FA
:100A500010861186128613861486158616861786CA
:100A6000108A118A128A138A148A158A168A178A9A
:100A70000895CF92DF92EF92FF920F931F93CF933F
:100A8000DF93CDB7DEB765970FB6F894DEBF0FBE24
:100A9000CDBF0E94BF0800915101109152012091D9
:100AA0005301309154016B017C01C01AD10AE20A52
:100AB000F30A9701860140910E0150910F016A01DE
:100AC000E12CF12C0C151D052E053F0508F453C033
:100AD000609351017093520180935301909354019C
:100AE00089E6898383E98A8380E18B8386E98D8B1C
:100AF000F8948091410190914201A0914301B091FD
:100B0000440188879987AA87BB8780914D0190917E
:100B10004E01A0914F01B09150018C879D87AE8707
:100B2000BF8778940E94BF086C837D838E839F83E8
:100B300080910E0190910F01A0E0B0E0888B998B1D
:100B4000AA8BBB8B2B81FE01349640E050E080E005
:100B500030E04217530728F49191890F4F5F5F4FA0
:100B6000F8CF8C8B45E150E0BE016F5F7F4F84E78B
:100B700091E00E94DB0765960FB6F894DEBF0FBECA
:100B8000CDBFDF91CF911F910F91FF90EF90DF903C
:100B9000CF900895CF93DF93C8E5D1E084E791E04B
:100BA0000E941106892BD1F184E791E00E942B0667
:100BB000E0917301E11102C0893669F521E02E0F41
:100BC00020937301F0E0EB5AFE4F808330E0609198
:100BD0005701862F90E0059628173907F9F62B5A0A
:100BE0003E4FF901319780818639A9F480915601F1
:100BF000E8E5F1E090E04E2F4C1B461718F44191C8
:100C0000940FF9CFF90132972081291304C048E5E8
:100C100051E00E94DA0110927301C0CFDF91CF91B1
:100C20000895FC01918D228D892F90E0805C9F4F6B
:100C3000821B91098F7399270895FC01918D828DF4
:100C4000981731F0828DE80FF11D858D90E00895A1
:100C50008FEF9FEF0895FC01918D828D981761F0C1
:100C6000828DDF01A80FB11D5D968C91928D9F5FE3
:100C70009F73928F90E008958FEF9FEF089584E91E
:100C800097E0892B49F080E090E0892B29F00E94C1
:100C9000940781110C9400000895FC01848DDF01FC
:100CA000A80FB11DA35ABF4F2C91848D90E00196DF
:100CB0008F739927848FA689B7892C93A089B189CE
:100CC0008C9180648C93938D848D981306C00288D8
:100CD000F389E02D80818F7D80830895CF93DF930A
:100CE000EC01888D8823C9F0EA89FB89808185FD24
:100CF00005C0A889B9898C9186FD0FC00FB607FC85
:100D0000F5CF808185FFF2CFA889B9898C9185FFC5
:100D1000EDCFCE010E944D06E7CFDF91CF91089530
:100D2000EF92FF920F931F93CF93DF93EC0181E03B
:100D3000888F9B8D8C8D981305C0E889F9898081F7
:100D400085FD24C0F62E0B8D10E00F5F1F4F0F7333
:100D50001127E02E8C8DE8120CC00FB607FCFACFDD
:100D6000E889F989808185FFF5CFCE010E944D0683
:100D7000F1CF8B8DFE01E80FF11DE35AFF4FF0829A
:100D80000B8FEA89FB898081806207C0EE89FF8929
:100D90006083E889F98980818064808381E090E0C4
:100DA000DF91CF911F910F91FF90EF900895CF9217
:100DB000DF92EF92FF921F93CF93DF93EC016A01D2
:100DC0007B01122FE889F98982E080834115514E19
:100DD00061057105B1F060E079E08DE390E0A70175
:100DE00096010E94840ADA01C9010197A109B1099B
:100DF000B695A79597958795AC01411580E1580761
:100E0000A8F0E889F989108260E874E88EE190E042
:100E1000A70196010E94840ABA01A9014150510913
:100E2000610971097695679557954795EC85FD851C
:100E30005083EE85FF854083188EEC89FD891083F1
:100E4000EA89FB89808180618083EA89FB898081CE
:100E500088608083EA89FB89808180688083EA8951
:100E6000FB8980818F7D8083DF91CF911F91FF90DF
:100E7000EF90DF90CF9008951F920F920FB60F92D0
:100E800011242F938F939F93EF93FF93E09184010D
:100E9000F09185018081E0918A01F0918B0182FDC2
:100EA00012C0908180918D018F5F8F7320918E0190
:100EB000821751F0E0918D01F0E0EC58FE4F958FD4
:100EC00080938D0101C08081FF91EF919F918F915F
:100ED0002F910F900FBE0F901F9018951F920F9299
:100EE0000FB60F9211242F933F934F935F936F93FD
:100EF0007F938F939F93AF93BF93EF93FF9384E779
:100F000091E00E944D06FF91EF91BF91AF919F91AB
:100F10008F917F916F915F914F913F912F910F90A2
:100F20000FBE0F901F90189584E791E00E94110664
:100F300021E0892B09F420E0822F0895E4E7F1E015
:100F40001382128288EE93E0A0E0B0E08483958360
:100F5000A683B78389E191E09183808385EC90E05B
:100F60009587848784EC90E09787868780EC90E073
:100F7000918B808B81EC90E0938B828B82EC90E064
:100F8000958B848B86EC90E0978B868B118E128EDE
:100F9000138E148E089508950E94D6080E94CB07E0
:100FA0000E948D00CFE3D6E00E9496002097E1F3E7
:100FB0000E943F06F9CFCF92DF92EF92FF920F93FC
:100FC0001F93CF93DF936C017A018B01C0E0D0E0D7
:100FD000CE15DF0589F0D8016D918D01D601ED9117
:100FE000FC910190F081E02DC6010995892B11F447
:100FF0007E0102C02196ECCFC701DF91CF911F91F6
:101000000F91FF90EF90DF90CF9008950895823078
:10101000E8F4E82FF0E0EE0FFF1FE05FFE4F718372
:101020006083813041F0809169008C7F482B409330
:101030006900E89A089580916900440F551F440F94
:10104000551F837F482B40936900E99A08951F92AA
:101050000F920FB60F9211242F933F934F935F93EC
:101060006F937F938F939F93AF93BF93EF93FF9370
:10107000E0911001F09111010995FF91EF91BF915D
:10108000AF919F918F917F916F915F914F913F9120
:101090002F910F900FBE0F901F9018951F920F92D7
:1010A0000FB60F9211242F933F934F935F936F933B
:1010B0007F938F939F93AF93BF93EF93FF93E091B1
:1010C0001201F09113010995FF91EF91BF91AF913A
:1010D0009F918F917F916F915F914F913F912F9150
:1010E0000F900FBE0F901F9018951F920F920FB682
:1010F0000F9211242F933F938F939F93AF93BF939E
:101100008091120290911302A0911402B0911502E5
:101110003091110223E0230F2D3720F40196A11DF9
:10112000B11D05C026E8230F0296A11DB11D209315
:1011300011028093120290931302A0931402B093B1
:1011400015028091160290911702A0911802B09199
:1011500019020196A11DB11D8093160290931702EA
:10116000A0931802B0931902BF91AF919F918F91F4
:101170003F912F910F900FBE0F901F9018952FB792
:10118000F894609112027091130280911402909170
:1011900015022FBF08958230910538F0880F991FEE
:1011A000880F991F05970197F1F70895789484B5F2
:1011B000826084BD84B5816084BD85B5826085BD53
:1011C00085B5816085BDEEE6F0E080818160808339
:1011D000E1E8F0E01082808182608083808181601C
:1011E0008083E0E8F0E0808181608083E1EBF0E0E3
:1011F000808184608083E0EBF0E080818160808387
:10120000EAE7F0E08081846080838081826080836F
:101210008081816080838081806880831092C1009A
:1012200008958093140108958E3008F08E508770D1
:101230002091140190E4299F90011124822B809326
:101240007C0080917A00806480937A0080917A009B
:1012500086FDFCCF809178002091790090E0922B60
:1012600008951F93CF93DF93182FEB0161E00E9445
:10127000B909209711F460E004C0CF3FD10539F4DB
:1012800061E0812FDF91CF911F910C94F509E12F3F
:10129000F0E0E859FF4FE491E330F9F048F4E13031
:1012A000B9F0E230A1F584B5806284BDC8BD34C018
:1012B000E730E9F0E83019F1E43049F58091800039
:1012C000806280938000D0938B00C0938A0024C0FA
:1012D00084B5806884BDC7BD1FC0809180008068D0
:1012E00080938000D0938900C093880015C08091BE
:1012F000B00080688093B000C093B3000DC08091AF
:10130000B00080628093B000C093B40005C0C038C4
:10131000D1050CF0B5CFAFCFDF91CF911F910895DC
:10132000833081F028F4813099F08230A1F0089563
:101330008730A9F08830B9F08430D1F480918000F2
:101340008F7D03C0809180008F7780938000089507
:1013500084B58F7702C084B58F7D84BD0895809158
:10136000B0008F7703C08091B0008F7D8093B00074
:101370000895CF93DF9390E0FC01E458FF4F249150
:10138000FC01E057FF4F8491882361F190E0880FC2
:10139000991FFC01E854FF4FC591D491FC01E2551F
:1013A000FF4FA591B491611109C09FB7F89488814E
:1013B000209582238883EC912E230BC0623061F448
:1013C0009FB7F8943881822F809583238883EC918E
:1013D0002E2B2C939FBF06C08FB7F894E8812E2B3D
:1013E00028838FBFDF91CF9108951F93CF93DF9311
:1013F000282F30E0F901E859FF4F8491F901E458B2
:10140000FF4FD491F901E057FF4FC491CC23C9F0AD
:10141000162F81110E949009EC2FF0E0EE0FFF1FB4
:10142000E255FF4FA591B4918FB7F894111105C003
:101430009C91ED2FE095E92302C0EC91ED2BEC930C
:101440008FBFDF91CF911F910895CF93DF93282F06
:1014500030E0F901E859FF4F8491F901E458FF4F5A
:10146000D491F901E057FF4FC491CC2391F0811141
:101470000E949009EC2FF0E0EE0FFF1FEC55FF4F9C
:10148000A591B491EC91ED2381E090E021F480E00E
:1014900002C080E090E0DF91CF910895CF93CFB765
:1014A000F89480911D02811127C0EAE9F0E084914F
:1014B000E6E8F0E09491E82FF0E0EE0FFF1FE8542B
:1014C000FF4FA591B491EC91E92321F461E08AE00A
:1014D0000E94F50961E08AE00E94B9098CB580613B
:1014E0008CBD8CB580648CBD61E08DE00E94B90933
:1014F00061E08BE00E94B90980911D028F5F8093AB
:101500001D02CFBFCF910895A1E21A2EAA1BBB1BCB
:10151000FD010DC0AA1FBB1FEE1FFF1FA217B307BF
:10152000E407F50720F0A21BB30BE40BF50B661FD5
:10153000771F881F991F1A9469F760957095809599
:1015400090959B01AC01BD01CF010895EE0FFF1FE7
:0C1550000590F491E02D0994F894FFCF71
:10155C00C800C800100011000F00D2030904F401E8
:10156C000608060801000000009006DB0711062B98
:06157C00061D066E0600CC
:00000001FF
