:100000000C9464000C94E5050C940C060C948C0084
:100010000C948C000C948C000C948C000C948C0030
:100020000C948C000C948C000C948C000C948C0020
:100030000C948C000C948C000C948C000C948C0010
:100040000C9433060C948C000C941A050C944C05FB
:100050000C948C000C948C000C948C000C948C00F0
:100060000C948C000C948C0000000008000201002D
:100070000003040700000000000000000102040863
:100080001020408001020408102001020408102002
:10009000040404040404040402020202020203032E
:1000A00003030303000000002300260029000000D2
:1000B0000000250028002B0000000000240027007D
:1000C0002A0032021E037C0511241FBECFEFD8E0A8
:1000D000DEBFCDBF11E0A0E0B1E0E6E6F0E102C096
:1000E00005900D92A432B107D9F722E0A4E2B1E065
:1000F00001C01D92A235B207E1F710E0C4E6D0E0DE
:1001000004C02197FE010E942B08C136D107C9F710
:100110000E94AA050C9431080C9400002EE040E0E7
:1001200052EC61E070E089EA91E00C94B5040E9421
:10013000CF030E940E010E9439030E94A9020C9471
:10014000AD010CB405FC0DC09EBD00000DB407FE52
:10015000FDCF9EB58EBD00000DB407FEFDCF8EB560
:1001600008958EBD00000DB407FEFDCF8EB59EBD77
:1001700000000DB407FEFDCF9EB50895CF93DF9329
:10018000EC0180915102882399F03FB7F894809157
:100190005102813059F48DB380934F022DB3909169
:1001A0005002909592239DBB3FBF02C030934F02F7
:1001B00080E58CBD81E08DBD60E089E00E94B007E4
:1001C00081E090E00E948906CE010E94A10081E0BA
:1001D00090E00E94890661E089E00E94B00780916A
:1001E0005102882361F09FB7F894209151028091C9
:1001F0004F02213019F48DBB9FBF01C08FBFDF912B
:10020000CF9108957F70706390E090E4899F902D66
:1002100088271124862B972B0C94BE00CF92DF9257
:10022000EF92FF920F931F93CF93DF93CDB7DEB77B
:10023000A9970FB6F894DEBF0FBECDBF80913001F5
:10024000882309F47BC00E947D060091240110914F
:10025000250120912601309127016B017C01C01AF4
:10026000D10AE20AF30A97018601409100015091F8
:1002700001016A01E12CF12C0C151D052E053F052D
:1002800008F45CC0609324017093250180932601DB
:10029000909327018E01065E1F4F80E1F8011192B5
:1002A0008A95E9F7D12C80913001D816A0F4ED2C75
:1002B000F12CF701E85DFE4F80810E94CF06EE0C25
:1002C000FF1CE1E0F0E0EC0FFD1FEE0DFF1D928F33
:1002D000818FD394E8CF89E6898382E98A8384E198
:1002E0008B8386E9898F0E947D066C837D838E8354
:1002F0009F83F801DE011896CE018A9621913191F3
:100300002D933D93E817F907C9F72B81FE01349629
:1003100040E050E080E030E04217530728F491912C
:10032000890F4F5F5F4FF8CF888F49E150E0BE01E2
:100330006F5F7F4F89EA91E00E94B905A9960FB6D9
:10034000F894DEBF0FBECDBFDF91CF911F910F910B
:10035000FF90EF90DF90CF900895CF92DF92EF92D1
:10036000FF920F931F93CF93DF930E947D066B0143
:100370007C018091760181110CC080913501882328
:1003800009F467C01092350101E311E0C0E0D1E04B
:1003900056C01092760107E711E0C0E0D1E0F80105
:1003A00080819181A281B3810097A105B105F1F00F
:1003B000D0937601B701A601481B590B6A0B7B0B42
:1003C0008091310190913201A0913301B0913401BB
:1003D00084179507A607B70748F410821182128286
:1003E000138260E070E08C2F0E940201CF5F0C5FEF
:1003F0001F4FC430A1F6C1CFD0933501B701A6017C
:10040000481B590B6A0B7B0B809131019091320193
:10041000A0913301B091340184179507A607B7075F
:1004200048F4158216821782108660E070E08C2FE7
:100430000E94EC06CF5F0C5F1F4FC03151F0F801F6
:1004400085819681A781B0850097A105B10591F3BB
:10045000D3CFDF91CF911F910F91FF90EF90DF905D
:10046000CF900895E1E3F1E088EE93E0A0E0B0E002
:1004700080839183A283B38314821092760180E4F7
:10048000E6E3F1E0DF011D928A95E9F780E1E7E715
:10049000F1E0DF011D928A95E9F708950F931F930C
:1004A000CF93DF9361E0809108010E94740761E0BF
:1004B000809106010E94740760E0809104010E940F
:1004C000740760E0809108010E94B00782E090E02C
:1004D0000E94890600E110E0C0E0D0E060E0809179
:1004E00006010E94B00781E090E00E94890661E069
:1004F000809106010E94B00781E090E00E94890689
:10050000CC0FDD1F809104010E94E007019709F4E0
:10051000C1600150110911F760E0809106010E944D
:10052000B00781E090E00E94890661E080910601B9
:100530000E94B00781E090E00E94890661E080910E
:1005400008010E94B007CE01DF91CF911F910F915A
:100550000895CF92DF92EF92FF92CF93DF93CDB7C2
:10056000DEB72C970FB6F894DEBF0FBECDBF8091DB
:100570008701882309F455C00E947D066B017C0128
:100580008091880190918901A0918A01B0918B019D
:10059000B701A601481B590B6A0B7B0B8091020126
:1005A00090910301A0E0B0E0481759076A077B0764
:1005B000C0F1C0928801D0928901E0928A01F09244
:1005C0008B010E944E0229E6298324E92A8327E031
:1005D0002B8326E92C87CC82DD82EE82FF829C0170
:1005E00096E0369527959A95E1F7398728878F7396
:1005F0008A87FE013496AE01455F5F4F20E081910E
:1006000090E0820F911D282FE417F507C1F78B8723
:100610004CE050E0BE016F5F7F4F89EA91E00E949D
:10062000B9052C960FB6F894DEBF0FBECDBFDF9193
:10063000CF91FF90EF90DF90CF900895ECE8F1E03C
:1006400010821182128213821482158216821782FE
:1006500010861186128613861486158616861786CE
:10066000108A118A128A138A148A158A168A178A9E
:100670000895CF92DF92EF92FF920F931F93CF9343
:10068000DF93CDB7DEB765970FB6F894DEBF0FBE28
:10069000CDBF8091A401882309F472C00E947D0619
:1006A0000091A5011091A6012091A7013091A80108
:1006B0006B017C01C01AD10AE20AF30A9701860194
:1006C00040910A0150910B016A01E12CF12C0C15AB
:1006D0001D052E053F0508F453C06093A5017093D6
:1006E000A6018093A7019093A80189E6898383E9F5
:1006F0008A8380E18B8386E98D8BF89480919401C5
:1007000090919501A0919601B09197018887998762
:10071000AA87BB878091A0019091A101A091A2011D
:10072000B091A3018C879D87AE87BF8778940E9484
:100730007D066C837D838E839F8380910A019091D7
:100740000B01A0E0B0E0888B998BAA8BBB8B2B812F
:10075000FE01349640E050E080E030E0421753075D
:1007600028F49191890F4F5F5F4FF8CF8C8B45E153
:1007700050E0BE016F5F7F4F89EA91E00E94B905AA
:1007800065960FB6F894DEBF0FBECDBFDF91CF9157
:100790001F910F91FF90EF90DF90CF90089589EA1D
:1007A00091E00E94E003892B51F089EA91E00E94D8
:1007B000FA03682F89EA91E00E946E04F0CF089551
:1007C000FC01918D228D892F90E0805C9F4F821BD0
:1007D00091098F7399270895FC01918D828D981747
:1007E00031F0828DE80FF11D858D90E008958FEF37
:1007F0009FEF0895FC01918D828D981761F0828D95
:10080000DF01A80FB11D5D968C91928D9F5F9F7344
:10081000928F90E008958FEF9FEF0895FC01538D24
:10082000448D252F30E0842F90E0821B930B5417CA
:1008300010F0CF9608950197089582E795E0892BEF
:1008400049F080E090E0892B29F00E947205811127
:100850000C9400000895FC01848DDF01A80FB11DE8
:10086000A35ABF4F2C91848D90E001968F739927E6
:10087000848FA689B7892C93A089B1898C918064D3
:100880008C93938D848D981306C00288F389E02D94
:1008900080818F7D80830895CF93DF93EC01888DD5
:1008A0008823C9F0EA89FB89808185FD05C0A88974
:1008B000B9898C9186FD0FC00FB607FCF5CF8081FA
:1008C00085FFF2CFA889B9898C9185FFEDCFCE0144
:1008D0000E942B04E7CFDF91CF910895EF92FF9212
:1008E0000F931F93CF93DF93EC0181E0888F9B8D53
:1008F0008C8D981305C0E889F989808185FD24C015
:10090000F62E0B8D10E00F5F1F4F0F731127E02E97
:100910008C8DE8120CC00FB607FCFACFE889F98974
:10092000808185FFF5CFCE010E942B04F1CF8B8D06
:10093000FE01E80FF11DE35AFF4FF0820B8FEA89A9
:10094000FB898081806207C0EE89FF896083E88926
:10095000F98980818064808381E090E0DF91CF918C
:100960001F910F91FF90EF900895CF92DF92EF9239
:10097000FF921F93CF93DF93EC016A017B01122F4B
:10098000E889F98982E080834115514E610571053E
:10099000B1F060E079E08DE390E0A70196010E945C
:1009A0000908DA01C9010197A109B109B695A7950E
:1009B00097958795AC01411580E15807A8F0E88923
:1009C000F989108260E874E88EE190E0A701960151
:1009D0000E940908BA01A901415051096109710930
:1009E0007695679557954795EC85FD855083EE85FF
:1009F000FF854083188EEC89FD891083EA89FB8985
:100A0000808180618083EA89FB898081886080831E
:100A1000EA89FB89808180688083EA89FB898081FB
:100A20008F7D8083DF91CF911F91FF90EF90DF90BA
:100A3000CF9008951F920F920FB60F9211242F930B
:100A40008F939F93EF93FF93E091B901F091BA01D7
:100A50008081E091BF01F091C00182FD12C09081C0
:100A60008091C2018F5F8F732091C301821751F073
:100A7000E091C201F0E0E755FE4F958F8093C201EF
:100A800001C08081FF91EF919F918F912F910F90E5
:100A90000FBE0F901F9018951F920F920FB60F92D6
:100AA00011242F933F934F935F936F937F938F9373
:100AB0009F93AF93BF93EF93FF9389EA91E00E94D6
:100AC0002B04FF91EF91BF91AF919F918F917F91F7
:100AD0006F915F914F913F912F910F900FBE0F90AB
:100AE0001F90189589EA91E00E94E00321E0892B8C
:100AF00009F420E0822F0895E9EAF1E013821282DE
:100B000088EE93E0A0E0B0E084839583A683B7836A
:100B100085E191E09183808385EC90E095878487DF
:100B200084EC90E09787868780EC90E0918B808BB7
:100B300081EC90E0938B828B82EC90E0958B848BA0
:100B400086EC90E0978B868B118E128E138E148E0E
:100B5000089508950E9494060E94A9050E948E009F
:100B6000CDE1D4E00E9497002097E1F30E941D049C
:100B7000F9CFCF92DF92EF92FF920F931F93CF9313
:100B8000DF936C017A018B01C0E0D0E0CE15DF0568
:100B900089F0D8016D918D01D601ED91FC91019004
:100BA000F081E02DC6010995892B11F47E0102C068
:100BB0002196ECCFC701DF91CF911F910F91FF904C
:100BC000EF90DF90CF90089508951F920F920FB687
:100BD0000F9211242F933F934F935F936F937F93C3
:100BE0008F939F93AF93BF93EF93FF93E0910C018B
:100BF000F0910D010995FF91EF91BF91AF919F91F8
:100C00008F917F916F915F914F913F912F910F90B5
:100C10000FBE0F901F9018951F920F920FB60F9254
:100C200011242F933F934F935F936F937F938F93F1
:100C30009F93AF93BF93EF93FF93E0910E01F091D9
:100C40000F010995FF91EF91BF91AF919F918F9106
:100C50007F916F915F914F913F912F910F900FBEB8
:100C60000F901F9018951F920F920FB60F9211249C
:100C70002F933F938F939F93AF93BF93809147029E
:100C800090914802A0914902B0914A0230914602E7
:100C900023E0230F2D3720F40196A11DB11D05C0BF
:100CA00026E8230F0296A11DB11D209346028093D2
:100CB000470290934802A0934902B0934A02809160
:100CC0004B0290914C02A0914D02B0914E020196C0
:100CD000A11DB11D80934B0290934C02A0934D0235
:100CE000B0934E02BF91AF919F918F913F912F9101
:100CF0000F900FBE0F901F9018952FB7F89460912A
:100D00004702709148028091490290914A022FBF98
:100D100008958230910538F0880F991F880F991F28
:100D200005970197F1F70895789484B5826084BDA2
:100D300084B5816084BD85B5826085BD85B58160DF
:100D400085BDEEE6F0E0808181608083E1E8F0E03F
:100D50001082808182608083808181608083E0E86E
:100D6000F0E0808181608083E1EBF0E0808184604D
:100D70008083E0EBF0E0808181608083EAE7F0E04F
:100D800080818460808380818260808380818160B3
:100D900080838081806880831092C10008958E30A6
:100DA00008F08E5087702091100190E4299F9001E7
:100DB0001124822B80937C0080917A008064809340
:100DC0007A0080917A0086FDFCCF80917800209196
:100DD000790090E0922B08951F93CF93DF93182F03
:100DE000EB0161E00E947407209711F460E004C0F9
:100DF000CF3FD10539F461E0812FDF91CF911F9171
:100E00000C94B007E12FF0E0E859FF4FE491E33094
:100E1000F9F048F4E130B9F0E230A1F584B5806230
:100E200084BDC8BD34C0E730E9F0E83019F1E430E2
:100E300049F580918000806280938000D0938B0080
:100E4000C0938A0024C084B5806884BDC7BD1FC01C
:100E500080918000806880938000D0938900C09347
:100E6000880015C08091B00080688093B000C09366
:100E7000B3000DC08091B00080628093B000C09339
:100E8000B40005C0C038D1050CF0B5CFAFCFDF91AD
:100E9000CF911F910895833081F028F4813099F02B
:100EA0008230A1F008958730A9F08830B9F08430FD
:100EB000D1F4809180008F7D03C0809180008F7776
:100EC00080938000089584B58F7702C084B58F7DAC
:100ED00084BD08958091B0008F7703C08091B000E9
:100EE0008F7D8093B0000895CF93DF9390E0FC0155
:100EF000E458FF4F2491FC01E057FF4F8491882371
:100F000061F190E0880F991FFC01E854FF4FC591F3
:100F1000D491FC01E255FF4FA591B491611109C034
:100F20009FB7F8948881209582238883EC912E23A3
:100F30000BC0623061F49FB7F8943881822F80959E
:100F400083238883EC912E2B2C939FBF06C08FB7F1
:100F5000F894E8812E2B28838FBFDF91CF910895DD
:100F60001F93CF93DF93282F30E0F901E859FF4F0B
:100F70008491F901E458FF4FD491F901E057FF4FF4
:100F8000C491CC23C9F0162F81110E944B07EC2F7E
:100F9000F0E0EE0FFF1FE255FF4FA591B4918FB720
:100FA000F894111105C09C91ED2FE095E92302C042
:100FB000EC91ED2BEC938FBFDF91CF911F910895B2
:100FC000CF93DF93282F30E0F901E859FF4F849148
:100FD000F901E458FF4FD491F901E057FF4FC49154
:100FE000CC2391F081110E944B07EC2FF0E0EE0F23
:100FF000FF1FEC55FF4FA591B491EC91ED2381E0DB
:1010000090E021F480E002C080E090E0DF91CF9199
:101010000895A1E21A2EAA1BBB1BFD010DC0AA1F39
:10102000BB1FEE1FFF1FA217B307E407F50720F051
:10103000A21BB30BE40BF50B661F771F881F991FCC
:101040001A9469F760957095809590959B01AC0115
:10105000BD01CF010895EE0FFF1F0590F491E02D23
:061060000994F894FFCF93
:10106600C800C800100011000F00F401E405E405F3
:1010760001000000006E04B9050E044C04E003FAFA
:0410860003EC030074
:00000001FF
