:100000000C9462000C948A000C948A000C948A0070
:100010000C948A000C948A000C948A000C948A0038
:100020000C948A000C948A000C948A000C948A0028
:100030000C948A000C948A000C948A000C948A0018
:100040000C9453050C948A000C9489040C94BB0402
:100050000C948A000C948A000C948A000C948A00F8
:100060000C948A000C948A00000000080002010031
:100070000003040700000000000000000102040863
:100080001020408001020408102001020408102002
:10009000040404040404040402020202020203032E
:1000A00003030303000000002300260029000000D2
:1000B0000000250028002B0000000000240027007D
:1000C0002A00EB0411241FBECFEFD8E0DEBFCDBF66
:1000D00011E0A0E0B1E0E8E1FFE002C005900D9280
:1000E000A631B107D9F721E0A6E1B1E001C01D9228
:1000F000A13FB207E1F710E0C2E6D0E004C02197CB
:10010000FE010E948407C136D107C9F70E94190574
:100110000C948A070C94000026E040E052EC61E069
:1001200070E087E491E00C9424040E9417030E947D
:1001300016010C949C020CB405FC0DC09EBD000081
:100140000DB407FEFDCF9EB58EBD00000DB407FEB9
:10015000FDCF8EB508958EBD00000DB407FEFDCF16
:100160008EB59EBD00000DB407FEFDCF9EB508956F
:10017000CF93DF93EC018091EF01882399F03FB793
:10018000F8948091EF01813059F48DB38093ED01A3
:100190002DB39091EE01909592239DBB3FBF02C07D
:1001A0003093ED0180E58CBD81E08DBD60E089E09C
:1001B0000E94D30681E090E00E94A905CE010E9432
:1001C0009B0081E090E00E94A90561E089E00E9427
:1001D000D3068091EF01882361F09FB7F8942091B6
:1001E000EF018091ED01213019F48DBB9FBF01C05B
:1001F0008FBFDF91CF9108950E942C0761E089E0C5
:100200000E94D30661E089E00E94970680E090E8B2
:100210000C94B8007F70706390E090E4899F902DFB
:1002200088271124862B972B0C94B800CF92DF924D
:10023000EF92FF920F931F93CF93DF93CDB7DEB76B
:10024000A9970FB6F894DEBF0FBECDBF80912201F3
:10025000882309F47BC00E949D050091160110912E
:10026000170120911801309119016B017C01C01A0E
:10027000D10AE20AF30A97018601409100015091E8
:1002800001016A01E12CF12C0C151D052E053F051D
:1002900008F45CC0609316017093170180931801F5
:1002A000909319018E01065E1F4F80E1F8011192B3
:1002B0008A95E9F7D12C80912201D816A0F4ED2C73
:1002C000F12CF701E65EFE4F80810E94F205EE0CF4
:1002D000FF1CE1E0F0E0EC0FFD1FEE0DFF1D928F23
:1002E000818FD394E8CF89E6898382E98A8384E188
:1002F0008B8386E9898F0E949D056C837D838E8325
:100300009F83F801DE011896CE018A9621913191E2
:100310002D933D93E817F907C9F72B81FE01349619
:1003200040E050E080E030E04217530728F491911C
:10033000890F4F5F5F4FF8CF888F49E150E0BE01D2
:100340006F5F7F4F87E491E00E942805A9960FB662
:10035000F894DEBF0FBECDBFDF91CF911F910F91FB
:10036000FF90EF90DF90CF900895CF93DF9300D070
:1003700000D01F92CDB7DEB7BE016F5F7F4F95E013
:10038000FB0111929A95E9F799E6998396E99D8385
:100390008A8345E050E087E491E00E9428050F90B1
:1003A0000F900F900F900F90DF91CF910895FF92D3
:1003B0000F931F93CF93DF93CDB7DEB72C970FB674
:1003C000F894DEBF0FBECDBF262F8A018231B9F16E
:1003D00028F4803169F0813119F19FC0813209F42C
:1003E00086C0853209F489C0803209F096C04EC0BB
:1003F000633009F04DC080912301811105C00E9436
:10040000FC0081E080932301F801618170E0762F88
:1004100066278281682B80810E940A0180E87EC065
:100420006230B1F5FA01F080118161E08F2D0E94F8
:100430009706612F8F2D0E94D30681E86FC061302F
:1004400039F5FA01108160E0812F2C870E94970610
:10045000812F0E940307BE016F5F7F4F97E0FB0172
:1004600011929A95E9F799E6998392E89A832C85F7
:100470002B8396E99F831C838D83180F1E8347E08F
:1004800050E087E491E00E9428054AC06B3011F0EB
:100490008DEF44C08BE0FA01DE01119601900D92C0
:1004A0008A95E1F7FA014085518522851092220153
:1004B000EAE1F1E0DE01119680E010829D9197FD66
:1004C00002C090838F5F319691E0E232F907A9F77D
:1004D000809322015093010140930001211102C039
:1004E00081E001C083E00E94EF0580E917C0613020
:1004F00079F61092220181E911C0623049F6FA01C1
:10050000F080118161E08F2D0E949706612F70E0CD
:100510008F2D0E940F0685E901C08EEF0E94B50164
:100520002C960FB6F894DEBF0FBECDBFDF91CF91F2
:100530001F910F91FF900895CF92DF92EF92FF925B
:100540000F931F93CF93DF93CDB7DEB72F970FB6DF
:10055000F894DEBF0FBECDBF0E949D05009124011F
:100560001091250120912601309127016B017C011A
:10057000C01AD10AE20AF30A9701860140910201EA
:10058000509103016A01E12CF12C0C151D052E057B
:100590003F0508F43DC060932401709325018093CA
:1005A000260190932701F894789489E6898383E95A
:1005B0008A838AE08B8386E98F870E949D056C83FE
:1005C0007D838E839F838091020190910301A0E03F
:1005D000B0E08A879B87AC87BD87198618862B81F8
:1005E000FE01349640E050E080E030E042175307CF
:1005F00028F49191890F4F5F5F4FF8CF8E874FE0BE
:1006000050E0BE016F5F7F4F87E491E00E942805B4
:100610002F960FB6F894DEBF0FBECDBFDF91CF91FE
:100620001F910F91FF90EF90DF90CF900895CF939F
:10063000DF93CBE2D1E087E491E00E945E03892B57
:10064000D1F187E491E00E947803E0914601E11145
:1006500002C0893669F521E02E0F20934601F0E0B3
:10066000E85DFE4F808330E060912A01862F90E0A4
:10067000059628173907F9F6285D3E4FF90131979D
:1006800080818639A9F480912901EBE2F1E090E0C4
:100690004E2F4C1B461718F44191940FF9CFF901D6
:1006A00032972081291304C04BE251E00E94D70108
:1006B00010924601C0CFDF91CF910895FC01918D3A
:1006C000228D892F90E0805C9F4F821B91098F7350
:1006D00099270895FC01918D828D981731F0828DB4
:1006E000E80FF11D858D90E008958FEF9FEF08953D
:1006F000FC01918D828D981761F0828DDF01A80F2A
:10070000B11D5D968C91928D9F5F9F73928F90E04B
:1007100008958FEF9FEF089581EE94E0892B49F0C3
:1007200080E090E0892B29F00E94E10481110C9473
:1007300000000895FC01848DDF01A80FB11DA35AAC
:10074000BF4F2C91848D90E001968F739927848FF1
:10075000A689B7892C93A089B1898C9180648C93E8
:10076000938D848D981306C00288F389E02D8081D3
:100770008F7D80830895CF93DF93EC01888D88234C
:10078000C9F0EA89FB89808185FD05C0A889B989FE
:100790008C9186FD0FC00FB607FCF5CF808185FFD9
:1007A000F2CFA889B9898C9185FFEDCFCE010E9447
:1007B0009A03E7CFDF91CF910895EF92FF920F93C5
:1007C0001F93CF93DF93EC0181E0888F9B8D8C8DFD
:1007D000981305C0E889F989808185FD24C0F62E2B
:1007E0000B8D10E00F5F1F4F0F731127E02E8C8DC4
:1007F000E8120CC00FB607FCFACFE889F9898081AE
:1008000085FFF5CFCE010E949A03F1CF8B8DFE01BB
:10081000E80FF11DE35AFF4FF0820B8FEA89FB8945
:100820008081806207C0EE89FF896083E889F98949
:1008300080818064808381E090E0DF91CF911F917F
:100840000F91FF90EF900895CF92DF92EF92FF9279
:100850001F93CF93DF93EC016A017B01122FE8898C
:10086000F98982E080834115514E61057105B1F02F
:1008700060E079E08DE390E0A70196010E946207B5
:10088000DA01C9010197A109B109B695A795979514
:100890008795AC01411580E15807A8F0E889F989EE
:1008A000108260E874E88EE190E0A70196010E9452
:1008B0006207BA01A9014150510961097109769590
:1008C000679557954795EC85FD855083EE85FF85A7
:1008D0004083188EEC89FD891083EA89FB89808129
:1008E00080618083EA89FB89808188608083EA89CE
:1008F000FB89808180688083EA89FB8980818F7D84
:100900008083DF91CF911F91FF90EF90DF90CF9088
:1009100008951F920F920FB60F9211242F938F9369
:100920009F93EF93FF93E0915701F09158018081DD
:10093000E0915D01F0915E0182FD12C09081809195
:1009400060018F5F8F7320916101821751F0E091F8
:100950006001F0E0E95BFE4F958F8093600101C07C
:100960008081FF91EF919F918F912F910F900FBEFA
:100970000F901F9018951F920F920FB60F9211248F
:100980002F933F934F935F936F937F938F939F9397
:10099000AF93BF93EF93FF9387E491E00E949A0394
:1009A000FF91EF91BF91AF919F918F917F916F9147
:1009B0005F914F913F912F910F900FBE0F901F901D
:1009C000189587E491E00E945E0321E0892B09F4E9
:1009D00020E0822F0895E7E4F1E01382128288EE8E
:1009E00093E0A0E0B0E084839583A683B78389E099
:1009F00091E09183808385EC90E09587848784ECF7
:100A000090E09787868780EC90E0918B808B81ECDB
:100A100090E0938B828B82EC90E0958B848B86ECBC
:100A200090E0978B868B118E128E138E148E089504
:100A300008950E94B4050E9418050E948C00CCE81D
:100A4000D3E00E9495002097E1F30E948C03F9CF38
:100A5000CF92DF92EF92FF920F931F93CF93DF938A
:100A60006C017A018B01C0E0D0E0CE15DF0589F082
:100A7000D8016D918D01D601ED91FC910190F0812D
:100A8000E02DC6010995892B11F47E0102C0219643
:100A9000ECCFC701DF91CF911F910F91FF90EF90A5
:100AA000DF90CF9008951F920F920FB60F921124EE
:100AB0002F933F938F939F93AF93BF938091E501C3
:100AC0009091E601A091E701B091E8013091E40135
:100AD00023E0230F2D3720F40196A11DB11D05C081
:100AE00026E8230F0296A11DB11D2093E4018093F7
:100AF000E5019093E601A093E701B093E8018091AE
:100B0000E9019091EA01A091EB01B091EC0101960D
:100B1000A11DB11D8093E9019093EA01A093EB011F
:100B2000B093EC01BF91AF919F918F913F912F9125
:100B30000F900FBE0F901F9018952FB7F8946091EB
:100B4000E5017091E6018091E7019091E8012FBFE6
:100B500008958230910538F0880F991F880F991FEA
:100B600005970197F1F70895789484B5826084BD64
:100B700084B5816084BD85B5826085BD85B58160A1
:100B800085BDEEE6F0E0808181608083E1E8F0E001
:100B90001082808182608083808181608083E0E830
:100BA000F0E0808181608083E1EBF0E0808184600F
:100BB0008083E0EBF0E0808181608083EAE7F0E011
:100BC0008081846080838081826080838081816075
:100BD00080838081806880831092C1000895809313
:100BE000040108958E3008F08E5087702091040122
:100BF00090E4299F90011124822B80937C008091A6
:100C00007A00806480937A0080917A0086FDFCCF20
:100C1000809178002091790090E0922B08951F93A5
:100C2000CF93DF93182FEB0161E00E949706209786
:100C300011F460E004C0CF3FD10539F461E0812FA9
:100C4000DF91CF911F910C94D306E12FF0E0E8598A
:100C5000FF4FE491E330F9F048F4E130B9F0E230CD
:100C6000A1F584B5806284BDC8BD34C0E730E9F029
:100C7000E83019F1E43049F580918000806280937A
:100C80008000D0938B00C0938A0024C084B5806814
:100C900084BDC7BD1FC080918000806880938000A4
:100CA000D0938900C093880015C08091B0008068FF
:100CB0008093B000C093B3000DC08091B0008062FB
:100CC0008093B000C093B40005C0C038D1050CF0CB
:100CD000B5CFAFCFDF91CF911F910895833081F0D1
:100CE00028F4813099F08230A1F008958730A9F07E
:100CF0008830B9F08430D1F4809180008F7D03C0BA
:100D0000809180008F7780938000089584B58F77DD
:100D100002C084B58F7D84BD08958091B0008F7727
:100D200003C08091B0008F7D8093B0000895CF9371
:100D3000DF9390E0FC01E458FF4F2491FC01E05761
:100D4000FF4F8491882361F190E0880F991FFC0187
:100D5000E854FF4FC591D491FC01E255FF4FA59196
:100D6000B491611109C09FB7F894888120958223BE
:100D70008883EC912E230BC0623061F49FB7F89406
:100D80003881822F809583238883EC912E2B2C939E
:100D90009FBF06C08FB7F894E8812E2B28838FBFA2
:100DA000DF91CF9108951F93CF93DF93282F30E0E9
:100DB000F901E859FF4F8491F901E458FF4FD491AC
:100DC000F901E057FF4FC491CC23C9F0162F8111D0
:100DD0000E946E06EC2FF0E0EE0FFF1FE255FF4F72
:100DE000A591B4918FB7F894111105C09C91ED2F86
:100DF000E095E92302C0EC91ED2BEC938FBFDF91DE
:100E0000CF911F910895CF93DF93282F30E0F90100
:100E1000E859FF4F8491F901E458FF4FD491F9014B
:100E2000E057FF4FC491CC2391F081110E946E06D0
:100E3000EC2FF0E0EE0FFF1FEC55FF4FA591B491A2
:100E4000EC91ED2381E090E021F480E002C080E0AD
:100E500090E0DF91CF910895CF93CFB7F894809130
:100E6000F001811127C0EAE9F0E08491E6E8F0E0C2
:100E70009491E82FF0E0EE0FFF1FE854FF4FA5918B
:100E8000B491EC91E92321F461E08AE00E94D30659
:100E900061E08AE00E9497068CB580618CBD8CB5BC
:100EA00080648CBD61E08DE00E94970661E08BE07C
:100EB0000E9497068091F0018F5F8093F001CFBF71
:100EC000CF910895A1E21A2EAA1BBB1BFD010DC0F4
:100ED000AA1FBB1FEE1FFF1FA217B307E407F507EA
:100EE00020F0A21BB30BE40BF50B661F771F881FC6
:100EF000991F1A9469F760957095809590959B015C
:100F0000AC01BD01CF010895EE0FFF1F0590F491D4
:080F1000E02D0994F894FFCFD5
:100F1800C800F4010100000000DD0328055E037825
:060F2800036A03BB030095
:00000001FF
