:100000000C9462000C948A000C948A000C948A0070
:100010000C948A000C948A000C948A000C948A0038
:100020000C948A000C948A000C948A000C948A0028
:100030000C948A000C948A000C948A000C948A0018
:100040000C943D050C948A000C9473040C94A50444
:100050000C948A000C948A000C948A000C948A00F8
:100060000C948A000C948A00000000080002010031
:100070000003040700000000000000000102040863
:100080001020408001020408102001020408102002
:10009000040404040404040402020202020203032E
:1000A00003030303000000002300260029000000D2
:1000B0000000250028002B0000000000240027007D
:1000C0002A00D50411241FBECFEFD8E0DEBFCDBF7C
:1000D00011E0A0E0B1E0EEE2FEE002C005900D927A
:1000E000AE32B107D9F722E0AEE2B1E001C01D9215
:1000F000A930B207E1F710E0C2E6D0E004C02197D2
:10010000FE010E940F07C136D107C9F70E940305FF
:100110000C9415070C94000026E040E855E260E0DE
:1001200070E08FE591E00C940E040E9401030E94A0
:1001300016010C9486020CB405FC0DC09EBD000097
:100140000DB407FEFDCF9EB58EBD00000DB407FEB9
:10015000FDCF8EB508958EBD00000DB407FEFDCF16
:100160008EB59EBD00000DB407FEFDCF9EB508956F
:10017000CF93DF93EC0180910702882399F03FB77A
:10018000F89480910702813059F48DB38093050271
:100190002DB390910602909592239DBB3FBF02C064
:1001A0003093050280E58CBD81E08DBD60E089E083
:1001B0000E945E0681E090E00E949305CE010E94BD
:1001C0009B0081E090E00E94930561E089E00E943D
:1001D0005E0680910702882361F09FB7F894209112
:1001E000070280910502213019F48DBB9FBF01C029
:1001F0008FBFDF91CF9108950E94B70661E089E03B
:100200000E945E0661E089E00E94220680E090E89C
:100210000C94B8007F70706390E090E4899F902DFB
:1002200088271124862B972B0C94B800CF92DF924D
:10023000EF92FF920F931F93CF93DF93CDB7DEB76B
:10024000A9970FB6F894DEBF0FBECDBF80913A01DB
:10025000882309F47BC00E94870500912E0110912C
:100260002F0120913001309131016B017C01C01AC6
:10027000D10AE20AF30A97018601409100015091E8
:1002800001016A01E12CF12C0C151D052E053F051D
:1002900008F45CC060932E0170932F0180933001AD
:1002A000909331018E01065E1F4F80E1F80111929B
:1002B0008A95E9F7D12C80913A01D816A0F4ED2C5B
:1002C000F12CF701EE5CFE4F80810E94DC05EE0C04
:1002D000FF1CE1E0F0E0EC0FFD1FEE0DFF1D928F23
:1002E000818FD394E8CF89E6898382E98A8384E188
:1002F0008B8386E9898F0E9487056C837D838E833B
:100300009F83F801DE011896CE018A9621913191E2
:100310002D933D93E817F907C9F72B81FE01349619
:1003200040E050E080E030E04217530728F491911C
:10033000890F4F5F5F4FF8CF888F49E150E0BE01D2
:100340006F5F7F4F8FE591E00E941205A9960FB66F
:10035000F894DEBF0FBECDBFDF91CF911F910F91FB
:10036000FF90EF90DF90CF900895FF920F931F932F
:10037000CF93DF93CDB7DEB761970FB6F894DEBFAA
:100380000FBECDBF262F8A018231C9F128F48031FA
:1003900051F0813111F19CC0803209F454C0813296
:1003A00009F48EC095C0633009F0A4C080913B0170
:1003B000811105C00E94FC0081E080933B01F8019F
:1003C000618170E0762F66278281682B80810E9490
:1003D0000A0185E0E5E0F1E07EC0623009F08AC004
:1003E000FA01F080118161E08F2D0E942206612FB9
:1003F0008F2D0E945E0685E0EAE0F1E06CC061307E
:1004000009F078C0FA01108160E0812F298B0E94E9
:100410002206812F0E948E06BE016F5F7F4F97E0FC
:10042000FB0111929A95E9F799E6998392E89A83EC
:1004300029892B8396E99F831C838D83180F1E8344
:1004400047E050E053C06B3009F054C08BE0FA0134
:10045000DE01119601900D928A95E1F7FA0140852F
:100460005185228510923A01E2E3F1E0DE01119616
:1004700080E010829D9197FD02C090838F5F31963E
:1004800091E0EA33F907A9F780933A01509301010B
:1004900040930001211102C081E001C083E00E946D
:1004A000D90585E0EFE0F1E0DE011C9601900D92A8
:1004B0008A95E1F745E050E0BE01645F7F4F16C0CA
:1004C0006130C1F410923A0185E0E4E1F1E003C04B
:1004D00085E0E9E1F1E0DE01119601900D928A9547
:1004E000E1F745E050E0BE016F5F7F4F8FE591E09F
:1004F0000E94120561960FB6F894DEBF0FBECDBF05
:10050000DF91CF911F910F91FF900895CF92DF92CD
:10051000EF92FF920F931F93CF93DF93CDB7DEB788
:100520002F970FB6F894DEBF0FBECDBF0E94870590
:1005300000913C0110913D0120913E0130913F011D
:100540006B017C01C01AD10AE20AF30A9701860105
:1005500040910201509103016A01E12CF12C0C152C
:100560001D052E053F0508F43DC060933C017093C6
:100570003D0180933E0190933F01F894789489E681
:10058000898383E98A838AE08B8386E98F870E9447
:1005900087056C837D838E839F8380910201909178
:1005A0000301A0E0B0E08A879B87AC87BD871986EE
:1005B00018862B81FE01349640E050E080E030E068
:1005C0004217530728F49191890F4F5F5F4FF8CF7F
:1005D0008E874FE050E0BE016F5F7F4F8FE591E067
:1005E0000E9412052F960FB6F894DEBF0FBECDBF46
:1005F000DF91CF911F910F91FF90EF90DF90CF90FF
:100600000895CF93DF93C3E4D1E08FE591E00E949A
:100610004803892BD1F18FE591E00E946203E091BC
:100620005E01E11102C0893669F521E02E0F2093A9
:100630005E01F0E0E05CFE4F808330E060914201BB
:10064000862F90E0059628173907F9F6205C3E4F73
:10065000F901319780818639A9F480914101E3E461
:10066000F1E090E04E2F4C1B461718F44191940F87
:10067000F9CFF90132972081291304C043E451E0F6
:100680000E94B50110925E01C0CFDF91CF91089515
:10069000FC01918D228D892F90E0805C9F4F821B01
:1006A00091098F7399270895FC01918D828D981778
:1006B00031F0828DE80FF11D858D90E008958FEF68
:1006C0009FEF0895FC01918D828D981761F0828DC6
:1006D000DF01A80FB11D5D968C91928D9F5F9F7376
:1006E000928F90E008958FEF9FEF08958BEC94E048
:1006F000892B49F080E090E0892B29F00E94CB04FF
:1007000081110C9400000895FC01848DDF01A80F75
:10071000B11DA35ABF4F2C91848D90E001968F7329
:100720009927848FA689B7892C93A089B1898C9148
:1007300080648C93938D848D981306C00288F3890E
:10074000E02D80818F7D80830895CF93DF93EC012E
:10075000888D8823C9F0EA89FB89808185FD05C0E1
:10076000A889B9898C9186FD0FC00FB607FCF5CF1B
:10077000808185FFF2CFA889B9898C9185FFEDCF63
:10078000CE010E948403E7CFDF91CF910895EF92CD
:10079000FF920F931F93CF93DF93EC0181E0888F3B
:1007A0009B8D8C8D981305C0E889F989808185FD22
:1007B00024C0F62E0B8D10E00F5F1F4F0F73112713
:1007C000E02E8C8DE8120CC00FB607FCFACFE8893A
:1007D000F989808185FFF5CFCE010E948403F1CF96
:1007E0008B8DFE01E80FF11DE35AFF4FF0820B8F56
:1007F000EA89FB898081806207C0EE89FF89608376
:10080000E889F98980818064808381E090E0DF91CC
:10081000CF911F910F91FF90EF900895CF92DF92AB
:10082000EF92FF921F93CF93DF93EC016A017B015C
:10083000122FE889F98982E080834115514E6105C4
:100840007105B1F060E079E08DE390E0A7019601D9
:100850000E94ED06DA01C9010197A109B109B69517
:10086000A79597958795AC01411580E15807A8F0A9
:10087000E889F989108260E874E88EE190E0A701C8
:1008800096010E94ED06BA01A90141505109610982
:1008900071097695679557954795EC85FD85508349
:1008A000EE85FF854083188EEC89FD891083EA89E7
:1008B000FB89808180618083EA89FB8980818860EF
:1008C0008083EA89FB89808180688083EA89FB894B
:1008D00080818F7D8083DF91CF911F91FF90EF907A
:1008E000DF90CF9008951F920F920FB60F921124B0
:1008F0002F938F939F93EF93FF93E0916F01F0916C
:1009000070018081E0917501F091760182FD12C045
:100910009081809178018F5F8F7320917901821788
:1009200051F0E0917801F0E0E15AFE4F958F80930D
:10093000780101C08081FF91EF919F918F912F915C
:100940000F900FBE0F901F9018951F920F920FB629
:100950000F9211242F933F934F935F936F937F9345
:100960008F939F93AF93BF93EF93FF938FE591E0A6
:100970000E948403FF91EF91BF91AF919F918F915E
:100980007F916F915F914F913F912F910F900FBE8B
:100990000F901F9018958FE591E00E94480321E089
:1009A000892B09F420E0822F0895EFE5F1E013820E
:1009B000128288EE93E0A0E0B0E084839583A68362
:1009C000B78382E291E09183808385EC90E0958704
:1009D000848784EC90E09787868780EC90E0918B09
:1009E000808B81EC90E0938B828B82EC90E0958BF6
:1009F000848B86EC90E0978B868B118E128E138EF3
:100A0000148E089508950E949E050E9402050E947A
:100A10008C00C6E7D3E00E9495002097E1F30E9486
:100A20007603F9CFCF92DF92EF92FF920F931F934D
:100A3000CF93DF936C017A018B01C0E0D0E0CE153B
:100A4000DF0589F0D8016D918D01D601ED91FC9102
:100A50000190F081E02DC6010995892B11F47E01EA
:100A600002C02196ECCFC701DF91CF911F910F916A
:100A7000FF90EF90DF90CF9008951F920F920FB6E6
:100A80000F9211242F933F938F939F93AF93BF9314
:100A90008091FD019091FE01A091FF01B0910002B3
:100AA0003091FC0123E0230F2D3720F40196A11D86
:100AB000B11D05C026E8230F0296A11DB11D20938C
:100AC000FC018093FD019093FE01A093FF01B09380
:100AD00000028091010290910202A0910302B09164
:100AE00004020196A11DB11D8093010290930202A0
:100AF000A0930302B0930402BF91AF919F918F9195
:100B00003F912F910F900FBE0F901F9018952FB708
:100B1000F8946091FD017091FE018091FF01909128
:100B200000022FBF08958230910538F0880F991F79
:100B3000880F991F05970197F1F70895789484B568
:100B4000826084BD84B5816084BD85B5826085BDC9
:100B500085B5816085BDEEE6F0E0808181608083AF
:100B6000E1E8F0E010828081826080838081816092
:100B70008083E0E8F0E0808181608083E1EBF0E059
:100B8000808184608083E0EBF0E0808181608083FD
:100B9000EAE7F0E0808184608083808182608083E6
:100BA0008081816080838081806880831092C10011
:100BB00008958093040108958E3008F08E50877058
:100BC0002091040190E4299F90011124822B8093AD
:100BD0007C0080917A00806480937A0080917A0012
:100BE00086FDFCCF809178002091790090E0922BD7
:100BF0000895833081F028F4813099F08230A1F09B
:100C000008958730A9F08830B9F08430D1F480910C
:100C100080008F7D03C0809180008F77809380005B
:100C2000089584B58F7702C084B58F7D84BD089503
:100C30008091B0008F7703C08091B0008F7D80934A
:100C4000B0000895CF93DF9390E0FC01E458FF4F8C
:100C50002491FC01E057FF4F8491882361F190E0DB
:100C6000880F991FFC01E854FF4FC591D491FC01F6
:100C7000E255FF4FA591B491611109C09FB7F89457
:100C80008881209582238883EC912E230BC06230CB
:100C900061F49FB7F8943881822F809583238883ED
:100CA000EC912E2B2C939FBF06C08FB7F894E88150
:100CB0002E2B28838FBFDF91CF9108951F93CF9361
:100CC000DF93282F30E0F901E859FF4F8491F901B3
:100CD000E458FF4FD491F901E057FF4FC491CC2362
:100CE000C9F0162F81110E94F905EC2FF0E0EE0FEC
:100CF000FF1FE255FF4FA591B4918FB7F8941111E2
:100D000005C09C91ED2FE095E92302C0EC91ED2BFD
:100D1000EC938FBFDF91CF911F910895CF93DF9315
:100D2000282F30E0F901E859FF4F8491F901E45888
:100D3000FF4FD491F901E057FF4FC491CC2391F0BC
:100D400081110E94F905EC2FF0E0EE0FFF1FEC552A
:100D5000FF4FA591B491EC91ED2381E090E021F457
:100D600080E002C080E090E0DF91CF910895CF93C2
:100D7000CFB7F89480910802811127C0EAE9F0E02A
:100D80008491E6E8F0E09491E82FF0E0EE0FFF1F89
:100D9000E854FF4FA591B491EC91E92321F461E06F
:100DA0008AE00E945E0661E08AE00E9422068CB51D
:100DB00080618CBD8CB580648CBD61E08DE00E944B
:100DC000220661E08BE00E942206809108028F5F7C
:100DD00080930802CFBFCF910895A1E21A2EAA1BDB
:100DE000BB1BFD010DC0AA1FBB1FEE1FFF1FA217DB
:100DF000B307E407F50720F0A21BB30BE40BF50BD8
:100E0000661F771F881F991F1A9469F76095709560
:100E1000809590959B01AC01BD01CF010895EE0F27
:0E0E2000FF1F0590F491E02D0994F894FFCF88
:100E2E00C800F4010169800000966981000096698E
:100E3E0090000096699100009669FE0000960000F1
:0E0E4E000000C7031205480362035403A50306
:00000001FF
