:100000000C9464000C94FF080C9426090C948C004A
:100010000C948C000C948C000C948C000C948C0030
:100020000C948C000C948C000C948C000C948C0020
:100030000C948C000C948C000C948C000C948C0010
:100040000C944D090C948C000C9414080C944608E4
:100050000C948C000C948C000C948C000C948C00F0
:100060000C948C000C948C0000000008000201002D
:100070000003040700000000000000000102040863
:100080001020408001020408102001020408102002
:10009000040404040404040402020202020203032E
:1000A00003030303000000002300260029000000D2
:1000B0000000250028002B0000000000240027007D
:1000C0002A004002F605760811241FBECFEFD8E0C3
:1000D000DEBFCDBF11E0A0E0B1E0ECE0F7E102C08F
:1000E00005900D92A632B107D9F722E0A6E2B1E061
:1000F00001C01D92A437B207E1F710E0C4E6D0E0DA
:1001000004C02197FE010E947E0BC136D107C9F7BA
:100110000E94A4080C94840B0C94000026E040E09C
:1001200052EC61E070E08AEC91E00C94AF070E9421
:10013000A2060E941C010E9411060E942C040C942D
:10014000BB010CB405FC0DC09EBD00000DB407FE44
:10015000FDCF9EB58EBD00000DB407FEFDCF8EB560
:1001600008958EBD00000DB407FEFDCF8EB59EBD77
:1001700000000DB407FEFDCF9EB50895CF93DF9329
:10018000EC0180917202882399F03FB7F894809136
:100190007202813059F48DB3809370022DB3909127
:1001A0007102909592239DBB3FBF02C030937002B5
:1001B00080E58CBD81E08DBD60E089E00E94CD0AC4
:1001C00081E090E00E94A309CE010E94A10081E09D
:1001D00090E00E94A30961E089E00E94CD0A80912D
:1001E0007202882361F09FB7F89420917202809187
:1001F0007002213019F48DBB9FBF01C08FBFDF910A
:10020000CF9108950E94260B61E089E00E94CD0AFB
:1002100061E089E00E94910A80E090E80C94BE00C1
:100220007F70706390E090E4899F902D882711245F
:10023000862B972B0C94BE00CF92DF92EF92FF9209
:100240000F931F93CF93DF93CDB7DEB7A9970FB668
:10025000F894DEBF0FBECDBF80913201882309F430
:100260007BC00E94970900912601109127012091DF
:100270002801309129016B017C01C01AD10AE20AE0
:10028000F30A9701860140910001509101016A0132
:10029000E12CF12C0C151D052E053F0508F45CC062
:1002A0006093260170932701809328019093290180
:1002B0008E01065E1F4F80E1F80111928A95E9F7E1
:1002C000D12C80913201D816A0F4ED2CF12CF7013D
:1002D000E65DFE4F80810E94EC09EE0CFF1CE1E020
:1002E000F0E0EC0FFD1FEE0DFF1D928F818FD39478
:1002F000E8CF89E6898382E98A8384E18B8386E972
:10030000898F0E9497096C837D838E839F83F80178
:10031000DE011896CE018A96219131912D933D935D
:10032000E817F907C9F72B81FE01349640E050E049
:1003300080E030E04217530728F49191890F4F5F16
:100340005F4FF8CF888F49E150E0BE016F5F7F4F6C
:100350008AEC91E00E94B308A9960FB6F894DEBF2C
:100360000FBECDBFDF91CF911F910F91FF90EF9006
:10037000DF90CF900895CF92DF92EF92FF920F938C
:100380001F93CF93DF930E9497096B017C018091AB
:10039000790181110CC080913801882309F467C06C
:1003A0001092380104E311E0C0E0D1E056C0109291
:1003B00079010AE711E0C0E0D1E0F8018081918184
:1003C000A281B3810097A105B105F1F0D093790125
:1003D000B701A601481B590B6A0B7B0B80913401B6
:1003E00090913501A0913601B0913701841795079E
:1003F000A607B70748F4108211821282138260E0C8
:1004000070E08C2F0E941001CF5F0C5F1F4FC43033
:10041000A1F6C1CFD0933801B701A601481B590BF3
:100420006A0B7B0B8091340190913501A0913601CC
:10043000B091370184179507A607B70748F41582CE
:1004400016821782108660E070E08C2F0E94090AE5
:10045000CF5F0C5F1F4FC03151F0F801858196814D
:10046000A781B0850097A105B10591F3D3CFDF91A6
:10047000CF911F910F91FF90EF90DF90CF90089553
:10048000E4E3F1E088EE93E0A0E0B0E080839183C4
:10049000A283B38314821092790180E4E9E3F1E04E
:1004A000DF011D928A95E9F780E1EAE7F1E0DF01DB
:1004B0001D928A95E9F70895CF93DF9300D000D07D
:1004C0001F92CDB7DEB7BE016F5F7F4F95E0FB0196
:1004D00011929A95E9F799E6998396E99D838A8323
:1004E00045E050E08AEC91E00E94B3080F900F9035
:1004F0000F900F900F90DF91CF910895DF92EF92C0
:10050000FF920F931F93CF93DF93CDB7DEB72C9756
:100510000FB6F894DEBF0FBECDBF262F813209F48F
:10052000BCC070F4813109F450C018F48031E9F096
:1005300014C1823109F459C0803209F47EC00DC162
:10054000813309F4EAC038F4853209F4ACC0803351
:1005500009F4D1C002C1803409F4EFC0813409F03C
:10056000FCC010928A0181EBF9C0643009F0C5C06B
:10057000FA01E380E0FAEE24E0F8F080D180128105
:1005800080913301811105C00E94020181E08093B6
:100590003301612F70E07D298F2D0E941001EE2024
:1005A00091F0F3E0FF1578F081E0809379010E94EB
:1005B000970924E0F29EF0011124E658FE4F608373
:1005C00071838283938380E8C9C0623009F095C04B
:1005D000FA01F080118161E08F2D0E94910A612F54
:1005E0008F2D0E94CD0A81E8B9C0613009F085C025
:1005F000FA01108160E0812F2C870E94910A812FDF
:100600000E94FD0ABE016F5F7F4F97E0FB011192D0
:100610009A95E9F799E6998392E89A832C852B833A
:1006200096E99F831C838D83180F1E8347E050E05B
:100630008AEC91E00E94B30893C06B3009F05DC072
:100640008BE0FA01DE01119601900D928A95E1F797
:10065000FA0140855185228510923201EAE2F1E0EB
:10066000DE01119680E010829D9197FD02C090837B
:100670008F5F319691E0E233F907A9F78093320159
:100680005093010140930001211102C081E001C09B
:1006900083E00E94E90980E961C0613071F5109240
:1006A000320181E95BC0633041F5FA01E280E0FA92
:1006B000EE24E0F8F080118161E08F2D0E94910A14
:1006C000612F70E08F2D0E94090AEE2091F0FFE06B
:1006D000FF1578F081E0809338010E94970924E0AB
:1006E000F29EF0011124EC5CFE4F658376838783D4
:1006F000908785E933C0683011F08DEF2FC088E016
:10070000FA01DE01119601900D928A95E1F7CE0172
:1007100001960E94180580EA21C08AEF90E0988730
:100720008F831D821B8219821E821C821A82CE0137
:1007300001960E94180581EA11C06530F1F6FA01B0
:10074000238134814281618180810E94BE0388239C
:1007500011F080EB03C08CEF01C08EEF0E945C02B1
:100760002C960FB6F894DEBF0FBECDBFDF91CF91B0
:100770001F910F91FF90EF90DF9008951F93CF93FB
:10078000DF931816E4F41616D4F41416C4F4142FD8
:10079000D62FC82F61E00E94910A61E08D2F0E9440
:1007A000910A60E0812F0E94910A61E08D2F0E94E2
:1007B000CD0A60E08C2F0E94CD0A81E001C080E06C
:1007C000DF91CF911F9108950F931F93CF93DF93E4
:1007D00061E0809108010E94CD0A60E080910801EB
:1007E0000E94CD0A00E110E0C0E0D0E060E080911E
:1007F00006010E94CD0A81E090E00E94A30961E019
:10080000809106010E94CD0A81E090E00E94A30938
:10081000CC0FDD1F809104010E94FD0A019709F4AD
:10082000C1600150110911F760E0809106010E943A
:10083000CD0A81E090E00E94A30961E08091060169
:100840000E94CD0A81E090E00E94A309CE01DF91D1
:10085000CF911F910F910895CF92DF92EF92FF9267
:100860000F931F93CF93DF93CDB7DEB72C970FB6BF
:10087000F894DEBF0FBECDBF80918A01882309F4B2
:100880005AC00E94970900918B0110918C01209110
:100890008D0130918E016B017C01C01AD10AE20AF0
:1008A000F30A9701860140910201509103016A0108
:1008B000E12CF12C0C151D052E053F05E0F1609390
:1008C0008B0170938C0180938D0190938E010E9417
:1008D000E4038C0189E6898384E98A8387E08B833A
:1008E00086E98C870E9497096C837D838E839F8322
:1008F000C80126E0969587952A95E1F7998788871C
:100900000F730A872B81FE01349640E050E080E0AF
:1009100030E04217530728F49191890F4F5F5F4FE2
:10092000F8CF8B874CE050E0BE016F5F7F4F8AECC1
:1009300091E00E94B3082C960FB6F894DEBF0FBE6C
:10094000CDBFDF91CF911F910F91FF90EF90DF907E
:10095000CF900895809190018823F9F0E091920161
:10096000EE0FFF0BEC55FF4FA591B4912C918091A8
:10097000910130E0082E000C990B82239323892BE0
:1009800061F08091970190919801A0919901B091A7
:100990009A010197A109B1090BC08091970190912B
:1009A0009801A0919901B0919A010196A11DB11DE4
:1009B0008093970190939801A0939901B0939A0125
:1009C000089580919C018823F9F0E0919E01EE0F3B
:1009D000FF0BEC55FF4FA591B4912C9180919D0197
:1009E00030E0082E000C990B82239323892B61F0B1
:1009F0008091A3019091A401A091A501B091A601BD
:100A00000197A109B1090BC08091A3019091A401A4
:100A1000A091A501B091A6010196A11DB11D8093E1
:100A2000A3019093A401A093A501B093A6010895FA
:100A30004F925F926F927F928F929F92AF92BF92EE
:100A4000CF92DF92EF92FF920F931F93CF93DF939A
:100A5000CDB7DEB72C970FB6F894DEBF0FBECDBF73
:100A6000DC0116962D913C91179730930F0120933E
:100A70000E012FE8822E21E0922E8C013AE0A32E67
:100A800031E0B32E7C01B4E0EB0EF11CC12CD12C73
:100A900037014CE0542E4424439419821A821B825D
:100AA0001C821D821E821F82188619861A861B864A
:100AB0001C86FE013196D401852D01900D928A95F8
:100AC000E1F7F80180815C9CD0015D9CB00D1124A0
:100AD000A157BE4F8C93808118160CF05EC0C701E1
:100AE0000297FC0120811216BCF4E22F220FFF0BAB
:100AF000E458FF4FE4911296EC931297FC01808129
:100B0000E82F880FFF0BE057FF4FE4911396EC930B
:100B1000139711964C9202C011961C9261147104A5
:100B200001F1D701EC910E2E000CFF0BE458FF4FA2
:100B3000E4915C9CD0015D9CB00D1124A157BE4F87
:100B40001596EC931597F7018081E82F880FFF0B1E
:100B5000E057FF4FE4911696EC93169714964C923B
:100B60000AC05C9CF0015D9CF00D1124E157FE4F22
:100B7000148216821582D5016D917C91F8018081D5
:100B8000823021F0833021F08FEF03C080E001C07C
:100B900081E043E050E00E94DF08FCE08F0E911CF2
:100BA0000F5F1F4F82E0A80EB11CAFEFEA1AFA0ADE
:100BB000CA94CD2821F0CC24C394D12C6ECF2C968E
:100BC0000FB6F894DEBF0FBECDBFDF91CF911F915E
:100BD0000F91FF90EF90DF90CF90BF90AF909F90DC
:100BE0008F907F906F905F904F900895EFE8F1E0C5
:100BF0001082118212821382148215821682178249
:100C00001086118612861386148615861686178618
:100C1000108A118A128A138A148A158A168A178AE8
:100C20000895CF92DF92EF92FF920F931F93CF938D
:100C3000DF93CDB7DEB765970FB6F894DEBF0FBE72
:100C4000CDBF0E9497090091A7011091A8012091A2
:100C5000A9013091AA016B017C01C01AD10AE20AF4
:100C6000F30A9701860140910E0150910F016A012C
:100C7000E12CF12C0C151D052E053F0508F453C081
:100C80006093A7017093A8018093A9019093AA0192
:100C900089E6898383E98A8380E18B8386E98D8B6A
:100CA000F8948091970190919801A0919901B09149
:100CB0009A0188879987AA87BB878091A301909121
:100CC000A401A091A501B091A6018C879D87AE8754
:100CD000BF8778940E9497096C837D838E839F835E
:100CE00080910E0190910F01A0E0B0E0888B998B6C
:100CF000AA8BBB8B2B81FE01349640E050E080E054
:100D000030E04217530728F49191890F4F5F5F4FEE
:100D1000F8CF8C8B45E150E0BE016F5F7F4F8AECCE
:100D200091E00E94B30865960FB6F894DEBF0FBE3F
:100D3000CDBFDF91CF911F910F91FF90EF90DF908A
:100D4000CF900895CF93DF93CEEAD1E08AEC91E083
:100D50000E94E906892BD1F18AEC91E00E940307F9
:100D6000E091C901E11102C0893669F521E02E0F39
:100D70002093C901F0E0E555FE4F808330E060919B
:100D8000AD01862F90E0059628173907F9F625550D
:100D90003E4FF901319780818639A9F48091AC01E9
:100DA000EEEAF1E090E04E2F4C1B461718F441910B
:100DB000940FF9CFF90132972081291304C04EEA2C
:100DC00051E00E947E021092C901C0CFDF91CF9105
:100DD0000895FC01918D228D892F90E0805C9F4FBA
:100DE000821B91098F7399270895FC01918D828D43
:100DF000981731F0828DE80FF11D858D90E00895F0
:100E00008FEF9FEF0895FC01918D828D981761F00F
:100E1000828DDF01A80FB11D5D968C91928D9F5F31
:100E20009F73928F90E008958FEF9FEF08958CE667
:100E300098E0892B49F080E090E0892B29F00E940E
:100E40006C0881110C9400000895FC01848DDF0171
:100E5000A80FB11DA35ABF4F2C91848D90E001962D
:100E60008F739927848FA689B7892C93A089B1891C
:100E70008C9180648C93938D848D981306C0028826
:100E8000F389E02D80818F7D80830895CF93DF9358
:100E9000EC01888D8823C9F0EA89FB89808185FD72
:100EA00005C0A889B9898C9186FD0FC00FB607FCD3
:100EB000F5CF808185FFF2CFA889B9898C9185FF14
:100EC000EDCFCE010E942507E7CFDF91CF910895A6
:100ED000EF92FF920F931F93CF93DF93EC0181E08A
:100EE000888F9B8D8C8D981305C0E889F989808146
:100EF00085FD24C0F62E0B8D10E00F5F1F4F0F7382
:100F00001127E02E8C8DE8120CC00FB607FCFACF2B
:100F1000E889F989808185FFF5CFCE010E942507F8
:100F2000F1CF8B8DFE01E80FF11DE35AFF4FF082E8
:100F30000B8FEA89FB898081806207C0EE89FF8977
:100F40006083E889F98980818064808381E090E012
:100F5000DF91CF911F910F91FF90EF900895CF9265
:100F6000DF92EF92FF921F93CF93DF93EC016A0120
:100F70007B01122FE889F98982E080834115514E67
:100F800061057105B1F060E079E08DE390E0A701C3
:100F900096010E945C0BDA01C9010197A109B10910
:100FA000B695A79597958795AC01411580E15807AF
:100FB000A8F0E889F989108260E874E88EE190E091
:100FC000A70196010E945C0BBA01A9014150510989
:100FD000610971097695679557954795EC85FD856B
:100FE0005083EE85FF854083188EEC89FD89108340
:100FF000EA89FB89808180618083EA89FB8980811D
:1010000088608083EA89FB89808180688083EA899F
:10101000FB8980818F7D8083DF91CF911F91FF902D
:10102000EF90DF90CF9008951F920F920FB60F921E
:1010300011242F938F939F93EF93FF93E091DA0105
:10104000F091DB018081E091E001F091E10182FD0E
:1010500012C090818091E3018F5F8F732091E40132
:10106000821751F0E091E301F0E0E653FE4F958FD7
:101070008093E30101C08081FF91EF919F918F9157
:101080002F910F900FBE0F901F9018951F920F92E7
:101090000FB60F9211242F933F934F935F936F934B
:1010A0007F938F939F93AF93BF93EF93FF938AECBC
:1010B00091E00E942507FF91EF91BF91AF919F9121
:1010C0008F917F916F915F914F913F912F910F90F1
:1010D0000FBE0F901F9018958AEC91E00E94E906D0
:1010E00021E0892B09F420E0822F0895EAECF1E059
:1010F0001382128288EE93E0A0E0B0E084839583AF
:10110000A683B78389E191E09183808385EC90E0A9
:101110009587848784EC90E09787868780EC90E0C1
:10112000918B808B81EC90E0938B828B82EC90E0B2
:10113000958B848B86EC90E0978B868B118E128E2C
:10114000138E148E089508950E94AE090E94A3087C
:101150000E948E00C7E1D7E00E9497002097E1F33C
:101160000E941707F9CFCF92DF92EF92FF920F9371
:101170001F93CF93DF936C017A018B01C0E0D0E025
:10118000CE15DF0589F0D8016D918D01D601ED9165
:10119000FC910190F081E02DC6010995892B11F495
:1011A0007E0102C02196ECCFC701DF91CF911F9144
:1011B0000F91FF90EF90DF90CF90089508958230C7
:1011C000E8F4E82FF0E0EE0FFF1FE05FFE4F7183C1
:1011D0006083813041F0809169008C7F482B40937F
:1011E0006900E89A089580916900440F551F440FE3
:1011F000551F837F482B40936900E99A08951F92F9
:101200000F920FB60F9211242F933F934F935F933A
:101210006F937F938F939F93AF93BF93EF93FF93BE
:10122000E0911001F09111010995FF91EF91BF91AB
:10123000AF919F918F917F916F915F914F913F916E
:101240002F910F900FBE0F901F9018951F920F9225
:101250000FB60F9211242F933F934F935F936F9389
:101260007F938F939F93AF93BF93EF93FF93E091FF
:101270001201F09113010995FF91EF91BF91AF9188
:101280009F918F917F916F915F914F913F912F919E
:101290000F900FBE0F901F9018951F920F920FB6D0
:1012A0000F9211242F933F938F939F93AF93BF93EC
:1012B0008091680290916902A0916A02B0916B02DC
:1012C0003091670223E0230F2D3720F40196A11DF2
:1012D000B11D05C026E8230F0296A11DB11D209364
:1012E00067028093680290936902A0936A02B093A8
:1012F0006B0280916C0290916D02A0916E02B09190
:101300006F020196A11DB11D80936C0290936D0236
:10131000A0936E02B0936F02BF91AF919F918F9196
:101320003F912F910F900FBE0F901F9018952FB7E0
:10133000F894609168027091690280916A029091BC
:101340006B022FBF08958230910538F0880F991FE6
:10135000880F991F05970197F1F70895789484B540
:10136000826084BD84B5816084BD85B5826085BDA1
:1013700085B5816085BDEEE6F0E080818160808387
:10138000E1E8F0E01082808182608083808181606A
:101390008083E0E8F0E0808181608083E1EBF0E031
:1013A000808184608083E0EBF0E0808181608083D5
:1013B000EAE7F0E0808184608083808182608083BE
:1013C0008081816080838081806880831092C100E9
:1013D00008958093140108958E3008F08E50877020
:1013E0002091140190E4299F90011124822B809375
:1013F0007C0080917A00806480937A0080917A00EA
:1014000086FDFCCF809178002091790090E0922BAE
:1014100008951F93CF93DF93182FEB0161E00E9493
:10142000910A209711F460E004C0CF3FD10539F450
:1014300061E0812FDF91CF911F910C94CD0AE12FB4
:10144000F0E0E859FF4FE491E330F9F048F4E1307F
:10145000B9F0E230A1F584B5806284BDC8BD34C066
:10146000E730E9F0E83019F1E43049F58091800087
:10147000806280938000D0938B00C0938A0024C048
:1014800084B5806884BDC7BD1FC08091800080681E
:1014900080938000D0938900C093880015C080910C
:1014A000B00080688093B000C093B3000DC08091FD
:1014B000B00080628093B000C093B40005C0C03813
:1014C000D1050CF0B5CFAFCFDF91CF911F9108952B
:1014D000833081F028F4813099F08230A1F00895B2
:1014E0008730A9F08830B9F08430D1F48091800041
:1014F0008F7D03C0809180008F7780938000089556
:1015000084B58F7702C084B58F7D84BD08958091A6
:10151000B0008F7703C08091B0008F7D8093B000C2
:101520000895CF93DF9390E0FC01E458FF4F24919E
:10153000FC01E057FF4F8491882361F190E0880F10
:10154000991FFC01E854FF4FC591D491FC01E2556D
:10155000FF4FA591B491611109C09FB7F89488819C
:10156000209582238883EC912E230BC0623061F496
:101570009FB7F8943881822F809583238883EC91DC
:101580002E2B2C939FBF06C08FB7F894E8812E2B8B
:1015900028838FBFDF91CF9108951F93CF93DF935F
:1015A000282F30E0F901E859FF4F8491F901E45800
:1015B000FF4FD491F901E057FF4FC491CC23C9F0FC
:1015C000162F81110E94680AEC2FF0E0EE0FFF1F2A
:1015D000E255FF4FA591B4918FB7F894111105C052
:1015E0009C91ED2FE095E92302C0EC91ED2BEC935B
:1015F0008FBFDF91CF911F910895CF93DF93282F55
:1016000030E0F901E859FF4F8491F901E458FF4FA8
:10161000D491F901E057FF4FC491CC2391F081118F
:101620000E94680AEC2FF0E0EE0FFF1FEC55FF4F11
:10163000A591B491EC91ED2381E090E021F480E05C
:1016400002C080E090E0DF91CF910895CF93CFB7B3
:10165000F89480917302811127C0EAE9F0E0849147
:10166000E6E8F0E09491E82FF0E0EE0FFF1FE85479
:10167000FF4FA591B491EC91E92321F461E08AE058
:101680000E94CD0A61E08AE00E94910A8CB58061D7
:101690008CBD8CB580648CBD61E08DE00E94910AA8
:1016A00061E08BE00E94910A809173028F5F8093CA
:1016B0007302CFBFCF910895A1E21A2EAA1BBB1BC4
:1016C000FD010DC0AA1FBB1FEE1FFF1FA217B3070E
:1016D000E407F50720F0A21BB30BE40BF50B661F24
:1016E000771F881F991F1A9469F7609570958095E8
:1016F00090959B01AC01BD01CF010895EE0FFF1F36
:0C1700000590F491E02D0994F894FFCFBF
:10170C00C800C800100011000F00AA04E104F40185
:10171C00DE08DE0801000000006807B308E90603D4
:06172C0007F50646070068
:00000001FF
