:100000000C9462000C948A000C948A000C948A0070
:100010000C948A000C948A000C948A000C948A0038
:100020000C948A000C948A000C948A000C948A0028
:100030000C948A000C948A000C948A000C948A0018
:100040000C94BA030C948A000C94F0020C942203D2
:100050000C948A000C948A000C948A000C948A00F8
:100060000C948A000C948A00000000080002010031
:100070000003040700000000000000000102040863
:100080001020408001020408102001020408102002
:10009000040404040404040402020202020203032E
:1000A00003030303000000002300260029000000D2
:1000B0000000250028002B0000000000240027007D
:1000C0002A00520311241FBECFEFD8E0DEBFCDBF00
:1000D00011E0A0E0B1E0E0EDFAE002C005900D9281
:1000E000A032B107D9F721E0A0E2B1E001C01D9232
:1000F000A93EB207E1F710E0C2E6D0E004C02197C4
:10010000FE010E946005C136D107C9F70E94800335
:100110000C9466050C9400000CB405FC0DC09EBD4B
:1001200000000DB407FEFDCF9EB58EBD00000DB4DE
:1001300007FEFDCF8EB508958EBD00000DB407FEFD
:10014000FDCF8EB59EBD00000DB407FEFDCF9EB560
:100150000895CF93DF93EC018091E701882399F014
:100160003FB7F8948091E701813059F48DB38093C3
:10017000E5012DB39091E601909592239DBB3FBF81
:1001800002C03093E50180E58CBD81E08DBD60E06B
:1001900089E00E94AF0481E090E00E940404CE0157
:1001A0000E948C0081E090E00E94040461E089E0FC
:1001B0000E94AF048091E701882361F09FB7F89413
:1001C0002091E7018091E501213019F48DBB9FBF9B
:1001D00001C08FBFDF91CF9108957F70706390E071
:1001E00090E4899F902D88271124862B972B0C94BF
:1001F000A9000E94080561E089E00E94AF0461E067
:1002000089E00E94730480E090E80E94A90026E043
:1002100040E855E260E070E08FE391E00C948B02DF
:100220000F931F93CF93DF9300D000D000D0CDB7B2
:10023000DEB7162FFA018131A1F0823111F1803140
:10024000F1F5633009F04DC0618170E0762F6627CB
:100250008281682B80810E94ED0085E0E0E0F1E082
:1002600031C06230F1F51081018161E0812F0E947F
:100270007304602F812F0E94AF0485E0E5E0F1E078
:1002800021C0613071F5008160E0802F0E9473040D
:10029000802F0E94DF04BE016F5F7F4F96E0FB015D
:1002A00011929A95E9F799E6998391E89A831B83CD
:1002B00096E99E838C838D8346E050E00EC085E0F6
:1002C000EAE0F1E0DE01119601900D928A95E1F7E6
:1002D00045E050E0BE016F5F7F4F8FE391E00E94E9
:1002E0008F0326960FB6F894DEBF0FBECDBFDF9109
:1002F000CF911F910F910895CF93DF93C3E2D1E087
:100300008FE391E00E94C501892BD1F18FE391E049
:100310000E94DF01E0913E01E11102C0893669F5DA
:1003200021E02E0F20933E01F0E0E05EFE4F80833F
:1003300030E060912201862F90E00596281739075A
:10034000F9F6205E3E4FF901319780818639A9F494
:1003500080912101E3E2F1E090E04E2F4C1B461723
:1003600018F44191940FF9CFF901329720812913A4
:1003700004C043E251E00E94100110923E01C0CF40
:10038000DF91CF9108950C947C01FC01918D228D19
:10039000892F90E0805C9F4F821B91098F73992772
:1003A0000895FC01918D828D981731F0828DE80FB0
:1003B000F11D858D90E008958FEF9FEF0895FC016A
:1003C000918D828D981761F0828DDF01A80FB11D8C
:1003D0005D968C91928D9F5F9F73928F90E00895B0
:1003E0008FEF9FEF089588E493E0892B49F080E038
:1003F00090E0892B29F00E94480381110C940000A1
:100400000895FC01848DDF01A80FB11DA35ABF4FD1
:100410002C91848D90E001968F739927848FA68903
:10042000B7892C93A089B1898C9180648C93938D2A
:10043000848D981306C00288F389E02D80818F7D1A
:1004400080830895CF93DF93EC01888D8823C9F0D2
:10045000EA89FB89808185FD05C0A889B9898C91CD
:1004600086FD0FC00FB607FCF5CF808185FFF2CF68
:10047000A889B9898C9185FFEDCFCE010E94010238
:10048000E7CFDF91CF910895EF92FF920F931F93E3
:10049000CF93DF93EC0181E0888F9B8D8C8D981337
:1004A00005C0E889F989808185FD24C0F62E0B8D71
:1004B00010E00F5F1F4F0F731127E02E8C8DE81295
:1004C0000CC00FB607FCFACFE889F989808185FF57
:1004D000F5CFCE010E940102F1CF8B8DFE01E80F16
:1004E000F11DE35AFF4FF0820B8FEA89FB8980816F
:1004F000806207C0EE89FF896083E889F98980817D
:100500008064808381E090E0DF91CF911F910F9113
:10051000FF90EF900895CF92DF92EF92FF921F939A
:10052000CF93DF93EC016A017B01122FE889F989EF
:1005300082E080834115514E61057105B1F060E0A4
:1005400079E08DE390E0A70196010E943E05DA0173
:10055000C9010197A109B109B695A7959795879506
:10056000AC01411580E15807A8F0E889F9891082AB
:1005700060E874E88EE190E0A70196010E943E05D4
:10058000BA01A90141505109610971097695679530
:1005900057954795EC85FD855083EE85FF85408313
:1005A000188EEC89FD891083EA89FB89808180613E
:1005B0008083EA89FB89808188608083EA89FB895E
:1005C000808180688083EA89FB8980818F7D808338
:1005D000DF91CF911F91FF90EF90DF90CF90089522
:1005E0001F920F920FB60F9211242F938F939F9308
:1005F000EF93FF93E0914F01F09150018081E091E2
:100600005501F091560182FD12C0908180915801F0
:100610008F5F8F7320915901821751F0E09158013B
:10062000F0E0E15CFE4F958F8093580101C080811E
:10063000FF91EF919F918F912F910F900FBE0F908F
:100640001F9018951F920F920FB60F9211242F939F
:100650003F934F935F936F937F938F939F93AF934A
:10066000BF93EF93FF938FE391E00E940102FF910C
:10067000EF91BF91AF919F918F917F916F915F911A
:100680004F913F912F910F900FBE0F901F90189593
:100690008FE391E00E94C50121E0892B09F420E05D
:1006A000822F0895EFE3F1E01382128288EE93E047
:1006B000A0E0B0E084839583A683B78383E191E0D3
:1006C0009183808385EC90E09587848784EC90E02B
:1006D0009787868780EC90E0918B808B81EC90E00F
:1006E000938B828B82EC90E0958B848B86EC90E0F0
:1006F000978B868B118E128E138E148E089508950B
:100700000E940F040E947F030E94F900C3EFD1E012
:100710000E94C3012097E1F30E94F301F9CFCF9229
:10072000DF92EF92FF920F931F93CF93DF936C01B1
:100730007A018B01C0E0D0E0CE15DF0589F0D80149
:100740006D918D01D601ED91FC910190F081E02D2C
:10075000C6010995892B11F47E0102C02196ECCFC8
:10076000C701DF91CF911F910F91FF90EF90DF9024
:10077000CF9008951F920F920FB60F9211242F93CE
:100780003F938F939F93AF93BF938091DD0190919F
:10079000DE01A091DF01B091E0013091DC0123E0A6
:1007A000230F2D3720F40196A11DB11D05C026E8A9
:1007B000230F0296A11DB11D2093DC018093DD0162
:1007C0009093DE01A093DF01B093E0018091E101FD
:1007D0009091E201A091E301B091E4010196A11D85
:1007E000B11D8093E1019093E201A093E301B093E6
:1007F000E401BF91AF919F918F913F912F910F9005
:100800000FBE0F901F9018958230910538F0880F19
:10081000991F880F991F05970197F1F7089578940C
:1008200084B5826084BD84B5816084BD85B58260F5
:1008300085BD85B5816085BDEEE6F0E08081816093
:100840008083E1E8F0E01082808182608083808193
:1008500081608083E0E8F0E0808181608083E1EB6B
:10086000F0E0808184608083E0EBF0E08081816053
:100870008083EAE7F0E08081846080838081826009
:1008800080838081816080838081806880831092F2
:10089000C1000895833081F028F4813099F08230CE
:1008A000A1F008958730A9F08830B9F08430D1F4F0
:1008B000809180008F7D03C0809180008F7780932E
:1008C0008000089584B58F7702C084B58F7D84BD84
:1008D00008958091B0008F7703C08091B0008F7D24
:1008E0008093B0000895CF93DF9390E0FC01E4582B
:1008F000FF4F2491FC01E057FF4F8491882361F161
:1009000090E0880F991FFC01E854FF4FC591D491E6
:10091000FC01E255FF4FA591B491611109C09FB749
:10092000F8948881209582238883EC912E230BC034
:10093000623061F49FB7F8943881822F80958323C9
:100940008883EC912E2B2C939FBF06C08FB7F89411
:10095000E8812E2B28838FBFDF91CF9108951F93BD
:10096000CF93DF93282F30E0F901E859FF4F8491AE
:10097000F901E458FF4FD491F901E057FF4FC491BA
:10098000CC23C9F0162F81110E944A04EC2FF0E00D
:10099000EE0FFF1FE255FF4FA591B4918FB7F8946A
:1009A000111105C09C91ED2FE095E92302C0EC9157
:1009B000ED2BEC938FBFDF91CF911F910895CF93D3
:1009C000DF93282F30E0F901E859FF4F8491F901B6
:1009D000E458FF4FD491F901E057FF4FC491CC2365
:1009E00091F081110E944A04EC2FF0E0EE0FFF1FFE
:1009F000EC55FF4FA591B491EC91ED2381E090E08F
:100A000021F480E002C080E090E0DF91CF91089572
:100A1000CF93CFB7F8948091E801811127C0EAE91C
:100A2000F0E08491E6E8F0E09491E82FF0E0EE0F3A
:100A3000FF1FE854FF4FA591B491EC91E92321F4F5
:100A400061E08AE00E94AF0461E08AE00E947304E2
:100A50008CB580618CBD8CB580648CBD61E08DE00F
:100A60000E94730461E08BE00E9473048091E801AE
:100A70008F5F8093E801CFBFCF910895A1E21A2E36
:100A8000AA1BBB1BFD010DC0AA1FBB1FEE1FFF1F32
:100A9000A217B307E407F50720F0A21BB30BE40B82
:100AA000F50B661F771F881F991F1A9469F76095C9
:100AB0007095809590959B01AC01BD01CF01089583
:100AC000EE0FFF1F0590F491E02D0994F894FFCFED
:100AD0006980000096698100009669FE000096001A
:100AE00000000044028F03C501DF01D10122020092
:00000001FF
